{
  "contracts/Post.sol": {
    "PostFactory": {
      "abi": [
        {
          "constant": true,
          "inputs": [
            {
              "name": "",
              "type": "address"
            }
          ],
          "name": "isUserRegistered",
          "outputs": [
            {
              "name": "",
              "type": "bool"
            }
          ],
          "payable": false,
          "stateMutability": "view",
          "type": "function"
        },
        {
          "constant": true,
          "inputs": [],
          "name": "isRegistered",
          "outputs": [
            {
              "name": "",
              "type": "bool"
            }
          ],
          "payable": false,
          "stateMutability": "view",
          "type": "function"
        },
        {
          "constant": false,
          "inputs": [
            {
              "name": "index",
              "type": "uint256"
            },
            {
              "name": "creator",
              "type": "address"
            }
          ],
          "name": "deletePost",
          "outputs": [],
          "payable": false,
          "stateMutability": "nonpayable",
          "type": "function"
        },
        {
          "constant": true,
          "inputs": [],
          "name": "manager",
          "outputs": [
            {
              "name": "",
              "type": "address"
            }
          ],
          "payable": false,
          "stateMutability": "view",
          "type": "function"
        },
        {
          "constant": true,
          "inputs": [],
          "name": "getUsername",
          "outputs": [
            {
              "name": "",
              "type": "string"
            }
          ],
          "payable": false,
          "stateMutability": "view",
          "type": "function"
        },
        {
          "constant": false,
          "inputs": [
            {
              "name": "username",
              "type": "string"
            }
          ],
          "name": "registerUser",
          "outputs": [],
          "payable": false,
          "stateMutability": "nonpayable",
          "type": "function"
        },
        {
          "constant": true,
          "inputs": [],
          "name": "getDeployedPostsLength",
          "outputs": [
            {
              "name": "",
              "type": "uint256"
            }
          ],
          "payable": false,
          "stateMutability": "view",
          "type": "function"
        },
        {
          "constant": false,
          "inputs": [
            {
              "name": "postTitle",
              "type": "string"
            },
            {
              "name": "postBody",
              "type": "string"
            }
          ],
          "name": "deployPost",
          "outputs": [],
          "payable": false,
          "stateMutability": "nonpayable",
          "type": "function"
        },
        {
          "constant": true,
          "inputs": [
            {
              "name": "",
              "type": "uint256"
            }
          ],
          "name": "deployedPosts",
          "outputs": [
            {
              "name": "",
              "type": "address"
            }
          ],
          "payable": false,
          "stateMutability": "view",
          "type": "function"
        },
        {
          "constant": true,
          "inputs": [
            {
              "name": "",
              "type": "address"
            }
          ],
          "name": "users",
          "outputs": [
            {
              "name": "",
              "type": "string"
            }
          ],
          "payable": false,
          "stateMutability": "view",
          "type": "function"
        },
        {
          "constant": true,
          "inputs": [],
          "name": "getDeployedPosts",
          "outputs": [
            {
              "name": "",
              "type": "address[]"
            }
          ],
          "payable": false,
          "stateMutability": "view",
          "type": "function"
        },
        {
          "inputs": [],
          "payable": false,
          "stateMutability": "nonpayable",
          "type": "constructor"
        }
      ],
      "devdoc": {
        "methods": {}
      },
      "evm": {
        "assembly": "    /* \"contracts/Post.sol\":64:1643  contract PostFactory {\r... */\n  mstore(0x40, 0x60)\n    /* \"contracts/Post.sol\":346:413  function PostFactory() public {\r... */\n  jumpi(tag_1, iszero(callvalue))\n  0x0\n  dup1\n  revert\ntag_1:\n    /* \"contracts/Post.sol\":385:392  manager */\n  0x0\n    /* \"contracts/Post.sol\":385:405  manager = msg.sender */\n  dup1\n  sload\n  sub(exp(0x2, 0xa0), 0x1)\n    /* \"contracts/Post.sol\":395:405  msg.sender */\n  caller\n    /* \"contracts/Post.sol\":385:405  manager = msg.sender */\n  and\n  not(sub(exp(0x2, 0xa0), 0x1))\n  swap1\n  swap2\n  and\n  or\n  swap1\n  sstore\n    /* \"contracts/Post.sol\":64:1643  contract PostFactory {\r... */\n  dataSize(sub_0)\n  dup1\n  dataOffset(sub_0)\n  0x0\n  codecopy\n  0x0\n  return\nstop\n\nsub_0: assembly {\n        /* \"contracts/Post.sol\":64:1643  contract PostFactory {\r... */\n      mstore(0x40, 0x60)\n      jumpi(tag_1, iszero(calldatasize))\n      and(div(calldataload(0x0), 0x100000000000000000000000000000000000000000000000000000000), 0xffffffff)\n      0x163f7522\n      dup2\n      eq\n      tag_2\n      jumpi\n      dup1\n      0x22366844\n      eq\n      tag_3\n      jumpi\n      dup1\n      0x40b4baf9\n      eq\n      tag_4\n      jumpi\n      dup1\n      0x481c6a75\n      eq\n      tag_5\n      jumpi\n      dup1\n      0x681f3e6d\n      eq\n      tag_6\n      jumpi\n      dup1\n      0x704f1b94\n      eq\n      tag_7\n      jumpi\n      dup1\n      0x735fe553\n      eq\n      tag_8\n      jumpi\n      dup1\n      0x9b124341\n      eq\n      tag_9\n      jumpi\n      dup1\n      0x9cd62aa8\n      eq\n      tag_10\n      jumpi\n      dup1\n      0xa87430ba\n      eq\n      tag_11\n      jumpi\n      dup1\n      0xc01c052d\n      eq\n      tag_12\n      jumpi\n    tag_1:\n      0x0\n      dup1\n      revert\n        /* \"contracts/Post.sol\":121:169  mapping(address => bool) public isUserRegistered */\n    tag_2:\n      jumpi(tag_13, iszero(callvalue))\n      0x0\n      dup1\n      revert\n    tag_13:\n      tag_14\n      and(calldataload(0x4), 0xffffffffffffffffffffffffffffffffffffffff)\n      jump(tag_15)\n    tag_14:\n      mload(0x40)\n      swap1\n      iszero\n      iszero\n      dup2\n      mstore\n      0x20\n      add\n      mload(0x40)\n      dup1\n      swap2\n      sub\n      swap1\n      return\n        /* \"contracts/Post.sol\":857:961  function isRegistered() public view returns(bool) {\r... */\n    tag_3:\n      jumpi(tag_16, iszero(callvalue))\n      0x0\n      dup1\n      revert\n    tag_16:\n      tag_14\n      jump(tag_18)\n        /* \"contracts/Post.sol\":1253:1421  function deletePost(uint index, address creator) public {\r... */\n    tag_4:\n      jumpi(tag_19, iszero(callvalue))\n      0x0\n      dup1\n      revert\n    tag_19:\n      tag_20\n      calldataload(0x4)\n      and(calldataload(0x24), 0xffffffffffffffffffffffffffffffffffffffff)\n      jump(tag_21)\n    tag_20:\n      stop\n        /* \"contracts/Post.sol\":92:114  address public manager */\n    tag_5:\n      jumpi(tag_22, iszero(callvalue))\n      0x0\n      dup1\n      revert\n    tag_22:\n      tag_23\n      jump(tag_24)\n    tag_23:\n      mload(0x40)\n      0xffffffffffffffffffffffffffffffffffffffff\n      swap1\n      swap2\n      and\n      dup2\n      mstore\n      0x20\n      add\n      mload(0x40)\n      dup1\n      swap2\n      sub\n      swap1\n      return\n        /* \"contracts/Post.sol\":632:845  function getUsername() public view returns(string memory) {\r... */\n    tag_6:\n      jumpi(tag_25, iszero(callvalue))\n      0x0\n      dup1\n      revert\n    tag_25:\n      tag_26\n      jump(tag_27)\n    tag_26:\n      mload(0x40)\n      0x20\n      dup1\n      dup3\n      mstore\n      dup2\n      swap1\n      dup2\n      add\n      dup4\n      dup2\n      dup2\n      mload\n      dup2\n      mstore\n      0x20\n      add\n      swap2\n      pop\n      dup1\n      mload\n      swap1\n      0x20\n      add\n      swap1\n      dup1\n      dup4\n      dup4\n        /* \"--CODEGEN--\":23:24   */\n      0x0\n        /* \"--CODEGEN--\":8:108   */\n    tag_28:\n        /* \"--CODEGEN--\":33:36   */\n      dup4\n        /* \"--CODEGEN--\":30:31   */\n      dup2\n        /* \"--CODEGEN--\":27:29   */\n      lt\n        /* \"--CODEGEN--\":8:108   */\n      iszero\n      tag_29\n      jumpi\n        /* \"--CODEGEN--\":99:100   */\n      dup1\n        /* \"--CODEGEN--\":94:97   */\n      dup3\n        /* \"--CODEGEN--\":90:93   */\n      add\n        /* \"--CODEGEN--\":84:89   */\n      mload\n        /* \"--CODEGEN--\":71:74   */\n      dup4\n      dup3\n      add\n        /* \"--CODEGEN--\":64:70   */\n      mstore\n        /* \"--CODEGEN--\":52:54   */\n      0x20\n        /* \"--CODEGEN--\":45:48   */\n      add\n        /* \"--CODEGEN--\":8:108   */\n      jump(tag_28)\n    tag_29:\n        /* \"--CODEGEN--\":12:26   */\n      pop\n        /* \"--CODEGEN--\":3:112   */\n      pop\n      pop\n      pop\n      swap1\n      pop\n      swap1\n      dup2\n      add\n      swap1\n      0x1f\n      and\n      dup1\n      iszero\n      tag_31\n      jumpi\n      dup1\n      dup3\n      sub\n      dup1\n      mload\n      0x1\n      dup4\n      0x20\n      sub\n      0x100\n      exp\n      sub\n      not\n      and\n      dup2\n      mstore\n      0x20\n      add\n      swap2\n      pop\n    tag_31:\n      pop\n      swap3\n      pop\n      pop\n      pop\n      mload(0x40)\n      dup1\n      swap2\n      sub\n      swap1\n      return\n        /* \"contracts/Post.sol\":425:620  function registerUser(string memory username) public {\r... */\n    tag_7:\n      jumpi(tag_32, iszero(callvalue))\n      0x0\n      dup1\n      revert\n    tag_32:\n      tag_20\n      0x4\n      0x24\n      dup2\n      calldataload\n      dup2\n      dup2\n      add\n      swap1\n      dup4\n      add\n      calldataload\n      dup1\n      0x20\n      0x1f\n      dup3\n      add\n      dup2\n      swap1\n      div\n      dup2\n      mul\n      add\n      mload(0x40)\n      swap1\n      dup2\n      add\n      0x40\n      mstore\n      dup2\n      dup2\n      mstore\n      swap3\n      swap2\n      swap1\n      0x20\n      dup5\n      add\n      dup4\n      dup4\n      dup1\n      dup3\n      dup5\n      calldatacopy\n      pop\n      swap5\n      swap7\n      pop\n      tag_34\n      swap6\n      pop\n      pop\n      pop\n      pop\n      pop\n      pop\n      jump\n        /* \"contracts/Post.sol\":1429:1535  function getDeployedPostsLength() public view returns(uint) {\r... */\n    tag_8:\n      jumpi(tag_35, iszero(callvalue))\n      0x0\n      dup1\n      revert\n    tag_35:\n      tag_36\n      jump(tag_37)\n    tag_36:\n      mload(0x40)\n      swap1\n      dup2\n      mstore\n      0x20\n      add\n      mload(0x40)\n      dup1\n      swap2\n      sub\n      swap1\n      return\n        /* \"contracts/Post.sol\":973:1241  function deployPost(string memory postTitle, string memory postBody) public {\r... */\n    tag_9:\n      jumpi(tag_38, iszero(callvalue))\n      0x0\n      dup1\n      revert\n    tag_38:\n      tag_20\n      0x4\n      0x24\n      dup2\n      calldataload\n      dup2\n      dup2\n      add\n      swap1\n      dup4\n      add\n      calldataload\n      dup1\n      0x20\n      0x1f\n      dup3\n      add\n      dup2\n      swap1\n      div\n      dup2\n      mul\n      add\n      mload(0x40)\n      swap1\n      dup2\n      add\n      0x40\n      mstore\n      dup2\n      dup2\n      mstore\n      swap3\n      swap2\n      swap1\n      0x20\n      dup5\n      add\n      dup4\n      dup4\n      dup1\n      dup3\n      dup5\n      calldatacopy\n      dup3\n      add\n      swap2\n      pop\n      pop\n      pop\n      pop\n      pop\n      pop\n      swap2\n      swap1\n      dup1\n      calldataload\n      swap1\n      0x20\n      add\n      swap1\n      dup3\n      add\n      dup1\n      calldataload\n      swap1\n      0x20\n      add\n      swap1\n      dup1\n      dup1\n      0x1f\n      add\n      0x20\n      dup1\n      swap2\n      div\n      mul\n      0x20\n      add\n      mload(0x40)\n      swap1\n      dup2\n      add\n      0x40\n      mstore\n      dup2\n      dup2\n      mstore\n      swap3\n      swap2\n      swap1\n      0x20\n      dup5\n      add\n      dup4\n      dup4\n      dup1\n      dup3\n      dup5\n      calldatacopy\n      pop\n      swap5\n      swap7\n      pop\n      tag_40\n      swap6\n      pop\n      pop\n      pop\n      pop\n      pop\n      pop\n      jump\n        /* \"contracts/Post.sol\":222:252  address[] public deployedPosts */\n    tag_10:\n      jumpi(tag_41, iszero(callvalue))\n      0x0\n      dup1\n      revert\n    tag_41:\n      tag_23\n      calldataload(0x4)\n      jump(tag_43)\n        /* \"contracts/Post.sol\":176:215  mapping(address => string) public users */\n    tag_11:\n      jumpi(tag_44, iszero(callvalue))\n      0x0\n      dup1\n      revert\n    tag_44:\n      tag_26\n      and(calldataload(0x4), 0xffffffffffffffffffffffffffffffffffffffff)\n      jump(tag_46)\n        /* \"contracts/Post.sol\":1547:1640  function getDeployedPosts() public view returns (address[]) {\r... */\n    tag_12:\n      jumpi(tag_51, iszero(callvalue))\n      0x0\n      dup1\n      revert\n    tag_51:\n      tag_52\n      jump(tag_53)\n    tag_52:\n      mload(0x40)\n      0x20\n      dup1\n      dup3\n      mstore\n      dup2\n      swap1\n      dup2\n      add\n      dup4\n      dup2\n      dup2\n      mload\n      dup2\n      mstore\n      0x20\n      add\n      swap2\n      pop\n      dup1\n      mload\n      swap1\n      0x20\n      add\n      swap1\n      0x20\n      mul\n      dup1\n      dup4\n      dup4\n        /* \"--CODEGEN--\":23:24   */\n      0x0\n        /* \"--CODEGEN--\":8:108   */\n    tag_54:\n        /* \"--CODEGEN--\":33:36   */\n      dup4\n        /* \"--CODEGEN--\":30:31   */\n      dup2\n        /* \"--CODEGEN--\":27:29   */\n      lt\n        /* \"--CODEGEN--\":8:108   */\n      iszero\n      tag_55\n      jumpi\n        /* \"--CODEGEN--\":99:100   */\n      dup1\n        /* \"--CODEGEN--\":94:97   */\n      dup3\n        /* \"--CODEGEN--\":90:93   */\n      add\n        /* \"--CODEGEN--\":84:89   */\n      mload\n        /* \"--CODEGEN--\":71:74   */\n      dup4\n      dup3\n      add\n        /* \"--CODEGEN--\":64:70   */\n      mstore\n        /* \"--CODEGEN--\":52:54   */\n      0x20\n        /* \"--CODEGEN--\":45:48   */\n      add\n        /* \"--CODEGEN--\":8:108   */\n      jump(tag_54)\n    tag_55:\n        /* \"--CODEGEN--\":12:26   */\n      pop\n        /* \"--CODEGEN--\":3:112   */\n      pop\n      pop\n      pop\n      swap1\n      pop\n      add\n      swap3\n      pop\n      pop\n      pop\n      mload(0x40)\n      dup1\n      swap2\n      sub\n      swap1\n      return\n        /* \"contracts/Post.sol\":121:169  mapping(address => bool) public isUserRegistered */\n    tag_15:\n      mstore(0x20, 0x1)\n      0x0\n      swap1\n      dup2\n      mstore\n      0x40\n      swap1\n      keccak256\n      sload\n      0xff\n      and\n      dup2\n      jump\t// out\n        /* \"contracts/Post.sol\":857:961  function isRegistered() public view returns(bool) {\r... */\n    tag_18:\n        /* \"contracts/Post.sol\":925:953  isUserRegistered[msg.sender] */\n      0xffffffffffffffffffffffffffffffffffffffff\n        /* \"contracts/Post.sol\":942:952  msg.sender */\n      caller\n        /* \"contracts/Post.sol\":925:953  isUserRegistered[msg.sender] */\n      and\n        /* \"contracts/Post.sol\":901:905  bool */\n      0x0\n        /* \"contracts/Post.sol\":925:953  isUserRegistered[msg.sender] */\n      swap1\n      dup2\n      mstore\n        /* \"contracts/Post.sol\":925:941  isUserRegistered */\n      0x1\n        /* \"contracts/Post.sol\":925:953  isUserRegistered[msg.sender] */\n      0x20\n      mstore\n      0x40\n      swap1\n      keccak256\n      sload\n      0xff\n      and\n        /* \"contracts/Post.sol\":857:961  function isRegistered() public view returns(bool) {\r... */\n    tag_57:\n      swap1\n      jump\t// out\n        /* \"contracts/Post.sol\":1253:1421  function deletePost(uint index, address creator) public {\r... */\n    tag_21:\n        /* \"contracts/Post.sol\":1342:1349  manager */\n      sload(0x0)\n        /* \"contracts/Post.sol\":1328:1338  msg.sender */\n      caller\n        /* \"contracts/Post.sol\":1342:1349  manager */\n      0xffffffffffffffffffffffffffffffffffffffff\n        /* \"contracts/Post.sol\":1328:1349  msg.sender == manager */\n      swap1\n      dup2\n      and\n        /* \"contracts/Post.sol\":1342:1349  manager */\n      swap2\n      and\n        /* \"contracts/Post.sol\":1328:1349  msg.sender == manager */\n      eq\n      dup1\n        /* \"contracts/Post.sol\":1328:1374  msg.sender == manager || msg.sender == creator */\n      tag_59\n      jumpi\n      pop\n        /* \"contracts/Post.sol\":1367:1374  creator */\n      dup1\n        /* \"contracts/Post.sol\":1353:1374  msg.sender == creator */\n      0xffffffffffffffffffffffffffffffffffffffff\n      and\n        /* \"contracts/Post.sol\":1353:1363  msg.sender */\n      caller\n        /* \"contracts/Post.sol\":1353:1374  msg.sender == creator */\n      0xffffffffffffffffffffffffffffffffffffffff\n      and\n      eq\n        /* \"contracts/Post.sol\":1328:1374  msg.sender == manager || msg.sender == creator */\n    tag_59:\n        /* \"contracts/Post.sol\":1320:1375  require(msg.sender == manager || msg.sender == creator) */\n      iszero\n      iszero\n      tag_60\n      jumpi\n      0x0\n      dup1\n      revert\n    tag_60:\n        /* \"contracts/Post.sol\":1393:1406  deployedPosts */\n      0x3\n        /* \"contracts/Post.sol\":1393:1413  deployedPosts[index] */\n      dup1\n      sload\n        /* \"contracts/Post.sol\":1407:1412  index */\n      dup4\n      swap1\n        /* \"contracts/Post.sol\":1393:1413  deployedPosts[index] */\n      dup2\n      lt\n      tag_61\n      jumpi\n      invalid\n    tag_61:\n      0x0\n      swap2\n      dup3\n      mstore\n      0x20\n      swap1\n      swap2\n      keccak256\n      add\n        /* \"contracts/Post.sol\":1386:1413  delete deployedPosts[index] */\n      dup1\n      sload\n      not(0xffffffffffffffffffffffffffffffffffffffff)\n      and\n      swap1\n      sstore\n      pop\n      pop\n        /* \"contracts/Post.sol\":1253:1421  function deletePost(uint index, address creator) public {\r... */\n      jump\t// out\n        /* \"contracts/Post.sol\":92:114  address public manager */\n    tag_24:\n      and(0xffffffffffffffffffffffffffffffffffffffff, sload(0x0))\n      dup2\n      jump\t// out\n        /* \"contracts/Post.sol\":632:845  function getUsername() public view returns(string memory) {\r... */\n    tag_27:\n        /* \"contracts/Post.sol\":675:681  string */\n      tag_63\n      jump\t// in(tag_64)\n    tag_63:\n        /* \"contracts/Post.sol\":726:736  msg.sender */\n      caller\n        /* \"contracts/Post.sol\":755:787  isUserRegistered[currentAddress] */\n      0xffffffffffffffffffffffffffffffffffffffff\n      dup2\n      and\n        /* \"contracts/Post.sol\":701:723  address currentAddress */\n      0x0\n        /* \"contracts/Post.sol\":755:787  isUserRegistered[currentAddress] */\n      swap1\n      dup2\n      mstore\n        /* \"contracts/Post.sol\":755:771  isUserRegistered */\n      0x1\n        /* \"contracts/Post.sol\":755:787  isUserRegistered[currentAddress] */\n      0x20\n      mstore\n      0x40\n      swap1\n      keccak256\n      sload\n      0xff\n      and\n        /* \"contracts/Post.sol\":747:788  require(isUserRegistered[currentAddress]) */\n      iszero\n      iszero\n      tag_66\n      jumpi\n      0x0\n      dup1\n      revert\n    tag_66:\n        /* \"contracts/Post.sol\":816:821  users */\n      0x2\n        /* \"contracts/Post.sol\":816:837  users[currentAddress] */\n      0x0\n        /* \"contracts/Post.sol\":822:836  currentAddress */\n      dup3\n        /* \"contracts/Post.sol\":816:837  users[currentAddress] */\n      0xffffffffffffffffffffffffffffffffffffffff\n      and\n      0xffffffffffffffffffffffffffffffffffffffff\n      and\n      dup2\n      mstore\n      0x20\n      add\n      swap1\n      dup2\n      mstore\n      0x20\n      add\n      0x0\n      keccak256\n        /* \"contracts/Post.sol\":809:837  return users[currentAddress] */\n      dup1\n      sload\n      0x1\n      dup2\n      0x1\n      and\n      iszero\n      0x100\n      mul\n      sub\n      and\n      0x2\n      swap1\n      div\n      dup1\n      0x1f\n      add\n      0x20\n      dup1\n      swap2\n      div\n      mul\n      0x20\n      add\n      mload(0x40)\n      swap1\n      dup2\n      add\n      0x40\n      mstore\n      dup1\n      swap3\n      swap2\n      swap1\n      dup2\n      dup2\n      mstore\n      0x20\n      add\n      dup3\n      dup1\n      sload\n      0x1\n      dup2\n      0x1\n      and\n      iszero\n      0x100\n      mul\n      sub\n      and\n      0x2\n      swap1\n      div\n      dup1\n      iszero\n      tag_67\n      jumpi\n      dup1\n      0x1f\n      lt\n      tag_68\n      jumpi\n      0x100\n      dup1\n      dup4\n      sload\n      div\n      mul\n      dup4\n      mstore\n      swap2\n      0x20\n      add\n      swap2\n      jump(tag_67)\n    tag_68:\n      dup3\n      add\n      swap2\n      swap1\n      0x0\n      mstore\n      keccak256(0x0, 0x20)\n      swap1\n    tag_69:\n      dup2\n      sload\n      dup2\n      mstore\n      swap1\n      0x1\n      add\n      swap1\n      0x20\n      add\n      dup1\n      dup4\n      gt\n      tag_69\n      jumpi\n      dup3\n      swap1\n      sub\n      0x1f\n      and\n      dup3\n      add\n      swap2\n    tag_67:\n      pop\n      pop\n      pop\n      pop\n      pop\n      swap2\n      pop\n        /* \"contracts/Post.sol\":632:845  function getUsername() public view returns(string memory) {\r... */\n    tag_65:\n      pop\n      swap1\n      jump\t// out\n        /* \"contracts/Post.sol\":425:620  function registerUser(string memory username) public {\r... */\n    tag_34:\n        /* \"contracts/Post.sol\":498:526  isUserRegistered[msg.sender] */\n      0xffffffffffffffffffffffffffffffffffffffff\n        /* \"contracts/Post.sol\":515:525  msg.sender */\n      caller\n        /* \"contracts/Post.sol\":498:526  isUserRegistered[msg.sender] */\n      and\n      0x0\n      swap1\n      dup2\n      mstore\n        /* \"contracts/Post.sol\":498:514  isUserRegistered */\n      0x1\n        /* \"contracts/Post.sol\":498:526  isUserRegistered[msg.sender] */\n      0x20\n      mstore\n      0x40\n      swap1\n      keccak256\n      sload\n      0xff\n      and\n        /* \"contracts/Post.sol\":497:526  !isUserRegistered[msg.sender] */\n      iszero\n        /* \"contracts/Post.sol\":489:527  require(!isUserRegistered[msg.sender]) */\n      tag_71\n      jumpi\n      0x0\n      dup1\n      revert\n    tag_71:\n        /* \"contracts/Post.sol\":538:555  users[msg.sender] */\n      0xffffffffffffffffffffffffffffffffffffffff\n        /* \"contracts/Post.sol\":544:554  msg.sender */\n      caller\n        /* \"contracts/Post.sol\":538:555  users[msg.sender] */\n      and\n      0x0\n      swap1\n      dup2\n      mstore\n        /* \"contracts/Post.sol\":538:543  users */\n      0x2\n        /* \"contracts/Post.sol\":538:555  users[msg.sender] */\n      0x20\n      mstore\n      0x40\n      swap1\n      keccak256\n        /* \"contracts/Post.sol\":558:566  username */\n      dup2\n      dup1\n        /* \"contracts/Post.sol\":538:566  users[msg.sender] = username */\n      mload\n      tag_72\n      swap3\n      swap2\n      0x20\n      add\n      swap1\n      jump\t// in(tag_73)\n    tag_72:\n      pop\n      pop\n        /* \"contracts/Post.sol\":577:605  isUserRegistered[msg.sender] */\n      0xffffffffffffffffffffffffffffffffffffffff\n        /* \"contracts/Post.sol\":594:604  msg.sender */\n      caller\n        /* \"contracts/Post.sol\":577:605  isUserRegistered[msg.sender] */\n      and\n      0x0\n      swap1\n      dup2\n      mstore\n        /* \"contracts/Post.sol\":608:612  true */\n      0x1\n        /* \"contracts/Post.sol\":577:605  isUserRegistered[msg.sender] */\n      0x20\n      dup2\n      swap1\n      mstore\n      0x40\n      swap1\n      swap2\n      keccak256\n        /* \"contracts/Post.sol\":577:612  isUserRegistered[msg.sender] = true */\n      dup1\n      sload\n      not(0xff)\n      and\n      swap1\n      swap2\n      or\n      swap1\n      sstore\n        /* \"contracts/Post.sol\":425:620  function registerUser(string memory username) public {\r... */\n      jump\t// out\n        /* \"contracts/Post.sol\":1429:1535  function getDeployedPostsLength() public view returns(uint) {\r... */\n    tag_37:\n        /* \"contracts/Post.sol\":1507:1520  deployedPosts */\n      0x3\n        /* \"contracts/Post.sol\":1507:1527  deployedPosts.length */\n      sload\n        /* \"contracts/Post.sol\":1429:1535  function getDeployedPostsLength() public view returns(uint) {\r... */\n      swap1\n      jump\t// out\n        /* \"contracts/Post.sol\":973:1241  function deployPost(string memory postTitle, string memory postBody) public {\r... */\n    tag_40:\n        /* \"contracts/Post.sol\":1068:1096  isUserRegistered[msg.sender] */\n      0xffffffffffffffffffffffffffffffffffffffff\n        /* \"contracts/Post.sol\":1085:1095  msg.sender */\n      caller\n        /* \"contracts/Post.sol\":1068:1096  isUserRegistered[msg.sender] */\n      and\n        /* \"contracts/Post.sol\":1108:1123  address newPost */\n      0x0\n        /* \"contracts/Post.sol\":1068:1096  isUserRegistered[msg.sender] */\n      swap1\n      dup2\n      mstore\n        /* \"contracts/Post.sol\":1068:1084  isUserRegistered */\n      0x1\n        /* \"contracts/Post.sol\":1068:1096  isUserRegistered[msg.sender] */\n      0x20\n      mstore\n      0x40\n      dup2\n      keccak256\n      sload\n      0xff\n      and\n        /* \"contracts/Post.sol\":1060:1097  require(isUserRegistered[msg.sender]) */\n      iszero\n      iszero\n      tag_76\n      jumpi\n      0x0\n      dup1\n      revert\n    tag_76:\n        /* \"contracts/Post.sol\":1135:1145  msg.sender */\n      caller\n        /* \"contracts/Post.sol\":1168:1185  users[msg.sender] */\n      0xffffffffffffffffffffffffffffffffffffffff\n      dup2\n      dup2\n      and\n      0x0\n      swap1\n      dup2\n      mstore\n        /* \"contracts/Post.sol\":1168:1173  users */\n      0x2\n        /* \"contracts/Post.sol\":1168:1185  users[msg.sender] */\n      0x20\n      mstore\n      0x40\n      dup2\n      keccak256\n        /* \"contracts/Post.sol\":1187:1194  manager */\n      swap1\n      sload\n        /* \"contracts/Post.sol\":1147:1156  postTitle */\n      dup7\n      swap3\n        /* \"contracts/Post.sol\":1158:1166  postBody */\n      dup7\n      swap3\n        /* \"contracts/Post.sol\":1168:1185  users[msg.sender] */\n      swap2\n        /* \"contracts/Post.sol\":1187:1194  manager */\n      and\n        /* \"contracts/Post.sol\":1126:1195  new Post(msg.sender, postTitle, postBody, users[msg.sender], manager) */\n      tag_77\n      jump\t// in(tag_78)\n    tag_77:\n      0xffffffffffffffffffffffffffffffffffffffff\n      dup1\n      dup8\n      and\n      dup3\n      mstore\n      dup3\n      and\n      0x80\n      dup3\n      add\n      mstore\n      0xa0\n      0x20\n      dup3\n      add\n      dup2\n      dup2\n      mstore\n      swap1\n      0x40\n      dup4\n      add\n      swap1\n      0x60\n      dup5\n      add\n      swap1\n      dup5\n      add\n      dup9\n      dup2\n      dup2\n      mload\n      dup2\n      mstore\n      0x20\n      add\n      swap2\n      pop\n      dup1\n      mload\n      swap1\n      0x20\n      add\n      swap1\n      dup1\n      dup4\n      dup4\n        /* \"--CODEGEN--\":23:24   */\n      0x0\n        /* \"--CODEGEN--\":8:108   */\n    tag_79:\n        /* \"--CODEGEN--\":33:36   */\n      dup4\n        /* \"--CODEGEN--\":30:31   */\n      dup2\n        /* \"--CODEGEN--\":27:29   */\n      lt\n        /* \"--CODEGEN--\":8:108   */\n      iszero\n      tag_80\n      jumpi\n        /* \"--CODEGEN--\":99:100   */\n      dup1\n        /* \"--CODEGEN--\":94:97   */\n      dup3\n        /* \"--CODEGEN--\":90:93   */\n      add\n        /* \"--CODEGEN--\":84:89   */\n      mload\n        /* \"--CODEGEN--\":71:74   */\n      dup4\n      dup3\n      add\n        /* \"--CODEGEN--\":64:70   */\n      mstore\n        /* \"--CODEGEN--\":52:54   */\n      0x20\n        /* \"--CODEGEN--\":45:48   */\n      add\n        /* \"--CODEGEN--\":8:108   */\n      jump(tag_79)\n    tag_80:\n        /* \"--CODEGEN--\":12:26   */\n      pop\n        /* \"--CODEGEN--\":3:112   */\n      pop\n      pop\n      pop\n      swap1\n      pop\n      swap1\n      dup2\n      add\n      swap1\n      0x1f\n      and\n      dup1\n      iszero\n      tag_82\n      jumpi\n      dup1\n      dup3\n      sub\n      dup1\n      mload\n      0x1\n      dup4\n      0x20\n      sub\n      0x100\n      exp\n      sub\n      not\n      and\n      dup2\n      mstore\n      0x20\n      add\n      swap2\n      pop\n    tag_82:\n      pop\n      dup5\n      dup2\n      sub\n      dup4\n      mstore\n      dup8\n      dup2\n      dup2\n      mload\n      dup2\n      mstore\n      0x20\n      add\n      swap2\n      pop\n      dup1\n      mload\n      swap1\n      0x20\n      add\n      swap1\n      dup1\n      dup4\n      dup4\n        /* \"--CODEGEN--\":23:24   */\n      0x0\n        /* \"--CODEGEN--\":8:108   */\n    tag_83:\n        /* \"--CODEGEN--\":33:36   */\n      dup4\n        /* \"--CODEGEN--\":30:31   */\n      dup2\n        /* \"--CODEGEN--\":27:29   */\n      lt\n        /* \"--CODEGEN--\":8:108   */\n      iszero\n      tag_84\n      jumpi\n        /* \"--CODEGEN--\":99:100   */\n      dup1\n        /* \"--CODEGEN--\":94:97   */\n      dup3\n        /* \"--CODEGEN--\":90:93   */\n      add\n        /* \"--CODEGEN--\":84:89   */\n      mload\n        /* \"--CODEGEN--\":71:74   */\n      dup4\n      dup3\n      add\n        /* \"--CODEGEN--\":64:70   */\n      mstore\n        /* \"--CODEGEN--\":52:54   */\n      0x20\n        /* \"--CODEGEN--\":45:48   */\n      add\n        /* \"--CODEGEN--\":8:108   */\n      jump(tag_83)\n    tag_84:\n        /* \"--CODEGEN--\":12:26   */\n      pop\n        /* \"--CODEGEN--\":3:112   */\n      pop\n      pop\n      pop\n      swap1\n      pop\n      swap1\n      dup2\n      add\n      swap1\n      0x1f\n      and\n      dup1\n      iszero\n      tag_86\n      jumpi\n      dup1\n      dup3\n      sub\n      dup1\n      mload\n      0x1\n      dup4\n      0x20\n      sub\n      0x100\n      exp\n      sub\n      not\n      and\n      dup2\n      mstore\n      0x20\n      add\n      swap2\n      pop\n    tag_86:\n      pop\n      dup5\n      dup2\n      sub\n      dup3\n      mstore\n      dup7\n      sload\n      0x2\n      not(0x0)\n      0x100\n      0x1\n      dup5\n      and\n      iszero\n      mul\n      add\n      swap1\n      swap2\n      and\n      div\n      dup1\n      dup3\n      mstore\n      0x20\n      swap1\n      swap2\n      add\n      swap1\n      dup8\n      swap1\n      dup1\n      iszero\n      tag_87\n      jumpi\n      dup1\n      0x1f\n      lt\n      tag_88\n      jumpi\n      0x100\n      dup1\n      dup4\n      sload\n      div\n      mul\n      dup4\n      mstore\n      swap2\n      0x20\n      add\n      swap2\n      jump(tag_87)\n    tag_88:\n      dup3\n      add\n      swap2\n      swap1\n      0x0\n      mstore\n      keccak256(0x0, 0x20)\n      swap1\n    tag_89:\n      dup2\n      sload\n      dup2\n      mstore\n      swap1\n      0x1\n      add\n      swap1\n      0x20\n      add\n      dup1\n      dup4\n      gt\n      tag_89\n      jumpi\n      dup3\n      swap1\n      sub\n      0x1f\n      and\n      dup3\n      add\n      swap2\n    tag_87:\n      pop\n      pop\n      swap9\n      pop\n      pop\n      pop\n      pop\n      pop\n      pop\n      pop\n      pop\n      pop\n      mload(0x40)\n      dup1\n      swap2\n      sub\n      swap1\n      0x0\n      create\n      dup1\n      iszero\n      iszero\n      tag_90\n      jumpi\n      0x0\n      dup1\n      revert\n    tag_90:\n        /* \"contracts/Post.sol\":1108:1195  address newPost = new Post(msg.sender, postTitle, postBody, users[msg.sender], manager) */\n      swap1\n      pop\n        /* \"contracts/Post.sol\":1206:1219  deployedPosts */\n      0x3\n        /* \"contracts/Post.sol\":1206:1233  deployedPosts.push(newPost) */\n      dup1\n      sload\n      dup1\n      0x1\n      add\n      dup3\n      dup2\n      tag_91\n      swap2\n      swap1\n      jump\t// in(tag_92)\n    tag_91:\n      pop\n      0x0\n      swap2\n      dup3\n      mstore\n      0x20\n      swap1\n      swap2\n      keccak256\n      add\n      dup1\n      sload\n      not(0xffffffffffffffffffffffffffffffffffffffff)\n      and\n      0xffffffffffffffffffffffffffffffffffffffff\n      swap3\n      swap1\n      swap3\n      and\n      swap2\n      swap1\n      swap2\n      or\n      swap1\n      sstore\n      pop\n      pop\n        /* \"contracts/Post.sol\":973:1241  function deployPost(string memory postTitle, string memory postBody) public {\r... */\n      jump\t// out\n        /* \"contracts/Post.sol\":222:252  address[] public deployedPosts */\n    tag_43:\n      0x3\n      dup1\n      sload\n      dup3\n      swap1\n      dup2\n      lt\n      tag_94\n      jumpi\n      invalid\n    tag_94:\n      0x0\n      swap2\n      dup3\n      mstore\n      0x20\n      swap1\n      swap2\n      keccak256\n      add\n      sload\n      0xffffffffffffffffffffffffffffffffffffffff\n      and\n      swap1\n      pop\n      dup2\n      jump\t// out\n        /* \"contracts/Post.sol\":176:215  mapping(address => string) public users */\n    tag_46:\n      mstore(0x20, 0x2)\n      dup1\n      0x0\n      mstore\n      keccak256(0x0, 0x40)\n      0x0\n      swap2\n      pop\n      swap1\n      pop\n      dup1\n      sload\n      0x1\n      dup2\n      0x1\n      and\n      iszero\n      0x100\n      mul\n      sub\n      and\n      0x2\n      swap1\n      div\n      dup1\n      0x1f\n      add\n      0x20\n      dup1\n      swap2\n      div\n      mul\n      0x20\n      add\n      mload(0x40)\n      swap1\n      dup2\n      add\n      0x40\n      mstore\n      dup1\n      swap3\n      swap2\n      swap1\n      dup2\n      dup2\n      mstore\n      0x20\n      add\n      dup3\n      dup1\n      sload\n      0x1\n      dup2\n      0x1\n      and\n      iszero\n      0x100\n      mul\n      sub\n      and\n      0x2\n      swap1\n      div\n      dup1\n      iszero\n      tag_96\n      jumpi\n      dup1\n      0x1f\n      lt\n      tag_97\n      jumpi\n      0x100\n      dup1\n      dup4\n      sload\n      div\n      mul\n      dup4\n      mstore\n      swap2\n      0x20\n      add\n      swap2\n      jump(tag_96)\n    tag_97:\n      dup3\n      add\n      swap2\n      swap1\n      0x0\n      mstore\n      keccak256(0x0, 0x20)\n      swap1\n    tag_98:\n      dup2\n      sload\n      dup2\n      mstore\n      swap1\n      0x1\n      add\n      swap1\n      0x20\n      add\n      dup1\n      dup4\n      gt\n      tag_98\n      jumpi\n      dup3\n      swap1\n      sub\n      0x1f\n      and\n      dup3\n      add\n      swap2\n    tag_96:\n      pop\n      pop\n      pop\n      pop\n      pop\n      dup2\n      jump\t// out\n        /* \"contracts/Post.sol\":1547:1640  function getDeployedPosts() public view returns (address[]) {\r... */\n    tag_53:\n        /* \"contracts/Post.sol\":1596:1605  address[] */\n      tag_99\n      jump\t// in(tag_64)\n    tag_99:\n        /* \"contracts/Post.sol\":1621:1634  deployedPosts */\n      0x3\n        /* \"contracts/Post.sol\":1614:1634  return deployedPosts */\n      dup1\n      sload\n      dup1\n      0x20\n      mul\n      0x20\n      add\n      mload(0x40)\n      swap1\n      dup2\n      add\n      0x40\n      mstore\n      dup1\n      swap3\n      swap2\n      swap1\n      dup2\n      dup2\n      mstore\n      0x20\n      add\n      dup3\n      dup1\n      sload\n      dup1\n      iszero\n      tag_102\n      jumpi\n      0x20\n      mul\n      dup3\n      add\n      swap2\n      swap1\n      0x0\n      mstore\n      keccak256(0x0, 0x20)\n      swap1\n    tag_103:\n      dup2\n      sload\n      0xffffffffffffffffffffffffffffffffffffffff\n      and\n      dup2\n      mstore\n      0x1\n      swap1\n      swap2\n      add\n      swap1\n      0x20\n      add\n      dup1\n      dup4\n      gt\n      tag_103\n      jumpi\n    tag_102:\n      pop\n      pop\n      pop\n      pop\n      pop\n      swap1\n      pop\n        /* \"contracts/Post.sol\":1547:1640  function getDeployedPosts() public view returns (address[]) {\r... */\n      swap1\n      jump\t// out\n        /* \"contracts/Post.sol\":64:1643  contract PostFactory {\r... */\n    tag_64:\n      0x20\n      mload(0x40)\n      swap1\n      dup2\n      add\n      0x40\n      mstore\n      0x0\n      dup2\n      mstore\n      swap1\n      jump\t// out\n    tag_73:\n      dup3\n      dup1\n      sload\n      0x1\n      dup2\n      0x1\n      and\n      iszero\n      0x100\n      mul\n      sub\n      and\n      0x2\n      swap1\n      div\n      swap1\n      0x0\n      mstore\n      keccak256(0x0, 0x20)\n      swap1\n      0x1f\n      add\n      0x20\n      swap1\n      div\n      dup2\n      add\n      swap3\n      dup3\n      0x1f\n      lt\n      tag_105\n      jumpi\n      dup1\n      mload\n      not(0xff)\n      and\n      dup4\n      dup1\n      add\n      or\n      dup6\n      sstore\n      jump(tag_107)\n    tag_105:\n      dup3\n      dup1\n      add\n      0x1\n      add\n      dup6\n      sstore\n      dup3\n      iszero\n      tag_107\n      jumpi\n      swap2\n      dup3\n      add\n    tag_106:\n      dup3\n      dup2\n      gt\n      iszero\n      tag_107\n      jumpi\n      dup3\n      mload\n      dup3\n      sstore\n      swap2\n      0x20\n      add\n      swap2\n      swap1\n      0x1\n      add\n      swap1\n      jump(tag_106)\n    tag_107:\n      pop\n      tag_65\n      swap3\n      swap2\n      pop\n      jump\t// in(tag_109)\n    tag_78:\n      mload(0x40)\n      dataSize(sub_0)\n      dup1\n      dataOffset(sub_0)\n      dup4\n      codecopy\n      add\n      swap1\n      jump\t// out\n    tag_92:\n      dup2\n      sload\n      dup2\n      dup4\n      sstore\n      dup2\n      dup2\n      iszero\n      gt\n      tag_111\n      jumpi\n      0x0\n      dup4\n      dup2\n      mstore\n      0x20\n      swap1\n      keccak256\n      tag_111\n      swap2\n      dup2\n      add\n      swap1\n      dup4\n      add\n      jump\t// in(tag_109)\n    tag_111:\n      pop\n      pop\n      pop\n      jump\t// out\n    tag_109:\n      tag_57\n      swap2\n      swap1\n    tag_113:\n      dup1\n      dup3\n      gt\n      iszero\n      tag_65\n      jumpi\n      0x0\n      dup2\n      sstore\n      0x1\n      add\n      jump(tag_113)\n    stop\n\n    sub_0: assembly {\n            /* \"contracts/Post.sol\":1647:4973  contract Post {\r... */\n          mstore(0x40, 0x60)\n            /* \"contracts/Post.sol\":2429:2732  function Post(address postCreator, string memory postTitle, string memory postBody, string memory user, address manager) public {\r... */\n          jumpi(tag_1, iszero(callvalue))\n          0x0\n          dup1\n          revert\n        tag_1:\n          mload(0x40)\n          sub(codesize, bytecodeSize)\n          dup1\n          bytecodeSize\n          dup4\n          codecopy\n          dup2\n          add\n          0x40\n          mstore\n          dup1\n          dup1\n          mload\n          swap2\n          swap1\n          0x20\n          add\n          dup1\n          mload\n          dup3\n          add\n          swap2\n          swap1\n          0x20\n          add\n          dup1\n          mload\n          dup3\n          add\n          swap2\n          swap1\n          0x20\n          add\n          dup1\n          mload\n          dup3\n          add\n          swap2\n          swap1\n          0x20\n          add\n          dup1\n          mload\n            /* \"contracts/Post.sol\":2568:2575  creator */\n          0x2\n            /* \"contracts/Post.sol\":2568:2589  creator = postCreator */\n          dup1\n          sload\n          not(0xffffffffffffffffffffffffffffffffffffffff)\n          and\n          0xffffffffffffffffffffffffffffffffffffffff\n          dup10\n          and\n          or\n          swap1\n          sstore\n            /* \"contracts/Post.sol\":2429:2732  function Post(address postCreator, string memory postTitle, string memory postBody, string memory user, address manager) public {\r... */\n          swap2\n          pop\n            /* \"contracts/Post.sol\":2600:2605  title */\n          0x4\n          swap1\n          pop\n            /* \"contracts/Post.sol\":2608:2617  postTitle */\n          dup5\n          dup1\n            /* \"contracts/Post.sol\":2600:2617  title = postTitle */\n          mload\n          tag_4\n          swap3\n          swap2\n          0x20\n          add\n          swap1\n          jump\t// in(tag_5)\n        tag_4:\n          pop\n            /* \"contracts/Post.sol\":2628:2632  body */\n          0x5\n            /* \"contracts/Post.sol\":2635:2643  postBody */\n          dup4\n          dup1\n            /* \"contracts/Post.sol\":2628:2643  body = postBody */\n          mload\n          tag_6\n          swap3\n          swap2\n          0x20\n          add\n          swap1\n          jump\t// in(tag_5)\n        tag_6:\n          pop\n            /* \"contracts/Post.sol\":2662:2663  0 */\n          0x0\n            /* \"contracts/Post.sol\":2654:2659  votes */\n          0x6\n            /* \"contracts/Post.sol\":2654:2663  votes = 0 */\n          sstore\n            /* \"contracts/Post.sol\":2674:2682  username */\n          0x3\n            /* \"contracts/Post.sol\":2685:2689  user */\n          dup3\n          dup1\n            /* \"contracts/Post.sol\":2674:2689  username = user */\n          mload\n          tag_7\n          swap3\n          swap2\n          0x20\n          add\n          swap1\n          jump\t// in(tag_5)\n        tag_7:\n          pop\n            /* \"contracts/Post.sol\":2700:2714  factoryManager */\n          0x1\n            /* \"contracts/Post.sol\":2700:2724  factoryManager = manager */\n          dup1\n          sload\n          not(0xffffffffffffffffffffffffffffffffffffffff)\n          and\n          0xffffffffffffffffffffffffffffffffffffffff\n          swap3\n          swap1\n          swap3\n          and\n          swap2\n          swap1\n          swap2\n          or\n          swap1\n          sstore\n          pop\n            /* \"contracts/Post.sol\":1647:4973  contract Post {\r... */\n          tag_8\n          swap3\n          pop\n          pop\n          pop\n          jump\n        tag_5:\n          dup3\n          dup1\n          sload\n          0x1\n          dup2\n          0x1\n          and\n          iszero\n          0x100\n          mul\n          sub\n          and\n          0x2\n          swap1\n          div\n          swap1\n          0x0\n          mstore\n          keccak256(0x0, 0x20)\n          swap1\n          0x1f\n          add\n          0x20\n          swap1\n          div\n          dup2\n          add\n          swap3\n          dup3\n          0x1f\n          lt\n          tag_10\n          jumpi\n          dup1\n          mload\n          not(0xff)\n          and\n          dup4\n          dup1\n          add\n          or\n          dup6\n          sstore\n          jump(tag_12)\n        tag_10:\n          dup3\n          dup1\n          add\n          0x1\n          add\n          dup6\n          sstore\n          dup3\n          iszero\n          tag_12\n          jumpi\n          swap2\n          dup3\n          add\n        tag_11:\n          dup3\n          dup2\n          gt\n          iszero\n          tag_12\n          jumpi\n          dup3\n          mload\n          dup3\n          sstore\n          swap2\n          0x20\n          add\n          swap2\n          swap1\n          0x1\n          add\n          swap1\n          jump(tag_11)\n        tag_12:\n          pop\n          tag_13\n          swap3\n          swap2\n          pop\n          jump\t// in(tag_14)\n        tag_13:\n          pop\n          swap1\n          jump\t// out\n        tag_14:\n          tag_15\n          swap2\n          swap1\n        tag_16:\n          dup1\n          dup3\n          gt\n          iszero\n          tag_13\n          jumpi\n          0x0\n          dup2\n          sstore\n          0x1\n          add\n          jump(tag_16)\n        tag_15:\n          swap1\n          jump\t// out\n        tag_8:\n          dataSize(sub_0)\n          dup1\n          dataOffset(sub_0)\n          0x0\n          codecopy\n          0x0\n          return\n        stop\n\n        sub_0: assembly {\n                /* \"contracts/Post.sol\":1647:4973  contract Post {\r... */\n              mstore(0x40, 0x60)\n              jumpi(tag_1, iszero(calldatasize))\n              and(div(calldataload(0x0), 0x100000000000000000000000000000000000000000000000000000000), 0xffffffff)\n              0x114b9d1\n              dup2\n              eq\n              tag_2\n              jumpi\n              dup1\n              0x2d05d3f\n              eq\n              tag_3\n              jumpi\n              dup1\n              0x32b5a73\n              eq\n              tag_4\n              jumpi\n              dup1\n              0x6782c87\n              eq\n              tag_5\n              jumpi\n              dup1\n              0xbfb7de9\n              eq\n              tag_6\n              jumpi\n              dup1\n              0x364497e4\n              eq\n              tag_7\n              jumpi\n              dup1\n              0x443fb57e\n              eq\n              tag_8\n              jumpi\n              dup1\n              0x4a79d50c\n              eq\n              tag_9\n              jumpi\n              dup1\n              0x61fac54d\n              eq\n              tag_10\n              jumpi\n              dup1\n              0x69a060cf\n              eq\n              tag_11\n              jumpi\n              dup1\n              0x8b47462c\n              eq\n              tag_12\n              jumpi\n              dup1\n              0x8ebb4c15\n              eq\n              tag_13\n              jumpi\n              dup1\n              0xa1edee49\n              eq\n              tag_14\n              jumpi\n              dup1\n              0xa3ec138d\n              eq\n              tag_15\n              jumpi\n              dup1\n              0xc1c1066b\n              eq\n              tag_16\n              jumpi\n              dup1\n              0xc8de7279\n              eq\n              tag_17\n              jumpi\n              dup1\n              0xe168c3ec\n              eq\n              tag_18\n              jumpi\n              dup1\n              0xf5b5709b\n              eq\n              tag_19\n              jumpi\n            tag_1:\n              0x0\n              dup1\n              revert\n                /* \"contracts/Post.sol\":3647:4082  function voteComment(uint commentIndex) public {\r... */\n            tag_2:\n              jumpi(tag_20, iszero(callvalue))\n              0x0\n              dup1\n              revert\n            tag_20:\n              tag_21\n              calldataload(0x4)\n              jump(tag_22)\n            tag_21:\n              stop\n                /* \"contracts/Post.sol\":1908:1930  address public creator */\n            tag_3:\n              jumpi(tag_23, iszero(callvalue))\n              0x0\n              dup1\n              revert\n            tag_23:\n              tag_24\n              jump(tag_25)\n            tag_24:\n              mload(0x40)\n              sub(exp(0x2, 0xa0), 0x1)\n              swap2\n              swap1\n              swap2\n              and\n              dup2\n              mstore\n              0x20\n              add\n              mload(0x40)\n              dup1\n              swap2\n              sub\n              swap1\n              return\n                /* \"contracts/Post.sol\":1872:1901  address public factoryManager */\n            tag_4:\n              jumpi(tag_26, iszero(callvalue))\n              0x0\n              dup1\n              revert\n            tag_26:\n              tag_24\n              jump(tag_28)\n                /* \"contracts/Post.sol\":3352:3450  function vottedPost(address user) public view returns(bool) {\r... */\n            tag_5:\n              jumpi(tag_29, iszero(callvalue))\n              0x0\n              dup1\n              revert\n            tag_29:\n              tag_30\n              and(sub(exp(0x2, 0xa0), 0x1), calldataload(0x4))\n              jump(tag_31)\n            tag_30:\n              mload(0x40)\n              swap1\n              iszero\n              iszero\n              dup2\n              mstore\n              0x20\n              add\n              mload(0x40)\n              dup1\n              swap2\n              sub\n              swap1\n              return\n                /* \"contracts/Post.sol\":3060:3340  function votePost() public {\r... */\n            tag_6:\n              jumpi(tag_32, iszero(callvalue))\n              0x0\n              dup1\n              revert\n            tag_32:\n              tag_21\n              jump(tag_34)\n                /* \"contracts/Post.sol\":1992:2010  string public body */\n            tag_7:\n              jumpi(tag_35, iszero(callvalue))\n              0x0\n              dup1\n              revert\n            tag_35:\n              tag_36\n              jump(tag_37)\n            tag_36:\n              mload(0x40)\n              0x20\n              dup1\n              dup3\n              mstore\n              dup2\n              swap1\n              dup2\n              add\n              dup4\n              dup2\n              dup2\n              mload\n              dup2\n              mstore\n              0x20\n              add\n              swap2\n              pop\n              dup1\n              mload\n              swap1\n              0x20\n              add\n              swap1\n              dup1\n              dup4\n              dup4\n                /* \"--CODEGEN--\":23:24   */\n              0x0\n                /* \"--CODEGEN--\":8:108   */\n            tag_38:\n                /* \"--CODEGEN--\":33:36   */\n              dup4\n                /* \"--CODEGEN--\":30:31   */\n              dup2\n                /* \"--CODEGEN--\":27:29   */\n              lt\n                /* \"--CODEGEN--\":8:108   */\n              iszero\n              tag_39\n              jumpi\n                /* \"--CODEGEN--\":99:100   */\n              dup1\n                /* \"--CODEGEN--\":94:97   */\n              dup3\n                /* \"--CODEGEN--\":90:93   */\n              add\n                /* \"--CODEGEN--\":84:89   */\n              mload\n                /* \"--CODEGEN--\":71:74   */\n              dup4\n              dup3\n              add\n                /* \"--CODEGEN--\":64:70   */\n              mstore\n                /* \"--CODEGEN--\":52:54   */\n              0x20\n                /* \"--CODEGEN--\":45:48   */\n              add\n                /* \"--CODEGEN--\":8:108   */\n              jump(tag_38)\n            tag_39:\n                /* \"--CODEGEN--\":12:26   */\n              pop\n                /* \"--CODEGEN--\":3:112   */\n              pop\n              pop\n              pop\n              swap1\n              pop\n              swap1\n              dup2\n              add\n              swap1\n              0x1f\n              and\n              dup1\n              iszero\n              tag_41\n              jumpi\n              dup1\n              dup3\n              sub\n              dup1\n              mload\n              0x1\n              dup4\n              0x20\n              sub\n              0x100\n              exp\n              sub\n              not\n              and\n              dup2\n              mstore\n              0x20\n              add\n              swap2\n              pop\n            tag_41:\n              pop\n              swap3\n              pop\n              pop\n              pop\n              mload(0x40)\n              dup1\n              swap2\n              sub\n              swap1\n              return\n                /* \"contracts/Post.sol\":4281:4483  function getPostSummary() public view returns(string memory, string memory, string memory, uint, uint, bool) {\r... */\n            tag_8:\n              jumpi(tag_42, iszero(callvalue))\n              0x0\n              dup1\n              revert\n            tag_42:\n              tag_43\n              jump(tag_44)\n            tag_43:\n              mload(0x40)\n              dup1\n              dup1\n              0x20\n              add\n              dup1\n              0x20\n              add\n              dup1\n              0x20\n              add\n              dup8\n              dup2\n              mstore\n              0x20\n              add\n              dup7\n              dup2\n              mstore\n              0x20\n              add\n              dup6\n              iszero\n              iszero\n              iszero\n              iszero\n              dup2\n              mstore\n              0x20\n              add\n              dup5\n              dup2\n              sub\n              dup5\n              mstore\n              dup11\n              dup2\n              dup2\n              mload\n              dup2\n              mstore\n              0x20\n              add\n              swap2\n              pop\n              dup1\n              mload\n              swap1\n              0x20\n              add\n              swap1\n              dup1\n              dup4\n              dup4\n                /* \"--CODEGEN--\":23:24   */\n              0x0\n                /* \"--CODEGEN--\":8:108   */\n            tag_45:\n                /* \"--CODEGEN--\":33:36   */\n              dup4\n                /* \"--CODEGEN--\":30:31   */\n              dup2\n                /* \"--CODEGEN--\":27:29   */\n              lt\n                /* \"--CODEGEN--\":8:108   */\n              iszero\n              tag_46\n              jumpi\n                /* \"--CODEGEN--\":99:100   */\n              dup1\n                /* \"--CODEGEN--\":94:97   */\n              dup3\n                /* \"--CODEGEN--\":90:93   */\n              add\n                /* \"--CODEGEN--\":84:89   */\n              mload\n                /* \"--CODEGEN--\":71:74   */\n              dup4\n              dup3\n              add\n                /* \"--CODEGEN--\":64:70   */\n              mstore\n                /* \"--CODEGEN--\":52:54   */\n              0x20\n                /* \"--CODEGEN--\":45:48   */\n              add\n                /* \"--CODEGEN--\":8:108   */\n              jump(tag_45)\n            tag_46:\n                /* \"--CODEGEN--\":12:26   */\n              pop\n                /* \"--CODEGEN--\":3:112   */\n              pop\n              pop\n              pop\n              swap1\n              pop\n              swap1\n              dup2\n              add\n              swap1\n              0x1f\n              and\n              dup1\n              iszero\n              tag_48\n              jumpi\n              dup1\n              dup3\n              sub\n              dup1\n              mload\n              0x1\n              dup4\n              0x20\n              sub\n              0x100\n              exp\n              sub\n              not\n              and\n              dup2\n              mstore\n              0x20\n              add\n              swap2\n              pop\n            tag_48:\n              pop\n              dup5\n              dup2\n              sub\n              dup4\n              mstore\n              dup10\n              dup2\n              dup2\n              mload\n              dup2\n              mstore\n              0x20\n              add\n              swap2\n              pop\n              dup1\n              mload\n              swap1\n              0x20\n              add\n              swap1\n              dup1\n              dup4\n              dup4\n                /* \"--CODEGEN--\":23:24   */\n              0x0\n                /* \"--CODEGEN--\":8:108   */\n            tag_49:\n                /* \"--CODEGEN--\":33:36   */\n              dup4\n                /* \"--CODEGEN--\":30:31   */\n              dup2\n                /* \"--CODEGEN--\":27:29   */\n              lt\n                /* \"--CODEGEN--\":8:108   */\n              iszero\n              tag_50\n              jumpi\n                /* \"--CODEGEN--\":99:100   */\n              dup1\n                /* \"--CODEGEN--\":94:97   */\n              dup3\n                /* \"--CODEGEN--\":90:93   */\n              add\n                /* \"--CODEGEN--\":84:89   */\n              mload\n                /* \"--CODEGEN--\":71:74   */\n              dup4\n              dup3\n              add\n                /* \"--CODEGEN--\":64:70   */\n              mstore\n                /* \"--CODEGEN--\":52:54   */\n              0x20\n                /* \"--CODEGEN--\":45:48   */\n              add\n                /* \"--CODEGEN--\":8:108   */\n              jump(tag_49)\n            tag_50:\n                /* \"--CODEGEN--\":12:26   */\n              pop\n                /* \"--CODEGEN--\":3:112   */\n              pop\n              pop\n              pop\n              swap1\n              pop\n              swap1\n              dup2\n              add\n              swap1\n              0x1f\n              and\n              dup1\n              iszero\n              tag_52\n              jumpi\n              dup1\n              dup3\n              sub\n              dup1\n              mload\n              0x1\n              dup4\n              0x20\n              sub\n              0x100\n              exp\n              sub\n              not\n              and\n              dup2\n              mstore\n              0x20\n              add\n              swap2\n              pop\n            tag_52:\n              pop\n              dup5\n              dup2\n              sub\n              dup3\n              mstore\n              dup9\n              dup2\n              dup2\n              mload\n              dup2\n              mstore\n              0x20\n              add\n              swap2\n              pop\n              dup1\n              mload\n              swap1\n              0x20\n              add\n              swap1\n              dup1\n              dup4\n              dup4\n                /* \"--CODEGEN--\":23:24   */\n              0x0\n                /* \"--CODEGEN--\":8:108   */\n            tag_53:\n                /* \"--CODEGEN--\":33:36   */\n              dup4\n                /* \"--CODEGEN--\":30:31   */\n              dup2\n                /* \"--CODEGEN--\":27:29   */\n              lt\n                /* \"--CODEGEN--\":8:108   */\n              iszero\n              tag_54\n              jumpi\n                /* \"--CODEGEN--\":99:100   */\n              dup1\n                /* \"--CODEGEN--\":94:97   */\n              dup3\n                /* \"--CODEGEN--\":90:93   */\n              add\n                /* \"--CODEGEN--\":84:89   */\n              mload\n                /* \"--CODEGEN--\":71:74   */\n              dup4\n              dup3\n              add\n                /* \"--CODEGEN--\":64:70   */\n              mstore\n                /* \"--CODEGEN--\":52:54   */\n              0x20\n                /* \"--CODEGEN--\":45:48   */\n              add\n                /* \"--CODEGEN--\":8:108   */\n              jump(tag_53)\n            tag_54:\n                /* \"--CODEGEN--\":12:26   */\n              pop\n                /* \"--CODEGEN--\":3:112   */\n              pop\n              pop\n              pop\n              swap1\n              pop\n              swap1\n              dup2\n              add\n              swap1\n              0x1f\n              and\n              dup1\n              iszero\n              tag_56\n              jumpi\n              dup1\n              dup3\n              sub\n              dup1\n              mload\n              0x1\n              dup4\n              0x20\n              sub\n              0x100\n              exp\n              sub\n              not\n              and\n              dup2\n              mstore\n              0x20\n              add\n              swap2\n              pop\n            tag_56:\n              pop\n              swap10\n              pop\n              pop\n              pop\n              pop\n              pop\n              pop\n              pop\n              pop\n              pop\n              pop\n              mload(0x40)\n              dup1\n              swap2\n              sub\n              swap1\n              return\n                /* \"contracts/Post.sol\":1966:1985  string public title */\n            tag_9:\n              jumpi(tag_57, iszero(callvalue))\n              0x0\n              dup1\n              revert\n            tag_57:\n              tag_36\n              jump(tag_59)\n                /* \"contracts/Post.sol\":1937:1959  string public username */\n            tag_10:\n              jumpi(tag_64, iszero(callvalue))\n              0x0\n              dup1\n              revert\n            tag_64:\n              tag_36\n              jump(tag_66)\n                /* \"contracts/Post.sol\":3462:3635  function vottedComment(uint index, address user) public view returns(bool) {\r... */\n            tag_11:\n              jumpi(tag_71, iszero(callvalue))\n              0x0\n              dup1\n              revert\n            tag_71:\n              tag_30\n              calldataload(0x4)\n              and(sub(exp(0x2, 0xa0), 0x1), calldataload(0x24))\n              jump(tag_73)\n                /* \"contracts/Post.sol\":4094:4269  function deleteComment(uint index, address _creator) public {\r... */\n            tag_12:\n              jumpi(tag_74, iszero(callvalue))\n              0x0\n              dup1\n              revert\n            tag_74:\n              tag_21\n              calldataload(0x4)\n              and(sub(exp(0x2, 0xa0), 0x1), calldataload(0x24))\n              jump(tag_76)\n                /* \"contracts/Post.sol\":1840:1865  Comment[] public comments */\n            tag_13:\n              jumpi(tag_77, iszero(callvalue))\n              0x0\n              dup1\n              revert\n            tag_77:\n              tag_78\n              calldataload(0x4)\n              jump(tag_79)\n            tag_78:\n              mload(0x40)\n              sub(exp(0x2, 0xa0), 0x1)\n              dup6\n              and\n              dup2\n              mstore\n              0x60\n              dup2\n              add\n              dup3\n              swap1\n              mstore\n              0x80\n              0x20\n              dup3\n              add\n              dup2\n              dup2\n              mstore\n              dup6\n              sload\n              0x2\n              0x1\n              dup3\n              and\n              iszero\n              0x100\n              mul\n              not(0x0)\n              add\n              swap1\n              swap2\n              and\n              div\n              swap2\n              dup4\n              add\n              dup3\n              swap1\n              mstore\n              swap1\n              0x40\n              dup4\n              add\n              swap1\n              0xa0\n              dup5\n              add\n              swap1\n              dup8\n              swap1\n              dup1\n              iszero\n              tag_80\n              jumpi\n              dup1\n              0x1f\n              lt\n              tag_81\n              jumpi\n              0x100\n              dup1\n              dup4\n              sload\n              div\n              mul\n              dup4\n              mstore\n              swap2\n              0x20\n              add\n              swap2\n              jump(tag_80)\n            tag_81:\n              dup3\n              add\n              swap2\n              swap1\n              0x0\n              mstore\n              keccak256(0x0, 0x20)\n              swap1\n            tag_82:\n              dup2\n              sload\n              dup2\n              mstore\n              swap1\n              0x1\n              add\n              swap1\n              0x20\n              add\n              dup1\n              dup4\n              gt\n              tag_82\n              jumpi\n              dup3\n              swap1\n              sub\n              0x1f\n              and\n              dup3\n              add\n              swap2\n            tag_80:\n              pop\n              pop\n              dup4\n              dup2\n              sub\n              dup3\n              mstore\n              dup6\n              sload\n              0x2\n              0x1\n              dup3\n              and\n              iszero\n              0x100\n              mul\n              not(0x0)\n              add\n              swap1\n              swap2\n              and\n              div\n              dup1\n              dup3\n              mstore\n              0x20\n              swap1\n              swap2\n              add\n              swap1\n              dup7\n              swap1\n              dup1\n              iszero\n              tag_83\n              jumpi\n              dup1\n              0x1f\n              lt\n              tag_84\n              jumpi\n              0x100\n              dup1\n              dup4\n              sload\n              div\n              mul\n              dup4\n              mstore\n              swap2\n              0x20\n              add\n              swap2\n              jump(tag_83)\n            tag_84:\n              dup3\n              add\n              swap2\n              swap1\n              0x0\n              mstore\n              keccak256(0x0, 0x20)\n              swap1\n            tag_85:\n              dup2\n              sload\n              dup2\n              mstore\n              swap1\n              0x1\n              add\n              swap1\n              0x20\n              add\n              dup1\n              dup4\n              gt\n              tag_85\n              jumpi\n              dup3\n              swap1\n              sub\n              0x1f\n              and\n              dup3\n              add\n              swap2\n            tag_83:\n              pop\n              pop\n              swap7\n              pop\n              pop\n              pop\n              pop\n              pop\n              pop\n              pop\n              mload(0x40)\n              dup1\n              swap2\n              sub\n              swap1\n              return\n                /* \"contracts/Post.sol\":2740:3048  function createComment(string memory commentText, string memory user) public {\r... */\n            tag_14:\n              jumpi(tag_86, iszero(callvalue))\n              0x0\n              dup1\n              revert\n            tag_86:\n              tag_21\n              0x4\n              0x24\n              dup2\n              calldataload\n              dup2\n              dup2\n              add\n              swap1\n              dup4\n              add\n              calldataload\n              dup1\n              0x20\n              0x1f\n              dup3\n              add\n              dup2\n              swap1\n              div\n              dup2\n              mul\n              add\n              mload(0x40)\n              swap1\n              dup2\n              add\n              0x40\n              mstore\n              dup2\n              dup2\n              mstore\n              swap3\n              swap2\n              swap1\n              0x20\n              dup5\n              add\n              dup4\n              dup4\n              dup1\n              dup3\n              dup5\n              calldatacopy\n              dup3\n              add\n              swap2\n              pop\n              pop\n              pop\n              pop\n              pop\n              pop\n              swap2\n              swap1\n              dup1\n              calldataload\n              swap1\n              0x20\n              add\n              swap1\n              dup3\n              add\n              dup1\n              calldataload\n              swap1\n              0x20\n              add\n              swap1\n              dup1\n              dup1\n              0x1f\n              add\n              0x20\n              dup1\n              swap2\n              div\n              mul\n              0x20\n              add\n              mload(0x40)\n              swap1\n              dup2\n              add\n              0x40\n              mstore\n              dup2\n              dup2\n              mstore\n              swap3\n              swap2\n              swap1\n              0x20\n              dup5\n              add\n              dup4\n              dup4\n              dup1\n              dup3\n              dup5\n              calldatacopy\n              pop\n              swap5\n              swap7\n              pop\n              tag_88\n              swap6\n              pop\n              pop\n              pop\n              pop\n              pop\n              pop\n              jump\n                /* \"contracts/Post.sol\":2041:2079  mapping(address => bool) public voters */\n            tag_15:\n              jumpi(tag_89, iszero(callvalue))\n              0x0\n              dup1\n              revert\n            tag_89:\n              tag_30\n              and(sub(exp(0x2, 0xa0), 0x1), calldataload(0x4))\n              jump(tag_91)\n                /* \"contracts/Post.sol\":4775:4870  function getCommentsCount() public view returns(uint) {\r... */\n            tag_16:\n              jumpi(tag_92, iszero(callvalue))\n              0x0\n              dup1\n              revert\n            tag_92:\n              tag_93\n              jump(tag_94)\n            tag_93:\n              mload(0x40)\n              swap1\n              dup2\n              mstore\n              0x20\n              add\n              mload(0x40)\n              dup1\n              swap2\n              sub\n              swap1\n              return\n                /* \"contracts/Post.sol\":4495:4763  function getCommentSummary(uint commentIndex) public view returns(string memory, string memory, uint, bool) {\r... */\n            tag_17:\n              jumpi(tag_95, iszero(callvalue))\n              0x0\n              dup1\n              revert\n            tag_95:\n              tag_96\n              calldataload(0x4)\n              jump(tag_97)\n            tag_96:\n              mload(0x40)\n              0x40\n              dup2\n              add\n              dup4\n              swap1\n              mstore\n              dup2\n              iszero\n              iszero\n              0x60\n              dup3\n              add\n              mstore\n              0x80\n              dup1\n              dup3\n              mstore\n              dup2\n              swap1\n              0x20\n              dup3\n              add\n              swap1\n              dup3\n              add\n              dup8\n              dup2\n              dup2\n              mload\n              dup2\n              mstore\n              0x20\n              add\n              swap2\n              pop\n              dup1\n              mload\n              swap1\n              0x20\n              add\n              swap1\n              dup1\n              dup4\n              dup4\n                /* \"--CODEGEN--\":23:24   */\n              0x0\n                /* \"--CODEGEN--\":8:108   */\n            tag_98:\n                /* \"--CODEGEN--\":33:36   */\n              dup4\n                /* \"--CODEGEN--\":30:31   */\n              dup2\n                /* \"--CODEGEN--\":27:29   */\n              lt\n                /* \"--CODEGEN--\":8:108   */\n              iszero\n              tag_99\n              jumpi\n                /* \"--CODEGEN--\":99:100   */\n              dup1\n                /* \"--CODEGEN--\":94:97   */\n              dup3\n                /* \"--CODEGEN--\":90:93   */\n              add\n                /* \"--CODEGEN--\":84:89   */\n              mload\n                /* \"--CODEGEN--\":71:74   */\n              dup4\n              dup3\n              add\n                /* \"--CODEGEN--\":64:70   */\n              mstore\n                /* \"--CODEGEN--\":52:54   */\n              0x20\n                /* \"--CODEGEN--\":45:48   */\n              add\n                /* \"--CODEGEN--\":8:108   */\n              jump(tag_98)\n            tag_99:\n                /* \"--CODEGEN--\":12:26   */\n              pop\n                /* \"--CODEGEN--\":3:112   */\n              pop\n              pop\n              pop\n              swap1\n              pop\n              swap1\n              dup2\n              add\n              swap1\n              0x1f\n              and\n              dup1\n              iszero\n              tag_101\n              jumpi\n              dup1\n              dup3\n              sub\n              dup1\n              mload\n              0x1\n              dup4\n              0x20\n              sub\n              0x100\n              exp\n              sub\n              not\n              and\n              dup2\n              mstore\n              0x20\n              add\n              swap2\n              pop\n            tag_101:\n              pop\n              dup4\n              dup2\n              sub\n              dup3\n              mstore\n              dup7\n              dup2\n              dup2\n              mload\n              dup2\n              mstore\n              0x20\n              add\n              swap2\n              pop\n              dup1\n              mload\n              swap1\n              0x20\n              add\n              swap1\n              dup1\n              dup4\n              dup4\n                /* \"--CODEGEN--\":23:24   */\n              0x0\n                /* \"--CODEGEN--\":8:108   */\n            tag_102:\n                /* \"--CODEGEN--\":33:36   */\n              dup4\n                /* \"--CODEGEN--\":30:31   */\n              dup2\n                /* \"--CODEGEN--\":27:29   */\n              lt\n                /* \"--CODEGEN--\":8:108   */\n              iszero\n              tag_103\n              jumpi\n                /* \"--CODEGEN--\":99:100   */\n              dup1\n                /* \"--CODEGEN--\":94:97   */\n              dup3\n                /* \"--CODEGEN--\":90:93   */\n              add\n                /* \"--CODEGEN--\":84:89   */\n              mload\n                /* \"--CODEGEN--\":71:74   */\n              dup4\n              dup3\n              add\n                /* \"--CODEGEN--\":64:70   */\n              mstore\n                /* \"--CODEGEN--\":52:54   */\n              0x20\n                /* \"--CODEGEN--\":45:48   */\n              add\n                /* \"--CODEGEN--\":8:108   */\n              jump(tag_102)\n            tag_103:\n                /* \"--CODEGEN--\":12:26   */\n              pop\n                /* \"--CODEGEN--\":3:112   */\n              pop\n              pop\n              pop\n              swap1\n              pop\n              swap1\n              dup2\n              add\n              swap1\n              0x1f\n              and\n              dup1\n              iszero\n              tag_105\n              jumpi\n              dup1\n              dup3\n              sub\n              dup1\n              mload\n              0x1\n              dup4\n              0x20\n              sub\n              0x100\n              exp\n              sub\n              not\n              and\n              dup2\n              mstore\n              0x20\n              add\n              swap2\n              pop\n            tag_105:\n              pop\n              swap7\n              pop\n              pop\n              pop\n              pop\n              pop\n              pop\n              pop\n              mload(0x40)\n              dup1\n              swap2\n              sub\n              swap1\n              return\n                /* \"contracts/Post.sol\":2017:2034  uint public votes */\n            tag_18:\n              jumpi(tag_106, iszero(callvalue))\n              0x0\n              dup1\n              revert\n            tag_106:\n              tag_93\n              jump(tag_108)\n                /* \"contracts/Post.sol\":4882:4970  function getPostCreator() public view returns(address) {\r... */\n            tag_19:\n              jumpi(tag_109, iszero(callvalue))\n              0x0\n              dup1\n              revert\n            tag_109:\n              tag_24\n              jump(tag_111)\n                /* \"contracts/Post.sol\":3647:4082  function voteComment(uint commentIndex) public {\r... */\n            tag_22:\n                /* \"contracts/Post.sol\":3705:3728  Comment storage comment */\n              0x0\n                /* \"contracts/Post.sol\":3731:3739  comments */\n              dup1\n                /* \"contracts/Post.sol\":3740:3752  commentIndex */\n              dup3\n                /* \"contracts/Post.sol\":3731:3753  comments[commentIndex] */\n              dup2\n              sload\n              dup2\n              lt\n              iszero\n              iszero\n              tag_113\n              jumpi\n              invalid\n            tag_113:\n              0x0\n              swap2\n              dup3\n              mstore\n              0x20\n              dup1\n              dup4\n              keccak256\n              sub(exp(0x2, 0xa0), 0x1)\n                /* \"contracts/Post.sol\":3793:3803  msg.sender */\n              caller\n                /* \"contracts/Post.sol\":3778:3804  comment.voters[msg.sender] */\n              and\n              dup5\n              mstore\n                /* \"contracts/Post.sol\":3778:3792  comment.voters */\n              0x4\n                /* \"contracts/Post.sol\":3731:3753  comments[commentIndex] */\n              0x5\n              swap4\n              swap1\n              swap4\n              mul\n              add\n                /* \"contracts/Post.sol\":3778:3792  comment.voters */\n              swap2\n              dup3\n              add\n                /* \"contracts/Post.sol\":3778:3804  comment.voters[msg.sender] */\n              swap1\n              mstore\n              0x40\n              swap1\n              swap2\n              keccak256\n              sload\n                /* \"contracts/Post.sol\":3731:3753  comments[commentIndex] */\n              swap1\n              swap2\n              pop\n                /* \"contracts/Post.sol\":3778:3804  comment.voters[msg.sender] */\n              0xff\n              and\n                /* \"contracts/Post.sol\":3777:3804  !comment.voters[msg.sender] */\n              iszero\n                /* \"contracts/Post.sol\":3774:4065  if(!comment.voters[msg.sender]) {\r... */\n              iszero\n              tag_115\n              jumpi\n                /* \"contracts/Post.sol\":3821:3834  comment.votes */\n              0x3\n              dup2\n              add\n                /* \"contracts/Post.sol\":3821:3836  comment.votes++ */\n              dup1\n              sload\n              0x1\n              swap1\n              dup2\n              add\n              swap1\n              swap2\n              sstore\n                /* \"contracts/Post.sol\":3866:3876  msg.sender */\n              caller\n              sub(exp(0x2, 0xa0), 0x1)\n                /* \"contracts/Post.sol\":3851:3877  comment.voters[msg.sender] */\n              and\n              0x0\n              swap1\n              dup2\n              mstore\n                /* \"contracts/Post.sol\":3851:3865  comment.voters */\n              0x4\n              dup4\n              add\n                /* \"contracts/Post.sol\":3851:3877  comment.voters[msg.sender] */\n              0x20\n              mstore\n              0x40\n              swap1\n              keccak256\n                /* \"contracts/Post.sol\":3851:3884  comment.voters[msg.sender] = true */\n              dup1\n              sload\n              not(0xff)\n              and\n              swap1\n              swap2\n              or\n              swap1\n              sstore\n                /* \"contracts/Post.sol\":3774:4065  if(!comment.voters[msg.sender]) {\r... */\n              jump(tag_117)\n            tag_115:\n                /* \"contracts/Post.sol\":3920:3930  msg.sender */\n              caller\n              sub(exp(0x2, 0xa0), 0x1)\n                /* \"contracts/Post.sol\":3905:3931  comment.voters[msg.sender] */\n              and\n              0x0\n              swap1\n              dup2\n              mstore\n                /* \"contracts/Post.sol\":3905:3919  comment.voters */\n              0x4\n              dup3\n              add\n                /* \"contracts/Post.sol\":3905:3931  comment.voters[msg.sender] */\n              0x20\n              mstore\n              0x40\n              swap1\n              keccak256\n              sload\n              0xff\n              and\n                /* \"contracts/Post.sol\":3902:4065  if(comment.voters[msg.sender]) {\r... */\n              iszero\n              tag_117\n              jumpi\n                /* \"contracts/Post.sol\":3956:3969  comment.votes */\n              0x3\n              dup2\n              add\n              sload\n                /* \"contracts/Post.sol\":3972:3973  0 */\n              0x0\n                /* \"contracts/Post.sol\":3956:3973  comment.votes > 0 */\n              swap1\n              gt\n                /* \"contracts/Post.sol\":3948:3974  require(comment.votes > 0) */\n              tag_118\n              jumpi\n              0x0\n              dup1\n              revert\n            tag_118:\n                /* \"contracts/Post.sol\":3989:4002  comment.votes */\n              0x3\n              dup2\n              add\n                /* \"contracts/Post.sol\":3989:4004  comment.votes-- */\n              dup1\n              sload\n              not(0x0)\n              add\n              swap1\n              sstore\n                /* \"contracts/Post.sol\":4034:4044  msg.sender */\n              caller\n              sub(exp(0x2, 0xa0), 0x1)\n                /* \"contracts/Post.sol\":4019:4045  comment.voters[msg.sender] */\n              and\n              0x0\n              swap1\n              dup2\n              mstore\n                /* \"contracts/Post.sol\":4019:4033  comment.voters */\n              0x4\n              dup3\n              add\n                /* \"contracts/Post.sol\":4019:4045  comment.voters[msg.sender] */\n              0x20\n              mstore\n              0x40\n              swap1\n              keccak256\n                /* \"contracts/Post.sol\":4019:4053  comment.voters[msg.sender] = false */\n              dup1\n              sload\n              not(0xff)\n              and\n              swap1\n              sstore\n                /* \"contracts/Post.sol\":3902:4065  if(comment.voters[msg.sender]) {\r... */\n            tag_117:\n                /* \"contracts/Post.sol\":3647:4082  function voteComment(uint commentIndex) public {\r... */\n              pop\n              pop\n              jump\t// out\n                /* \"contracts/Post.sol\":1908:1930  address public creator */\n            tag_25:\n              and(sub(exp(0x2, 0xa0), 0x1), sload(0x2))\n              dup2\n              jump\t// out\n                /* \"contracts/Post.sol\":1872:1901  address public factoryManager */\n            tag_28:\n              and(sub(exp(0x2, 0xa0), 0x1), sload(0x1))\n              dup2\n              jump\t// out\n                /* \"contracts/Post.sol\":3352:3450  function vottedPost(address user) public view returns(bool) {\r... */\n            tag_31:\n              sub(exp(0x2, 0xa0), 0x1)\n                /* \"contracts/Post.sol\":3430:3442  voters[user] */\n              and\n                /* \"contracts/Post.sol\":3406:3410  bool */\n              0x0\n                /* \"contracts/Post.sol\":3430:3442  voters[user] */\n              swap1\n              dup2\n              mstore\n                /* \"contracts/Post.sol\":3430:3436  voters */\n              0x7\n                /* \"contracts/Post.sol\":3430:3442  voters[user] */\n              0x20\n              mstore\n              0x40\n              swap1\n              keccak256\n              sload\n              0xff\n              and\n              swap1\n                /* \"contracts/Post.sol\":3352:3450  function vottedPost(address user) public view returns(bool) {\r... */\n              jump\t// out\n                /* \"contracts/Post.sol\":3060:3340  function votePost() public {\r... */\n            tag_34:\n                /* \"contracts/Post.sol\":3109:3119  msg.sender */\n              caller\n              sub(exp(0x2, 0xa0), 0x1)\n                /* \"contracts/Post.sol\":3102:3120  voters[msg.sender] */\n              and\n              0x0\n              swap1\n              dup2\n              mstore\n                /* \"contracts/Post.sol\":3102:3108  voters */\n              0x7\n                /* \"contracts/Post.sol\":3102:3120  voters[msg.sender] */\n              0x20\n              mstore\n              0x40\n              swap1\n              keccak256\n              sload\n              0xff\n              and\n                /* \"contracts/Post.sol\":3101:3120  !voters[msg.sender] */\n              iszero\n                /* \"contracts/Post.sol\":3098:3333  if(!voters[msg.sender]) {\r... */\n              iszero\n              tag_121\n              jumpi\n                /* \"contracts/Post.sol\":3137:3142  votes */\n              0x6\n                /* \"contracts/Post.sol\":3137:3144  votes++ */\n              dup1\n              sload\n              0x1\n              swap1\n              dup2\n              add\n              swap1\n              swap2\n              sstore\n                /* \"contracts/Post.sol\":3166:3176  msg.sender */\n              caller\n              sub(exp(0x2, 0xa0), 0x1)\n                /* \"contracts/Post.sol\":3159:3177  voters[msg.sender] */\n              and\n              0x0\n              swap1\n              dup2\n              mstore\n                /* \"contracts/Post.sol\":3159:3165  voters */\n              0x7\n                /* \"contracts/Post.sol\":3159:3177  voters[msg.sender] */\n              0x20\n              mstore\n              0x40\n              swap1\n              keccak256\n                /* \"contracts/Post.sol\":3159:3184  voters[msg.sender] = true */\n              dup1\n              sload\n              not(0xff)\n              and\n              swap1\n              swap2\n              or\n              swap1\n              sstore\n                /* \"contracts/Post.sol\":3098:3333  if(!voters[msg.sender]) {\r... */\n              jump(tag_123)\n            tag_121:\n                /* \"contracts/Post.sol\":3212:3222  msg.sender */\n              caller\n              sub(exp(0x2, 0xa0), 0x1)\n                /* \"contracts/Post.sol\":3205:3223  voters[msg.sender] */\n              and\n              0x0\n              swap1\n              dup2\n              mstore\n                /* \"contracts/Post.sol\":3205:3211  voters */\n              0x7\n                /* \"contracts/Post.sol\":3205:3223  voters[msg.sender] */\n              0x20\n              mstore\n              0x40\n              swap1\n              keccak256\n              sload\n              0xff\n              and\n                /* \"contracts/Post.sol\":3202:3333  if(voters[msg.sender]) {\r... */\n              iszero\n              tag_123\n              jumpi\n                /* \"contracts/Post.sol\":3248:3253  votes */\n              sload(0x6)\n                /* \"contracts/Post.sol\":3256:3257  0 */\n              0x0\n                /* \"contracts/Post.sol\":3248:3257  votes > 0 */\n              swap1\n              gt\n                /* \"contracts/Post.sol\":3240:3258  require(votes > 0) */\n              tag_124\n              jumpi\n              0x0\n              dup1\n              revert\n            tag_124:\n                /* \"contracts/Post.sol\":3273:3278  votes */\n              0x6\n                /* \"contracts/Post.sol\":3273:3280  votes-- */\n              dup1\n              sload\n              not(0x0)\n              add\n              swap1\n              sstore\n                /* \"contracts/Post.sol\":3302:3312  msg.sender */\n              caller\n              sub(exp(0x2, 0xa0), 0x1)\n                /* \"contracts/Post.sol\":3295:3313  voters[msg.sender] */\n              and\n              0x0\n              swap1\n              dup2\n              mstore\n                /* \"contracts/Post.sol\":3295:3301  voters */\n              0x7\n                /* \"contracts/Post.sol\":3295:3313  voters[msg.sender] */\n              0x20\n              mstore\n              0x40\n              swap1\n              keccak256\n                /* \"contracts/Post.sol\":3295:3321  voters[msg.sender] = false */\n              dup1\n              sload\n              not(0xff)\n              and\n              swap1\n              sstore\n                /* \"contracts/Post.sol\":3202:3333  if(voters[msg.sender]) {\r... */\n            tag_123:\n                /* \"contracts/Post.sol\":3060:3340  function votePost() public {\r... */\n              jump\t// out\n                /* \"contracts/Post.sol\":1992:2010  string public body */\n            tag_37:\n              0x5\n              dup1\n              sload\n              0x1\n              dup2\n              0x1\n              and\n              iszero\n              0x100\n              mul\n              sub\n              and\n              0x2\n              swap1\n              div\n              dup1\n              0x1f\n              add\n              0x20\n              dup1\n              swap2\n              div\n              mul\n              0x20\n              add\n              mload(0x40)\n              swap1\n              dup2\n              add\n              0x40\n              mstore\n              dup1\n              swap3\n              swap2\n              swap1\n              dup2\n              dup2\n              mstore\n              0x20\n              add\n              dup3\n              dup1\n              sload\n              0x1\n              dup2\n              0x1\n              and\n              iszero\n              0x100\n              mul\n              sub\n              and\n              0x2\n              swap1\n              div\n              dup1\n              iszero\n              tag_125\n              jumpi\n              dup1\n              0x1f\n              lt\n              tag_126\n              jumpi\n              0x100\n              dup1\n              dup4\n              sload\n              div\n              mul\n              dup4\n              mstore\n              swap2\n              0x20\n              add\n              swap2\n              jump(tag_125)\n            tag_126:\n              dup3\n              add\n              swap2\n              swap1\n              0x0\n              mstore\n              keccak256(0x0, 0x20)\n              swap1\n            tag_127:\n              dup2\n              sload\n              dup2\n              mstore\n              swap1\n              0x1\n              add\n              swap1\n              0x20\n              add\n              dup1\n              dup4\n              gt\n              tag_127\n              jumpi\n              dup3\n              swap1\n              sub\n              0x1f\n              and\n              dup3\n              add\n              swap2\n            tag_125:\n              pop\n              pop\n              pop\n              pop\n              pop\n              dup2\n              jump\t// out\n                /* \"contracts/Post.sol\":4281:4483  function getPostSummary() public view returns(string memory, string memory, string memory, uint, uint, bool) {\r... */\n            tag_44:\n                /* \"contracts/Post.sol\":4327:4333  string */\n              tag_128\n              jump\t// in(tag_129)\n            tag_128:\n                /* \"contracts/Post.sol\":4342:4348  string */\n              tag_130\n              jump\t// in(tag_129)\n            tag_130:\n                /* \"contracts/Post.sol\":4357:4363  string */\n              tag_131\n              jump\t// in(tag_129)\n            tag_131:\n                /* \"contracts/Post.sol\":4432:4437  votes */\n              sload(0x6)\n                /* \"contracts/Post.sol\":4372:4376  uint */\n              0x0\n                /* \"contracts/Post.sol\":4439:4454  comments.length */\n              dup1\n              sload\n              sub(exp(0x2, 0xa0), 0x1)\n                /* \"contracts/Post.sol\":4463:4473  msg.sender */\n              caller\n                /* \"contracts/Post.sol\":4456:4474  voters[msg.sender] */\n              and\n              dup3\n              mstore\n                /* \"contracts/Post.sol\":4456:4462  voters */\n              0x7\n                /* \"contracts/Post.sol\":4456:4474  voters[msg.sender] */\n              0x20\n              swap1\n              dup2\n              mstore\n              0x40\n              dup1\n              dup5\n              keccak256\n              sload\n                /* \"contracts/Post.sol\":4409:4417  username */\n              0x3\n                /* \"contracts/Post.sol\":4401:4475  return (username, title, body, votes, comments.length, voters[msg.sender]) */\n              dup1\n              sload\n                /* \"contracts/Post.sol\":4372:4376  uint */\n              swap6\n              swap7\n              dup8\n              swap7\n              dup8\n              swap7\n                /* \"contracts/Post.sol\":4409:4417  username */\n              swap3\n              swap6\n                /* \"contracts/Post.sol\":4419:4424  title */\n              0x4\n              swap6\n                /* \"contracts/Post.sol\":4426:4430  body */\n              0x5\n              swap6\n                /* \"contracts/Post.sol\":4432:4437  votes */\n              swap4\n              swap5\n                /* \"contracts/Post.sol\":4439:4454  comments.length */\n              swap4\n                /* \"contracts/Post.sol\":4456:4474  voters[msg.sender] */\n              0xff\n              and\n              swap3\n                /* \"contracts/Post.sol\":4409:4417  username */\n              dup9\n              swap3\n              0x2\n              not(0x0)\n              0x1\n                /* \"contracts/Post.sol\":4401:4475  return (username, title, body, votes, comments.length, voters[msg.sender]) */\n              dup5\n              and\n              iszero\n                /* \"contracts/Post.sol\":4456:4474  voters[msg.sender] */\n              0x100\n                /* \"contracts/Post.sol\":4401:4475  return (username, title, body, votes, comments.length, voters[msg.sender]) */\n              mul\n              add\n              swap1\n              swap3\n              and\n              swap2\n              swap1\n              swap2\n              div\n              swap2\n              0x1f\n              dup4\n              add\n              dup3\n              swap1\n              div\n              dup3\n              mul\n              swap1\n              swap2\n              add\n              swap1\n              mload\n              swap1\n              dup2\n              add\n              0x40\n              mstore\n              dup1\n              swap3\n              swap2\n              swap1\n              dup2\n              dup2\n              mstore\n              0x20\n              add\n              dup3\n              dup1\n              sload\n              0x1\n              dup2\n              0x1\n              and\n              iszero\n              0x100\n              mul\n              sub\n              and\n              0x2\n              swap1\n              div\n              dup1\n              iszero\n              tag_133\n              jumpi\n              dup1\n              0x1f\n              lt\n              tag_134\n              jumpi\n              0x100\n              dup1\n              dup4\n              sload\n              div\n              mul\n              dup4\n              mstore\n              swap2\n              0x20\n              add\n              swap2\n              jump(tag_133)\n            tag_134:\n              dup3\n              add\n              swap2\n              swap1\n              0x0\n              mstore\n              keccak256(0x0, 0x20)\n              swap1\n            tag_135:\n              dup2\n              sload\n              dup2\n              mstore\n              swap1\n              0x1\n              add\n              swap1\n              0x20\n              add\n              dup1\n              dup4\n              gt\n              tag_135\n              jumpi\n              dup3\n              swap1\n              sub\n              0x1f\n              and\n              dup3\n              add\n              swap2\n            tag_133:\n              pop\n              pop\n              pop\n              pop\n              pop\n              swap6\n              pop\n              dup5\n              dup1\n              sload\n              0x1\n              dup2\n              0x1\n              and\n              iszero\n              0x100\n              mul\n              sub\n              and\n              0x2\n              swap1\n              div\n              dup1\n              0x1f\n              add\n              0x20\n              dup1\n              swap2\n              div\n              mul\n              0x20\n              add\n              mload(0x40)\n              swap1\n              dup2\n              add\n              0x40\n              mstore\n              dup1\n              swap3\n              swap2\n              swap1\n              dup2\n              dup2\n              mstore\n              0x20\n              add\n              dup3\n              dup1\n              sload\n              0x1\n              dup2\n              0x1\n              and\n              iszero\n              0x100\n              mul\n              sub\n              and\n              0x2\n              swap1\n              div\n              dup1\n              iszero\n              tag_136\n              jumpi\n              dup1\n              0x1f\n              lt\n              tag_137\n              jumpi\n              0x100\n              dup1\n              dup4\n              sload\n              div\n              mul\n              dup4\n              mstore\n              swap2\n              0x20\n              add\n              swap2\n              jump(tag_136)\n            tag_137:\n              dup3\n              add\n              swap2\n              swap1\n              0x0\n              mstore\n              keccak256(0x0, 0x20)\n              swap1\n            tag_138:\n              dup2\n              sload\n              dup2\n              mstore\n              swap1\n              0x1\n              add\n              swap1\n              0x20\n              add\n              dup1\n              dup4\n              gt\n              tag_138\n              jumpi\n              dup3\n              swap1\n              sub\n              0x1f\n              and\n              dup3\n              add\n              swap2\n            tag_136:\n              pop\n              pop\n              pop\n              pop\n              pop\n              swap5\n              pop\n              dup4\n              dup1\n              sload\n              0x1\n              dup2\n              0x1\n              and\n              iszero\n              0x100\n              mul\n              sub\n              and\n              0x2\n              swap1\n              div\n              dup1\n              0x1f\n              add\n              0x20\n              dup1\n              swap2\n              div\n              mul\n              0x20\n              add\n              mload(0x40)\n              swap1\n              dup2\n              add\n              0x40\n              mstore\n              dup1\n              swap3\n              swap2\n              swap1\n              dup2\n              dup2\n              mstore\n              0x20\n              add\n              dup3\n              dup1\n              sload\n              0x1\n              dup2\n              0x1\n              and\n              iszero\n              0x100\n              mul\n              sub\n              and\n              0x2\n              swap1\n              div\n              dup1\n              iszero\n              tag_139\n              jumpi\n              dup1\n              0x1f\n              lt\n              tag_140\n              jumpi\n              0x100\n              dup1\n              dup4\n              sload\n              div\n              mul\n              dup4\n              mstore\n              swap2\n              0x20\n              add\n              swap2\n              jump(tag_139)\n            tag_140:\n              dup3\n              add\n              swap2\n              swap1\n              0x0\n              mstore\n              keccak256(0x0, 0x20)\n              swap1\n            tag_141:\n              dup2\n              sload\n              dup2\n              mstore\n              swap1\n              0x1\n              add\n              swap1\n              0x20\n              add\n              dup1\n              dup4\n              gt\n              tag_141\n              jumpi\n              dup3\n              swap1\n              sub\n              0x1f\n              and\n              dup3\n              add\n              swap2\n            tag_139:\n              pop\n              pop\n              pop\n              pop\n              pop\n              swap4\n              pop\n              swap6\n              pop\n              swap6\n              pop\n              swap6\n              pop\n              swap6\n              pop\n              swap6\n              pop\n              swap6\n              pop\n                /* \"contracts/Post.sol\":4281:4483  function getPostSummary() public view returns(string memory, string memory, string memory, uint, uint, bool) {\r... */\n              swap1\n              swap2\n              swap3\n              swap4\n              swap5\n              swap6\n              jump\t// out\n                /* \"contracts/Post.sol\":1966:1985  string public title */\n            tag_59:\n              0x4\n              dup1\n              sload\n              0x1\n              dup2\n              0x1\n              and\n              iszero\n              0x100\n              mul\n              sub\n              and\n              0x2\n              swap1\n              div\n              dup1\n              0x1f\n              add\n              0x20\n              dup1\n              swap2\n              div\n              mul\n              0x20\n              add\n              mload(0x40)\n              swap1\n              dup2\n              add\n              0x40\n              mstore\n              dup1\n              swap3\n              swap2\n              swap1\n              dup2\n              dup2\n              mstore\n              0x20\n              add\n              dup3\n              dup1\n              sload\n              0x1\n              dup2\n              0x1\n              and\n              iszero\n              0x100\n              mul\n              sub\n              and\n              0x2\n              swap1\n              div\n              dup1\n              iszero\n              tag_125\n              jumpi\n              dup1\n              0x1f\n              lt\n              tag_126\n              jumpi\n              0x100\n              dup1\n              dup4\n              sload\n              div\n              mul\n              dup4\n              mstore\n              swap2\n              0x20\n              add\n              swap2\n              jump(tag_125)\n                /* \"contracts/Post.sol\":1937:1959  string public username */\n            tag_66:\n              0x3\n              dup1\n              sload\n              0x1\n              dup2\n              0x1\n              and\n              iszero\n              0x100\n              mul\n              sub\n              and\n              0x2\n              swap1\n              div\n              dup1\n              0x1f\n              add\n              0x20\n              dup1\n              swap2\n              div\n              mul\n              0x20\n              add\n              mload(0x40)\n              swap1\n              dup2\n              add\n              0x40\n              mstore\n              dup1\n              swap3\n              swap2\n              swap1\n              dup2\n              dup2\n              mstore\n              0x20\n              add\n              dup3\n              dup1\n              sload\n              0x1\n              dup2\n              0x1\n              and\n              iszero\n              0x100\n              mul\n              sub\n              and\n              0x2\n              swap1\n              div\n              dup1\n              iszero\n              tag_125\n              jumpi\n              dup1\n              0x1f\n              lt\n              tag_126\n              jumpi\n              0x100\n              dup1\n              dup4\n              sload\n              div\n              mul\n              dup4\n              mstore\n              swap2\n              0x20\n              add\n              swap2\n              jump(tag_125)\n                /* \"contracts/Post.sol\":3462:3635  function vottedComment(uint index, address user) public view returns(bool) {\r... */\n            tag_73:\n                /* \"contracts/Post.sol\":3531:3535  bool */\n              0x0\n                /* \"contracts/Post.sol\":3548:3571  Comment storage comment */\n              dup1\n                /* \"contracts/Post.sol\":3574:3582  comments */\n              0x0\n                /* \"contracts/Post.sol\":3583:3588  index */\n              dup5\n                /* \"contracts/Post.sol\":3574:3589  comments[index] */\n              dup2\n              sload\n              dup2\n              lt\n              iszero\n              iszero\n              tag_149\n              jumpi\n              invalid\n            tag_149:\n              0x0\n              swap2\n              dup3\n              mstore\n              0x20\n              dup1\n              dup4\n              keccak256\n              sub(exp(0x2, 0xa0), 0x1)\n                /* \"contracts/Post.sol\":3607:3627  comment.voters[user] */\n              swap7\n              swap1\n              swap7\n              and\n              dup4\n              mstore\n                /* \"contracts/Post.sol\":3607:3621  comment.voters */\n              0x4\n                /* \"contracts/Post.sol\":3574:3589  comments[index] */\n              0x5\n              swap3\n              swap1\n              swap3\n              mul\n              swap1\n              swap6\n              add\n                /* \"contracts/Post.sol\":3607:3621  comment.voters */\n              add\n                /* \"contracts/Post.sol\":3607:3627  comment.voters[user] */\n              swap1\n              swap4\n              mstore\n              pop\n              pop\n              0x40\n              swap1\n              keccak256\n              sload\n              0xff\n              and\n              swap2\n              swap1\n              pop\n                /* \"contracts/Post.sol\":3462:3635  function vottedComment(uint index, address user) public view returns(bool) {\r... */\n              jump\t// out\n                /* \"contracts/Post.sol\":4094:4269  function deleteComment(uint index, address _creator) public {\r... */\n            tag_76:\n                /* \"contracts/Post.sol\":4187:4201  factoryManager */\n              sload(0x1)\n                /* \"contracts/Post.sol\":4173:4183  msg.sender */\n              caller\n              sub(exp(0x2, 0xa0), 0x1)\n                /* \"contracts/Post.sol\":4173:4201  msg.sender == factoryManager */\n              swap1\n              dup2\n              and\n                /* \"contracts/Post.sol\":4187:4201  factoryManager */\n              swap2\n              and\n                /* \"contracts/Post.sol\":4173:4201  msg.sender == factoryManager */\n              eq\n              dup1\n                /* \"contracts/Post.sol\":4173:4227  msg.sender == factoryManager || msg.sender == _creator */\n              tag_152\n              jumpi\n              pop\n                /* \"contracts/Post.sol\":4205:4215  msg.sender */\n              caller\n              sub(exp(0x2, 0xa0), 0x1)\n                /* \"contracts/Post.sol\":4205:4227  msg.sender == _creator */\n              swap1\n              dup2\n              and\n              swap1\n              dup3\n              and\n              eq\n                /* \"contracts/Post.sol\":4173:4227  msg.sender == factoryManager || msg.sender == _creator */\n            tag_152:\n                /* \"contracts/Post.sol\":4165:4228  require(msg.sender == factoryManager || msg.sender == _creator) */\n              iszero\n              iszero\n              tag_153\n              jumpi\n              0x0\n              dup1\n              revert\n            tag_153:\n                /* \"contracts/Post.sol\":4246:4254  comments */\n              0x0\n                /* \"contracts/Post.sol\":4246:4261  comments[index] */\n              dup1\n              sload\n                /* \"contracts/Post.sol\":4255:4260  index */\n              dup4\n              swap1\n                /* \"contracts/Post.sol\":4246:4261  comments[index] */\n              dup2\n              lt\n              tag_154\n              jumpi\n              invalid\n            tag_154:\n              0x0\n              swap2\n              dup3\n              mstore\n              0x20\n              dup3\n              keccak256\n              0x5\n              swap1\n              swap2\n              mul\n              add\n                /* \"contracts/Post.sol\":4239:4261  delete comments[index] */\n              dup1\n              sload\n              not(sub(exp(0x2, 0xa0), 0x1))\n              and\n              dup2\n              sstore\n                /* \"contracts/Post.sol\":4246:4261  comments[index] */\n              swap1\n                /* \"contracts/Post.sol\":4239:4261  delete comments[index] */\n              tag_156\n              0x1\n              dup4\n              add\n                /* \"contracts/Post.sol\":4246:4261  comments[index] */\n              dup3\n                /* \"contracts/Post.sol\":4239:4261  delete comments[index] */\n              jump\t// in(tag_157)\n            tag_156:\n              tag_158\n              0x2\n              dup4\n              add\n              0x0\n              jump\t// in(tag_157)\n            tag_158:\n              0x3\n              dup3\n              add\n              0x0\n              swap1\n              sstore\n              pop\n              pop\n                /* \"contracts/Post.sol\":4094:4269  function deleteComment(uint index, address _creator) public {\r... */\n              pop\n              pop\n              jump\t// out\n                /* \"contracts/Post.sol\":1840:1865  Comment[] public comments */\n            tag_79:\n              0x0\n              dup1\n              sload\n              dup3\n              swap1\n              dup2\n              lt\n              tag_159\n              jumpi\n              invalid\n            tag_159:\n              0x0\n              swap2\n              dup3\n              mstore\n              0x20\n              swap1\n              swap2\n              keccak256\n              0x5\n              swap1\n              swap2\n              mul\n              add\n              dup1\n              sload\n              0x3\n              dup3\n              add\n              sload\n              sub(exp(0x2, 0xa0), 0x1)\n              swap1\n              swap2\n              and\n              swap3\n              pop\n              0x1\n              dup3\n              add\n              swap2\n              0x2\n              add\n              swap1\n              dup5\n              jump\t// out\n                /* \"contracts/Post.sol\":2740:3048  function createComment(string memory commentText, string memory user) public {\r... */\n            tag_88:\n                /* \"contracts/Post.sol\":2828:2853  Comment memory newComment */\n              tag_161\n              jump\t// in(tag_162)\n            tag_161:\n                /* \"contracts/Post.sol\":2856:2994  Comment({\r... */\n              0x80\n              mload(0x40)\n              swap1\n              dup2\n              add\n              0x40\n              swap1\n              dup2\n              mstore\n              sub(exp(0x2, 0xa0), 0x1)\n                /* \"contracts/Post.sol\":2888:2898  msg.sender */\n              caller\n                /* \"contracts/Post.sol\":2856:2994  Comment({\r... */\n              and\n              dup3\n              mstore\n              0x20\n              dup3\n              add\n              dup5\n              swap1\n              mstore\n              dup2\n              add\n              dup5\n              swap1\n              mstore\n              0x0\n              0x60\n              dup3\n              add\n              dup2\n              swap1\n              mstore\n                /* \"contracts/Post.sol\":3015:3040  comments.push(newComment) */\n              dup1\n              sload\n                /* \"contracts/Post.sol\":2856:2994  Comment({\r... */\n              swap2\n              swap3\n              pop\n              swap1\n              0x1\n                /* \"contracts/Post.sol\":3015:3040  comments.push(newComment) */\n              dup2\n              add\n              tag_164\n              dup4\n              dup3\n              jump\t// in(tag_165)\n            tag_164:\n              0x0\n              swap3\n              dup4\n              mstore\n              0x20\n              swap1\n              swap3\n              keccak256\n                /* \"contracts/Post.sol\":3029:3039  newComment */\n              dup4\n              swap2\n                /* \"contracts/Post.sol\":3015:3040  comments.push(newComment) */\n              0x5\n              mul\n              add\n                /* \"contracts/Post.sol\":3029:3039  newComment */\n              dup2\n                /* \"contracts/Post.sol\":3015:3040  comments.push(newComment) */\n              mload\n              dup2\n              sload\n              not(0xffffffffffffffffffffffffffffffffffffffff)\n              and\n              sub(exp(0x2, 0xa0), 0x1)\n              swap2\n              swap1\n              swap2\n              and\n              or\n              dup2\n              sstore\n              0x20\n              dup3\n              add\n              mload\n              dup2\n              0x1\n              add\n              swap1\n              dup1\n              mload\n              tag_167\n              swap3\n              swap2\n              0x20\n              add\n              swap1\n              jump\t// in(tag_168)\n            tag_167:\n              pop\n              0x40\n              dup3\n              add\n              mload\n              dup2\n              0x2\n              add\n              swap1\n              dup1\n              mload\n              tag_169\n              swap3\n              swap2\n              0x20\n              add\n              swap1\n              jump\t// in(tag_168)\n            tag_169:\n              pop\n              0x60\n              dup3\n              add\n              mload\n              dup2\n              0x3\n              add\n              sstore\n              pop\n              pop\n              pop\n                /* \"contracts/Post.sol\":2740:3048  function createComment(string memory commentText, string memory user) public {\r... */\n              pop\n              pop\n              pop\n              jump\t// out\n                /* \"contracts/Post.sol\":2041:2079  mapping(address => bool) public voters */\n            tag_91:\n              mstore(0x20, 0x7)\n              0x0\n              swap1\n              dup2\n              mstore\n              0x40\n              swap1\n              keccak256\n              sload\n              0xff\n              and\n              dup2\n              jump\t// out\n                /* \"contracts/Post.sol\":4775:4870  function getCommentsCount() public view returns(uint) {\r... */\n            tag_94:\n                /* \"contracts/Post.sol\":4823:4827  uint */\n              0x0\n                /* \"contracts/Post.sol\":4847:4862  comments.length */\n              sload\n                /* \"contracts/Post.sol\":4775:4870  function getCommentsCount() public view returns(uint) {\r... */\n            tag_170:\n              swap1\n              jump\t// out\n                /* \"contracts/Post.sol\":4495:4763  function getCommentSummary(uint commentIndex) public view returns(string memory, string memory, uint, bool) {\r... */\n            tag_97:\n                /* \"contracts/Post.sol\":4561:4567  string */\n              tag_171\n              jump\t// in(tag_129)\n            tag_171:\n                /* \"contracts/Post.sol\":4576:4582  string */\n              tag_172\n              jump\t// in(tag_129)\n            tag_172:\n                /* \"contracts/Post.sol\":4591:4595  uint */\n              0x0\n                /* \"contracts/Post.sol\":4597:4601  bool */\n              dup1\n                /* \"contracts/Post.sol\":4614:4637  Comment storage comment */\n              0x0\n                /* \"contracts/Post.sol\":4640:4648  comments */\n              dup1\n                /* \"contracts/Post.sol\":4649:4661  commentIndex */\n              dup7\n                /* \"contracts/Post.sol\":4640:4662  comments[commentIndex] */\n              dup2\n              sload\n              dup2\n              lt\n              iszero\n              iszero\n              tag_174\n              jumpi\n              invalid\n            tag_174:\n              0x0\n              swap2\n              dup3\n              mstore\n              0x20\n              dup1\n              dup4\n              keccak256\n                /* \"contracts/Post.sol\":4713:4726  comment.votes */\n              0x3\n                /* \"contracts/Post.sol\":4640:4662  comments[commentIndex] */\n              0x5\n              swap1\n              swap4\n              mul\n              add\n                /* \"contracts/Post.sol\":4713:4726  comment.votes */\n              swap2\n              dup3\n              add\n              sload\n              sub(exp(0x2, 0xa0), 0x1)\n                /* \"contracts/Post.sol\":4743:4753  msg.sender */\n              caller\n                /* \"contracts/Post.sol\":4728:4754  comment.voters[msg.sender] */\n              and\n              dup5\n              mstore\n                /* \"contracts/Post.sol\":4728:4742  comment.voters */\n              0x4\n              dup4\n              add\n                /* \"contracts/Post.sol\":4728:4754  comment.voters[msg.sender] */\n              dup3\n              mstore\n              0x40\n              swap4\n              dup5\n              swap1\n              keccak256\n              sload\n                /* \"contracts/Post.sol\":4681:4697  comment.username */\n              0x1\n              dup1\n              dup6\n              add\n                /* \"contracts/Post.sol\":4673:4755  return (comment.username, comment.text, comment.votes, comment.voters[msg.sender]) */\n              dup1\n              sload\n                /* \"contracts/Post.sol\":4640:4662  comments[commentIndex] */\n              swap6\n              swap8\n              pop\n                /* \"contracts/Post.sol\":4681:4697  comment.username */\n              swap6\n                /* \"contracts/Post.sol\":4699:4711  comment.text */\n              0x2\n              dup1\n              dup10\n              add\n              swap7\n                /* \"contracts/Post.sol\":4713:4726  comment.votes */\n              swap5\n              swap6\n                /* \"contracts/Post.sol\":4728:4754  comment.voters[msg.sender] */\n              0xff\n              swap1\n              swap5\n              and\n              swap5\n                /* \"contracts/Post.sol\":4681:4697  comment.username */\n              dup9\n              swap5\n              not(0x0)\n                /* \"contracts/Post.sol\":4673:4755  return (comment.username, comment.text, comment.votes, comment.voters[msg.sender]) */\n              swap5\n              dup3\n              and\n              iszero\n                /* \"contracts/Post.sol\":4728:4754  comment.voters[msg.sender] */\n              0x100\n                /* \"contracts/Post.sol\":4673:4755  return (comment.username, comment.text, comment.votes, comment.voters[msg.sender]) */\n              mul\n              swap5\n              swap1\n              swap5\n              add\n              and\n              div\n              swap2\n              0x1f\n              dup4\n              add\n              dup2\n              swap1\n              div\n              dup2\n              mul\n              add\n              swap1\n              mload\n              swap1\n              dup2\n              add\n              0x40\n              mstore\n              dup1\n              swap3\n              swap2\n              swap1\n              dup2\n              dup2\n              mstore\n              0x20\n              add\n              dup3\n              dup1\n              sload\n              0x1\n              dup2\n              0x1\n              and\n              iszero\n              0x100\n              mul\n              sub\n              and\n              0x2\n              swap1\n              div\n              dup1\n              iszero\n              tag_176\n              jumpi\n              dup1\n              0x1f\n              lt\n              tag_177\n              jumpi\n              0x100\n              dup1\n              dup4\n              sload\n              div\n              mul\n              dup4\n              mstore\n              swap2\n              0x20\n              add\n              swap2\n              jump(tag_176)\n            tag_177:\n              dup3\n              add\n              swap2\n              swap1\n              0x0\n              mstore\n              keccak256(0x0, 0x20)\n              swap1\n            tag_178:\n              dup2\n              sload\n              dup2\n              mstore\n              swap1\n              0x1\n              add\n              swap1\n              0x20\n              add\n              dup1\n              dup4\n              gt\n              tag_178\n              jumpi\n              dup3\n              swap1\n              sub\n              0x1f\n              and\n              dup3\n              add\n              swap2\n            tag_176:\n              pop\n              pop\n              pop\n              pop\n              pop\n              swap4\n              pop\n              dup3\n              dup1\n              sload\n              0x1\n              dup2\n              0x1\n              and\n              iszero\n              0x100\n              mul\n              sub\n              and\n              0x2\n              swap1\n              div\n              dup1\n              0x1f\n              add\n              0x20\n              dup1\n              swap2\n              div\n              mul\n              0x20\n              add\n              mload(0x40)\n              swap1\n              dup2\n              add\n              0x40\n              mstore\n              dup1\n              swap3\n              swap2\n              swap1\n              dup2\n              dup2\n              mstore\n              0x20\n              add\n              dup3\n              dup1\n              sload\n              0x1\n              dup2\n              0x1\n              and\n              iszero\n              0x100\n              mul\n              sub\n              and\n              0x2\n              swap1\n              div\n              dup1\n              iszero\n              tag_179\n              jumpi\n              dup1\n              0x1f\n              lt\n              tag_180\n              jumpi\n              0x100\n              dup1\n              dup4\n              sload\n              div\n              mul\n              dup4\n              mstore\n              swap2\n              0x20\n              add\n              swap2\n              jump(tag_179)\n            tag_180:\n              dup3\n              add\n              swap2\n              swap1\n              0x0\n              mstore\n              keccak256(0x0, 0x20)\n              swap1\n            tag_181:\n              dup2\n              sload\n              dup2\n              mstore\n              swap1\n              0x1\n              add\n              swap1\n              0x20\n              add\n              dup1\n              dup4\n              gt\n              tag_181\n              jumpi\n              dup3\n              swap1\n              sub\n              0x1f\n              and\n              dup3\n              add\n              swap2\n            tag_179:\n              pop\n              pop\n              pop\n              pop\n              pop\n              swap3\n              pop\n              swap5\n              pop\n              swap5\n              pop\n              swap5\n              pop\n              swap5\n              pop\n                /* \"contracts/Post.sol\":4495:4763  function getCommentSummary(uint commentIndex) public view returns(string memory, string memory, uint, bool) {\r... */\n              pop\n              swap2\n              swap4\n              pop\n              swap2\n              swap4\n              jump\t// out\n                /* \"contracts/Post.sol\":2017:2034  uint public votes */\n            tag_108:\n              sload(0x6)\n              dup2\n              jump\t// out\n                /* \"contracts/Post.sol\":4882:4970  function getPostCreator() public view returns(address) {\r... */\n            tag_111:\n                /* \"contracts/Post.sol\":4955:4962  creator */\n              and(sub(exp(0x2, 0xa0), 0x1), sload(0x2))\n              swap1\n                /* \"contracts/Post.sol\":4882:4970  function getPostCreator() public view returns(address) {\r... */\n              jump\t// out\n                /* \"contracts/Post.sol\":1647:4973  contract Post {\r... */\n            tag_129:\n              0x20\n              mload(0x40)\n              swap1\n              dup2\n              add\n              0x40\n              mstore\n              0x0\n              dup2\n              mstore\n              swap1\n              jump\t// out\n            tag_157:\n              pop\n              dup1\n              sload\n              0x1\n              dup2\n              0x1\n              and\n              iszero\n              0x100\n              mul\n              sub\n              and\n              0x2\n              swap1\n              div\n              0x0\n              dup3\n              sstore\n              dup1\n              0x1f\n              lt\n              tag_184\n              jumpi\n              pop\n              jump(tag_185)\n            tag_184:\n              0x1f\n              add\n              0x20\n              swap1\n              div\n              swap1\n              0x0\n              mstore\n              keccak256(0x0, 0x20)\n              swap1\n              dup2\n              add\n              swap1\n              tag_185\n              swap2\n              swap1\n              jump\t// in(tag_186)\n            tag_185:\n              pop\n              jump\t// out\n            tag_162:\n              0x80\n              mload(0x40)\n              swap1\n              dup2\n              add\n              0x40\n              mstore\n              0x0\n              dup2\n              mstore\n              0x20\n              dup2\n              add\n              tag_187\n              jump\t// in(tag_129)\n            tag_187:\n              dup2\n              mstore\n              0x20\n              add\n              tag_189\n              jump\t// in(tag_129)\n            tag_189:\n              dup2\n              mstore\n              0x20\n              add\n              0x0\n              dup2\n              mstore\n              pop\n              swap1\n              jump\t// out\n            tag_165:\n              dup2\n              sload\n              dup2\n              dup4\n              sstore\n              dup2\n              dup2\n              iszero\n              gt\n              tag_191\n              jumpi\n              0x5\n              mul\n              dup2\n              0x5\n              mul\n              dup4\n              0x0\n              mstore\n              keccak256(0x0, 0x20)\n              swap2\n              dup3\n              add\n              swap2\n              add\n              tag_191\n              swap2\n              swap1\n              jump\t// in(tag_192)\n            tag_191:\n              pop\n              pop\n              pop\n              jump\t// out\n            tag_168:\n              dup3\n              dup1\n              sload\n              0x1\n              dup2\n              0x1\n              and\n              iszero\n              0x100\n              mul\n              sub\n              and\n              0x2\n              swap1\n              div\n              swap1\n              0x0\n              mstore\n              keccak256(0x0, 0x20)\n              swap1\n              0x1f\n              add\n              0x20\n              swap1\n              div\n              dup2\n              add\n              swap3\n              dup3\n              0x1f\n              lt\n              tag_194\n              jumpi\n              dup1\n              mload\n              not(0xff)\n              and\n              dup4\n              dup1\n              add\n              or\n              dup6\n              sstore\n              jump(tag_196)\n            tag_194:\n              dup3\n              dup1\n              add\n              0x1\n              add\n              dup6\n              sstore\n              dup3\n              iszero\n              tag_196\n              jumpi\n              swap2\n              dup3\n              add\n            tag_195:\n              dup3\n              dup2\n              gt\n              iszero\n              tag_196\n              jumpi\n              dup3\n              mload\n              dup3\n              sstore\n              swap2\n              0x20\n              add\n              swap2\n              swap1\n              0x1\n              add\n              swap1\n              jump(tag_195)\n            tag_196:\n              pop\n              tag_197\n              swap3\n              swap2\n              pop\n              jump\t// in(tag_186)\n            tag_197:\n              pop\n              swap1\n              jump\t// out\n            tag_186:\n              tag_170\n              swap2\n              swap1\n            tag_199:\n              dup1\n              dup3\n              gt\n              iszero\n              tag_197\n              jumpi\n              0x0\n              dup2\n              sstore\n              0x1\n              add\n              jump(tag_199)\n            tag_192:\n              tag_170\n              swap2\n              swap1\n            tag_202:\n              dup1\n              dup3\n              gt\n              iszero\n              tag_197\n              jumpi\n              dup1\n              sload\n              not(0xffffffffffffffffffffffffffffffffffffffff)\n              and\n              dup2\n              sstore\n              0x0\n              tag_204\n              0x1\n              dup4\n              add\n              dup3\n              jump\t// in(tag_157)\n            tag_204:\n              tag_205\n              0x2\n              dup4\n              add\n              0x0\n              jump\t// in(tag_157)\n            tag_205:\n              pop\n              0x0\n              0x3\n              dup3\n              add\n              sstore\n              0x5\n              add\n              jump(tag_202)\n\n            auxdata: 0xa165627a7a723058208771b6278f32a45c5d802256526cbc9e22e22db405c3f5879bff71f50ae922770029\n        }\n    }\n\n    auxdata: 0xa165627a7a72305820f81ef45d7cf1b3f4ec4be5aeda4a978de8193ec928e10c9ff28c46118c9a58e90029\n}\n",
        "bytecode": {
          "linkReferences": {},
          "object": "6060604052341561000f57600080fd5b60008054600160a060020a033316600160a060020a0319909116179055611f308061003b6000396000f300606060405236156100ac5763ffffffff7c0100000000000000000000000000000000000000000000000000000000600035041663163f752281146100b157806322366844146100f157806340b4baf914610104578063481c6a7514610135578063681f3e6d14610171578063704f1b94146101fb578063735fe5531461024c5780639b124341146102715780639cd62aa814610304578063a87430ba1461031a578063c01c052d14610346575b600080fd5b34156100bc57600080fd5b6100dd73ffffffffffffffffffffffffffffffffffffffff600435166103ac565b604051901515815260200160405180910390f35b34156100fc57600080fd5b6100dd6103c1565b341561010f57600080fd5b61013360043573ffffffffffffffffffffffffffffffffffffffff602435166103ee565b005b341561014057600080fd5b610148610486565b60405173ffffffffffffffffffffffffffffffffffffffff909116815260200160405180910390f35b341561017c57600080fd5b6101846104a2565b60405160208082528190810183818151815260200191508051906020019080838360005b838110156101c05780820151838201526020016101a8565b50505050905090810190601f1680156101ed5780820380516001836020036101000a031916815260200191505b509250505060405180910390f35b341561020657600080fd5b61013360046024813581810190830135806020601f820181900481020160405190810160405281815292919060208401838380828437509496506105be95505050505050565b341561025757600080fd5b61025f61065e565b60405190815260200160405180910390f35b341561027c57600080fd5b61013360046024813581810190830135806020601f8201819004810201604051908101604052818152929190602084018383808284378201915050505050509190803590602001908201803590602001908080601f01602080910402602001604051908101604052818152929190602084018383808284375094965061066495505050505050565b341561030f57600080fd5b6101486004356108b9565b341561032557600080fd5b61018473ffffffffffffffffffffffffffffffffffffffff600435166108ee565b341561035157600080fd5b61035961099e565b60405160208082528190810183818151815260200191508051906020019060200280838360005b83811015610398578082015183820152602001610380565b505050509050019250505060405180910390f35b60016020526000908152604090205460ff1681565b73ffffffffffffffffffffffffffffffffffffffff331660009081526001602052604090205460ff165b90565b6000543373ffffffffffffffffffffffffffffffffffffffff9081169116148061044357508073ffffffffffffffffffffffffffffffffffffffff163373ffffffffffffffffffffffffffffffffffffffff16145b151561044e57600080fd5b600380548390811061045c57fe5b6000918252602090912001805473ffffffffffffffffffffffffffffffffffffffff191690555050565b60005473ffffffffffffffffffffffffffffffffffffffff1681565b6104aa610a13565b3373ffffffffffffffffffffffffffffffffffffffff811660009081526001602052604090205460ff1615156104df57600080fd5b600260008273ffffffffffffffffffffffffffffffffffffffff1673ffffffffffffffffffffffffffffffffffffffff1681526020019081526020016000208054600181600116156101000203166002900480601f0160208091040260200160405190810160405280929190818152602001828054600181600116156101000203166002900480156105b25780601f10610587576101008083540402835291602001916105b2565b820191906000526020600020905b81548152906001019060200180831161059557829003601f168201915b505050505091505b5090565b73ffffffffffffffffffffffffffffffffffffffff331660009081526001602052604090205460ff16156105f157600080fd5b73ffffffffffffffffffffffffffffffffffffffff33166000908152600260205260409020818051610627929160200190610a25565b505073ffffffffffffffffffffffffffffffffffffffff33166000908152600160208190526040909120805460ff19169091179055565b60035490565b73ffffffffffffffffffffffffffffffffffffffff331660009081526001602052604081205460ff16151561069857600080fd5b3373ffffffffffffffffffffffffffffffffffffffff818116600090815260026020526040812090548692869291166106cf610a9f565b73ffffffffffffffffffffffffffffffffffffffff80871682528216608082015260a0602082018181529060408301906060840190840188818151815260200191508051906020019080838360005b8381101561073657808201518382015260200161071e565b50505050905090810190601f1680156107635780820380516001836020036101000a031916815260200191505b50848103835287818151815260200191508051906020019080838360005b83811015610799578082015183820152602001610781565b50505050905090810190601f1680156107c65780820380516001836020036101000a031916815260200191505b508481038252865460026000196101006001841615020190911604808252602090910190879080156108395780601f1061080e57610100808354040283529160200191610839565b820191906000526020600020905b81548152906001019060200180831161081c57829003601f168201915b505098505050505050505050604051809103906000f080151561085b57600080fd5b9050600380548060010182816108719190610aaf565b506000918252602090912001805473ffffffffffffffffffffffffffffffffffffffff191673ffffffffffffffffffffffffffffffffffffffff929092169190911790555050565b60038054829081106108c757fe5b60009182526020909120015473ffffffffffffffffffffffffffffffffffffffff16905081565b60026020528060005260406000206000915090508054600181600116156101000203166002900480601f0160208091040260200160405190810160405280929190818152602001828054600181600116156101000203166002900480156109965780601f1061096b57610100808354040283529160200191610996565b820191906000526020600020905b81548152906001019060200180831161097957829003601f168201915b505050505081565b6109a6610a13565b6003805480602002602001604051908101604052809291908181526020018280548015610a0957602002820191906000526020600020905b815473ffffffffffffffffffffffffffffffffffffffff1681526001909101906020018083116109de575b5050505050905090565b60206040519081016040526000815290565b828054600181600116156101000203166002900490600052602060002090601f016020900481019282601f10610a6657805160ff1916838001178555610a93565b82800160010185558215610a93579182015b82811115610a93578251825591602001919060010190610a78565b506105ba929150610ad8565b60405161141280610af383390190565b815481835581811511610ad357600083815260209020610ad3918101908301610ad8565b505050565b6103eb91905b808211156105ba5760008155600101610ade5600606060405234156200001057600080fd5b6040516200141238038062001412833981016040528080519190602001805182019190602001805182019190602001805182019190602001805160028054600160a060020a031916600160a060020a0389161790559150600490508480516200007e929160200190620000db565b50600583805162000094929160200190620000db565b5060006006556003828051620000af929160200190620000db565b5060018054600160a060020a031916600160a060020a0392909216919091179055506200018092505050565b828054600181600116156101000203166002900490600052602060002090601f016020900481019282601f106200011e57805160ff19168380011785556200014e565b828001600101855582156200014e579182015b828111156200014e57825182559160200191906001019062000131565b506200015c92915062000160565b5090565b6200017d91905b808211156200015c576000815560010162000167565b90565b61128280620001906000396000f300606060405236156100f95763ffffffff7c01000000000000000000000000000000000000000000000000000000006000350416630114b9d181146100fe57806302d05d3f14610116578063032b5a731461014557806306782c87146101585780630bfb7de91461018b578063364497e41461019e578063443fb57e146102285780634a79d50c1461039e57806361fac54d146103b157806369a060cf146103c45780638b47462c146103e65780638ebb4c1514610408578063a1edee4914610539578063a3ec138d146105cc578063c1c1066b146105eb578063c8de727914610610578063e168c3ec14610718578063f5b5709b1461072b575b600080fd5b341561010957600080fd5b61011460043561073e565b005b341561012157600080fd5b610129610823565b604051600160a060020a03909116815260200160405180910390f35b341561015057600080fd5b610129610832565b341561016357600080fd5b610177600160a060020a0360043516610841565b604051901515815260200160405180910390f35b341561019657600080fd5b61011461085f565b34156101a957600080fd5b6101b1610913565b60405160208082528190810183818151815260200191508051906020019080838360005b838110156101ed5780820151838201526020016101d5565b50505050905090810190601f16801561021a5780820380516001836020036101000a031916815260200191505b509250505060405180910390f35b341561023357600080fd5b61023b6109b1565b604051808060200180602001806020018781526020018681526020018515151515815260200184810384528a818151815260200191508051906020019080838360005b8381101561029657808201518382015260200161027e565b50505050905090810190601f1680156102c35780820380516001836020036101000a031916815260200191505b50848103835289818151815260200191508051906020019080838360005b838110156102f95780820151838201526020016102e1565b50505050905090810190601f1680156103265780820380516001836020036101000a031916815260200191505b50848103825288818151815260200191508051906020019080838360005b8381101561035c578082015183820152602001610344565b50505050905090810190601f1680156103895780820380516001836020036101000a031916815260200191505b50995050505050505050505060405180910390f35b34156103a957600080fd5b6101b1610bf8565b34156103bc57600080fd5b6101b1610c63565b34156103cf57600080fd5b610177600435600160a060020a0360243516610cce565b34156103f157600080fd5b610114600435600160a060020a0360243516610d16565b341561041357600080fd5b61041e600435610db1565b604051600160a060020a03851681526060810182905260806020820181815285546002600019610100600184161502019091160491830182905290604083019060a0840190879080156104b25780601f10610487576101008083540402835291602001916104b2565b820191906000526020600020905b81548152906001019060200180831161049557829003601f168201915b50508381038252855460026000196101006001841615020190911604808252602090910190869080156105265780601f106104fb57610100808354040283529160200191610526565b820191906000526020600020905b81548152906001019060200180831161050957829003601f168201915b5050965050505050505060405180910390f35b341561054457600080fd5b61011460046024813581810190830135806020601f8201819004810201604051908101604052818152929190602084018383808284378201915050505050509190803590602001908201803590602001908080601f016020809104026020016040519081016040528181529291906020840183838082843750949650610def95505050505050565b34156105d757600080fd5b610177600160a060020a0360043516610ebb565b34156105f657600080fd5b6105fe610ed0565b60405190815260200160405180910390f35b341561061b57600080fd5b610626600435610ed7565b604051604081018390528115156060820152608080825281906020820190820187818151815260200191508051906020019080838360005b8381101561067657808201518382015260200161065e565b50505050905090810190601f1680156106a35780820380516001836020036101000a031916815260200191505b50838103825286818151815260200191508051906020019080838360005b838110156106d95780820151838201526020016106c1565b50505050905090810190601f1680156107065780820380516001836020036101000a031916815260200191505b50965050505050505060405180910390f35b341561072357600080fd5b6105fe611094565b341561073657600080fd5b61012961109a565b6000808281548110151561074e57fe5b60009182526020808320600160a060020a03331684526004600590930201918201905260409091205490915060ff1615156107bb576003810180546001908101909155600160a060020a03331660009081526004830160205260409020805460ff1916909117905561081f565b600160a060020a033316600090815260048201602052604090205460ff161561081f576003810154600090116107f057600080fd5b600381018054600019019055600160a060020a03331660009081526004820160205260409020805460ff191690555b5050565b600254600160a060020a031681565b600154600160a060020a031681565b600160a060020a031660009081526007602052604090205460ff1690565b600160a060020a03331660009081526007602052604090205460ff1615156108b557600680546001908101909155600160a060020a0333166000908152600760205260409020805460ff19169091179055610911565b600160a060020a03331660009081526007602052604090205460ff161561091157600654600090116108e657600080fd5b60068054600019019055600160a060020a0333166000908152600760205260409020805460ff191690555b565b60058054600181600116156101000203166002900480601f0160208091040260200160405190810160405280929190818152602001828054600181600116156101000203166002900480156109a95780601f1061097e576101008083540402835291602001916109a9565b820191906000526020600020905b81548152906001019060200180831161098c57829003601f168201915b505050505081565b6109b96110a9565b6109c16110a9565b6109c96110a9565b60008060006003600460056006546000805490506007600033600160a060020a0316600160a060020a0316815260200190815260200160002060009054906101000a900460ff16858054600181600116156101000203166002900480601f016020809104026020016040519081016040528092919081815260200182805460018160011615610100020316600290048015610aa55780601f10610a7a57610100808354040283529160200191610aa5565b820191906000526020600020905b815481529060010190602001808311610a8857829003601f168201915b50505050509550848054600181600116156101000203166002900480601f016020809104026020016040519081016040528092919081815260200182805460018160011615610100020316600290048015610b415780601f10610b1657610100808354040283529160200191610b41565b820191906000526020600020905b815481529060010190602001808311610b2457829003601f168201915b50505050509450838054600181600116156101000203166002900480601f016020809104026020016040519081016040528092919081815260200182805460018160011615610100020316600290048015610bdd5780601f10610bb257610100808354040283529160200191610bdd565b820191906000526020600020905b815481529060010190602001808311610bc057829003601f168201915b50505050509350955095509550955095509550909192939495565b60048054600181600116156101000203166002900480601f0160208091040260200160405190810160405280929190818152602001828054600181600116156101000203166002900480156109a95780601f1061097e576101008083540402835291602001916109a9565b60038054600181600116156101000203166002900480601f0160208091040260200160405190810160405280929190818152602001828054600181600116156101000203166002900480156109a95780601f1061097e576101008083540402835291602001916109a9565b600080600084815481101515610ce057fe5b60009182526020808320600160a060020a039690961683526005919091029094016004019093525050604090205460ff16919050565b60015433600160a060020a0390811691161480610d44575080600160a060020a031633600160a060020a0316145b1515610d4f57600080fd5b6000805483908110610d5d57fe5b600091825260208220600590910201805473ffffffffffffffffffffffffffffffffffffffff1916815590610d9560018301826110bb565b610da36002830160006110bb565b600382016000905550505050565b6000805482908110610dbf57fe5b6000918252602090912060059091020180546003820154600160a060020a03909116925060018201916002019084565b610df7611102565b60806040519081016040528033600160a060020a031681526020018381526020018481526020016000815250905060008054806001018281610e399190611137565b600092835260209092208391600502018151815473ffffffffffffffffffffffffffffffffffffffff1916600160a060020a0391909116178155602082015181600101908051610e8d929160200190611168565b50604082015181600201908051610ea8929160200190611168565b5060608201518160030155505050505050565b60076020526000908152604090205460ff1681565b6000545b90565b610edf6110a9565b610ee76110a9565b60008060008086815481101515610efa57fe5b906000526020600020906005020190508060010181600201826003015483600401600033600160a060020a0316600160a060020a0316815260200190815260200160002060009054906101000a900460ff16838054600181600116156101000203166002900480601f016020809104026020016040519081016040528092919081815260200182805460018160011615610100020316600290048015610fe15780601f10610fb657610100808354040283529160200191610fe1565b820191906000526020600020905b815481529060010190602001808311610fc457829003601f168201915b50505050509350828054600181600116156101000203166002900480601f01602080910402602001604051908101604052809291908181526020018280546001816001161561010002031660029004801561107d5780601f106110525761010080835404028352916020019161107d565b820191906000526020600020905b81548152906001019060200180831161106057829003601f168201915b505050505092509450945094509450509193509193565b60065481565b600254600160a060020a031690565b60206040519081016040526000815290565b50805460018160011615610100020316600290046000825580601f106110e157506110ff565b601f0160209004906000526020600020908101906110ff91906111e6565b50565b6080604051908101604052600081526020810161111d6110a9565b815260200161112a6110a9565b8152602001600081525090565b815481835581811511611163576005028160050283600052602060002091820191016111639190611200565b505050565b828054600181600116156101000203166002900490600052602060002090601f016020900481019282601f106111a957805160ff19168380011785556111d6565b828001600101855582156111d6579182015b828111156111d65782518255916020019190600101906111bb565b506111e29291506111e6565b5090565b610ed491905b808211156111e257600081556001016111ec565b610ed491905b808211156111e257805473ffffffffffffffffffffffffffffffffffffffff19168155600061123860018301826110bb565b6112466002830160006110bb565b50600060038201556005016112065600a165627a7a723058208771b6278f32a45c5d802256526cbc9e22e22db405c3f5879bff71f50ae922770029a165627a7a72305820f81ef45d7cf1b3f4ec4be5aeda4a978de8193ec928e10c9ff28c46118c9a58e90029",
          "opcodes": "PUSH1 0x60 PUSH1 0x40 MSTORE CALLVALUE ISZERO PUSH2 0xF JUMPI PUSH1 0x0 DUP1 REVERT JUMPDEST PUSH1 0x0 DUP1 SLOAD PUSH1 0x1 PUSH1 0xA0 PUSH1 0x2 EXP SUB CALLER AND PUSH1 0x1 PUSH1 0xA0 PUSH1 0x2 EXP SUB NOT SWAP1 SWAP2 AND OR SWAP1 SSTORE PUSH2 0x1F30 DUP1 PUSH2 0x3B PUSH1 0x0 CODECOPY PUSH1 0x0 RETURN STOP PUSH1 0x60 PUSH1 0x40 MSTORE CALLDATASIZE ISZERO PUSH2 0xAC JUMPI PUSH4 0xFFFFFFFF PUSH29 0x100000000000000000000000000000000000000000000000000000000 PUSH1 0x0 CALLDATALOAD DIV AND PUSH4 0x163F7522 DUP2 EQ PUSH2 0xB1 JUMPI DUP1 PUSH4 0x22366844 EQ PUSH2 0xF1 JUMPI DUP1 PUSH4 0x40B4BAF9 EQ PUSH2 0x104 JUMPI DUP1 PUSH4 0x481C6A75 EQ PUSH2 0x135 JUMPI DUP1 PUSH4 0x681F3E6D EQ PUSH2 0x171 JUMPI DUP1 PUSH4 0x704F1B94 EQ PUSH2 0x1FB JUMPI DUP1 PUSH4 0x735FE553 EQ PUSH2 0x24C JUMPI DUP1 PUSH4 0x9B124341 EQ PUSH2 0x271 JUMPI DUP1 PUSH4 0x9CD62AA8 EQ PUSH2 0x304 JUMPI DUP1 PUSH4 0xA87430BA EQ PUSH2 0x31A JUMPI DUP1 PUSH4 0xC01C052D EQ PUSH2 0x346 JUMPI JUMPDEST PUSH1 0x0 DUP1 REVERT JUMPDEST CALLVALUE ISZERO PUSH2 0xBC JUMPI PUSH1 0x0 DUP1 REVERT JUMPDEST PUSH2 0xDD PUSH20 0xFFFFFFFFFFFFFFFFFFFFFFFFFFFFFFFFFFFFFFFF PUSH1 0x4 CALLDATALOAD AND PUSH2 0x3AC JUMP JUMPDEST PUSH1 0x40 MLOAD SWAP1 ISZERO ISZERO DUP2 MSTORE PUSH1 0x20 ADD PUSH1 0x40 MLOAD DUP1 SWAP2 SUB SWAP1 RETURN JUMPDEST CALLVALUE ISZERO PUSH2 0xFC JUMPI PUSH1 0x0 DUP1 REVERT JUMPDEST PUSH2 0xDD PUSH2 0x3C1 JUMP JUMPDEST CALLVALUE ISZERO PUSH2 0x10F JUMPI PUSH1 0x0 DUP1 REVERT JUMPDEST PUSH2 0x133 PUSH1 0x4 CALLDATALOAD PUSH20 0xFFFFFFFFFFFFFFFFFFFFFFFFFFFFFFFFFFFFFFFF PUSH1 0x24 CALLDATALOAD AND PUSH2 0x3EE JUMP JUMPDEST STOP JUMPDEST CALLVALUE ISZERO PUSH2 0x140 JUMPI PUSH1 0x0 DUP1 REVERT JUMPDEST PUSH2 0x148 PUSH2 0x486 JUMP JUMPDEST PUSH1 0x40 MLOAD PUSH20 0xFFFFFFFFFFFFFFFFFFFFFFFFFFFFFFFFFFFFFFFF SWAP1 SWAP2 AND DUP2 MSTORE PUSH1 0x20 ADD PUSH1 0x40 MLOAD DUP1 SWAP2 SUB SWAP1 RETURN JUMPDEST CALLVALUE ISZERO PUSH2 0x17C JUMPI PUSH1 0x0 DUP1 REVERT JUMPDEST PUSH2 0x184 PUSH2 0x4A2 JUMP JUMPDEST PUSH1 0x40 MLOAD PUSH1 0x20 DUP1 DUP3 MSTORE DUP2 SWAP1 DUP2 ADD DUP4 DUP2 DUP2 MLOAD DUP2 MSTORE PUSH1 0x20 ADD SWAP2 POP DUP1 MLOAD SWAP1 PUSH1 0x20 ADD SWAP1 DUP1 DUP4 DUP4 PUSH1 0x0 JUMPDEST DUP4 DUP2 LT ISZERO PUSH2 0x1C0 JUMPI DUP1 DUP3 ADD MLOAD DUP4 DUP3 ADD MSTORE PUSH1 0x20 ADD PUSH2 0x1A8 JUMP JUMPDEST POP POP POP POP SWAP1 POP SWAP1 DUP2 ADD SWAP1 PUSH1 0x1F AND DUP1 ISZERO PUSH2 0x1ED JUMPI DUP1 DUP3 SUB DUP1 MLOAD PUSH1 0x1 DUP4 PUSH1 0x20 SUB PUSH2 0x100 EXP SUB NOT AND DUP2 MSTORE PUSH1 0x20 ADD SWAP2 POP JUMPDEST POP SWAP3 POP POP POP PUSH1 0x40 MLOAD DUP1 SWAP2 SUB SWAP1 RETURN JUMPDEST CALLVALUE ISZERO PUSH2 0x206 JUMPI PUSH1 0x0 DUP1 REVERT JUMPDEST PUSH2 0x133 PUSH1 0x4 PUSH1 0x24 DUP2 CALLDATALOAD DUP2 DUP2 ADD SWAP1 DUP4 ADD CALLDATALOAD DUP1 PUSH1 0x20 PUSH1 0x1F DUP3 ADD DUP2 SWAP1 DIV DUP2 MUL ADD PUSH1 0x40 MLOAD SWAP1 DUP2 ADD PUSH1 0x40 MSTORE DUP2 DUP2 MSTORE SWAP3 SWAP2 SWAP1 PUSH1 0x20 DUP5 ADD DUP4 DUP4 DUP1 DUP3 DUP5 CALLDATACOPY POP SWAP5 SWAP7 POP PUSH2 0x5BE SWAP6 POP POP POP POP POP POP JUMP JUMPDEST CALLVALUE ISZERO PUSH2 0x257 JUMPI PUSH1 0x0 DUP1 REVERT JUMPDEST PUSH2 0x25F PUSH2 0x65E JUMP JUMPDEST PUSH1 0x40 MLOAD SWAP1 DUP2 MSTORE PUSH1 0x20 ADD PUSH1 0x40 MLOAD DUP1 SWAP2 SUB SWAP1 RETURN JUMPDEST CALLVALUE ISZERO PUSH2 0x27C JUMPI PUSH1 0x0 DUP1 REVERT JUMPDEST PUSH2 0x133 PUSH1 0x4 PUSH1 0x24 DUP2 CALLDATALOAD DUP2 DUP2 ADD SWAP1 DUP4 ADD CALLDATALOAD DUP1 PUSH1 0x20 PUSH1 0x1F DUP3 ADD DUP2 SWAP1 DIV DUP2 MUL ADD PUSH1 0x40 MLOAD SWAP1 DUP2 ADD PUSH1 0x40 MSTORE DUP2 DUP2 MSTORE SWAP3 SWAP2 SWAP1 PUSH1 0x20 DUP5 ADD DUP4 DUP4 DUP1 DUP3 DUP5 CALLDATACOPY DUP3 ADD SWAP2 POP POP POP POP POP POP SWAP2 SWAP1 DUP1 CALLDATALOAD SWAP1 PUSH1 0x20 ADD SWAP1 DUP3 ADD DUP1 CALLDATALOAD SWAP1 PUSH1 0x20 ADD SWAP1 DUP1 DUP1 PUSH1 0x1F ADD PUSH1 0x20 DUP1 SWAP2 DIV MUL PUSH1 0x20 ADD PUSH1 0x40 MLOAD SWAP1 DUP2 ADD PUSH1 0x40 MSTORE DUP2 DUP2 MSTORE SWAP3 SWAP2 SWAP1 PUSH1 0x20 DUP5 ADD DUP4 DUP4 DUP1 DUP3 DUP5 CALLDATACOPY POP SWAP5 SWAP7 POP PUSH2 0x664 SWAP6 POP POP POP POP POP POP JUMP JUMPDEST CALLVALUE ISZERO PUSH2 0x30F JUMPI PUSH1 0x0 DUP1 REVERT JUMPDEST PUSH2 0x148 PUSH1 0x4 CALLDATALOAD PUSH2 0x8B9 JUMP JUMPDEST CALLVALUE ISZERO PUSH2 0x325 JUMPI PUSH1 0x0 DUP1 REVERT JUMPDEST PUSH2 0x184 PUSH20 0xFFFFFFFFFFFFFFFFFFFFFFFFFFFFFFFFFFFFFFFF PUSH1 0x4 CALLDATALOAD AND PUSH2 0x8EE JUMP JUMPDEST CALLVALUE ISZERO PUSH2 0x351 JUMPI PUSH1 0x0 DUP1 REVERT JUMPDEST PUSH2 0x359 PUSH2 0x99E JUMP JUMPDEST PUSH1 0x40 MLOAD PUSH1 0x20 DUP1 DUP3 MSTORE DUP2 SWAP1 DUP2 ADD DUP4 DUP2 DUP2 MLOAD DUP2 MSTORE PUSH1 0x20 ADD SWAP2 POP DUP1 MLOAD SWAP1 PUSH1 0x20 ADD SWAP1 PUSH1 0x20 MUL DUP1 DUP4 DUP4 PUSH1 0x0 JUMPDEST DUP4 DUP2 LT ISZERO PUSH2 0x398 JUMPI DUP1 DUP3 ADD MLOAD DUP4 DUP3 ADD MSTORE PUSH1 0x20 ADD PUSH2 0x380 JUMP JUMPDEST POP POP POP POP SWAP1 POP ADD SWAP3 POP POP POP PUSH1 0x40 MLOAD DUP1 SWAP2 SUB SWAP1 RETURN JUMPDEST PUSH1 0x1 PUSH1 0x20 MSTORE PUSH1 0x0 SWAP1 DUP2 MSTORE PUSH1 0x40 SWAP1 KECCAK256 SLOAD PUSH1 0xFF AND DUP2 JUMP JUMPDEST PUSH20 0xFFFFFFFFFFFFFFFFFFFFFFFFFFFFFFFFFFFFFFFF CALLER AND PUSH1 0x0 SWAP1 DUP2 MSTORE PUSH1 0x1 PUSH1 0x20 MSTORE PUSH1 0x40 SWAP1 KECCAK256 SLOAD PUSH1 0xFF AND JUMPDEST SWAP1 JUMP JUMPDEST PUSH1 0x0 SLOAD CALLER PUSH20 0xFFFFFFFFFFFFFFFFFFFFFFFFFFFFFFFFFFFFFFFF SWAP1 DUP2 AND SWAP2 AND EQ DUP1 PUSH2 0x443 JUMPI POP DUP1 PUSH20 0xFFFFFFFFFFFFFFFFFFFFFFFFFFFFFFFFFFFFFFFF AND CALLER PUSH20 0xFFFFFFFFFFFFFFFFFFFFFFFFFFFFFFFFFFFFFFFF AND EQ JUMPDEST ISZERO ISZERO PUSH2 0x44E JUMPI PUSH1 0x0 DUP1 REVERT JUMPDEST PUSH1 0x3 DUP1 SLOAD DUP4 SWAP1 DUP2 LT PUSH2 0x45C JUMPI INVALID JUMPDEST PUSH1 0x0 SWAP2 DUP3 MSTORE PUSH1 0x20 SWAP1 SWAP2 KECCAK256 ADD DUP1 SLOAD PUSH20 0xFFFFFFFFFFFFFFFFFFFFFFFFFFFFFFFFFFFFFFFF NOT AND SWAP1 SSTORE POP POP JUMP JUMPDEST PUSH1 0x0 SLOAD PUSH20 0xFFFFFFFFFFFFFFFFFFFFFFFFFFFFFFFFFFFFFFFF AND DUP2 JUMP JUMPDEST PUSH2 0x4AA PUSH2 0xA13 JUMP JUMPDEST CALLER PUSH20 0xFFFFFFFFFFFFFFFFFFFFFFFFFFFFFFFFFFFFFFFF DUP2 AND PUSH1 0x0 SWAP1 DUP2 MSTORE PUSH1 0x1 PUSH1 0x20 MSTORE PUSH1 0x40 SWAP1 KECCAK256 SLOAD PUSH1 0xFF AND ISZERO ISZERO PUSH2 0x4DF JUMPI PUSH1 0x0 DUP1 REVERT JUMPDEST PUSH1 0x2 PUSH1 0x0 DUP3 PUSH20 0xFFFFFFFFFFFFFFFFFFFFFFFFFFFFFFFFFFFFFFFF AND PUSH20 0xFFFFFFFFFFFFFFFFFFFFFFFFFFFFFFFFFFFFFFFF AND DUP2 MSTORE PUSH1 0x20 ADD SWAP1 DUP2 MSTORE PUSH1 0x20 ADD PUSH1 0x0 KECCAK256 DUP1 SLOAD PUSH1 0x1 DUP2 PUSH1 0x1 AND ISZERO PUSH2 0x100 MUL SUB AND PUSH1 0x2 SWAP1 DIV DUP1 PUSH1 0x1F ADD PUSH1 0x20 DUP1 SWAP2 DIV MUL PUSH1 0x20 ADD PUSH1 0x40 MLOAD SWAP1 DUP2 ADD PUSH1 0x40 MSTORE DUP1 SWAP3 SWAP2 SWAP1 DUP2 DUP2 MSTORE PUSH1 0x20 ADD DUP3 DUP1 SLOAD PUSH1 0x1 DUP2 PUSH1 0x1 AND ISZERO PUSH2 0x100 MUL SUB AND PUSH1 0x2 SWAP1 DIV DUP1 ISZERO PUSH2 0x5B2 JUMPI DUP1 PUSH1 0x1F LT PUSH2 0x587 JUMPI PUSH2 0x100 DUP1 DUP4 SLOAD DIV MUL DUP4 MSTORE SWAP2 PUSH1 0x20 ADD SWAP2 PUSH2 0x5B2 JUMP JUMPDEST DUP3 ADD SWAP2 SWAP1 PUSH1 0x0 MSTORE PUSH1 0x20 PUSH1 0x0 KECCAK256 SWAP1 JUMPDEST DUP2 SLOAD DUP2 MSTORE SWAP1 PUSH1 0x1 ADD SWAP1 PUSH1 0x20 ADD DUP1 DUP4 GT PUSH2 0x595 JUMPI DUP3 SWAP1 SUB PUSH1 0x1F AND DUP3 ADD SWAP2 JUMPDEST POP POP POP POP POP SWAP2 POP JUMPDEST POP SWAP1 JUMP JUMPDEST PUSH20 0xFFFFFFFFFFFFFFFFFFFFFFFFFFFFFFFFFFFFFFFF CALLER AND PUSH1 0x0 SWAP1 DUP2 MSTORE PUSH1 0x1 PUSH1 0x20 MSTORE PUSH1 0x40 SWAP1 KECCAK256 SLOAD PUSH1 0xFF AND ISZERO PUSH2 0x5F1 JUMPI PUSH1 0x0 DUP1 REVERT JUMPDEST PUSH20 0xFFFFFFFFFFFFFFFFFFFFFFFFFFFFFFFFFFFFFFFF CALLER AND PUSH1 0x0 SWAP1 DUP2 MSTORE PUSH1 0x2 PUSH1 0x20 MSTORE PUSH1 0x40 SWAP1 KECCAK256 DUP2 DUP1 MLOAD PUSH2 0x627 SWAP3 SWAP2 PUSH1 0x20 ADD SWAP1 PUSH2 0xA25 JUMP JUMPDEST POP POP PUSH20 0xFFFFFFFFFFFFFFFFFFFFFFFFFFFFFFFFFFFFFFFF CALLER AND PUSH1 0x0 SWAP1 DUP2 MSTORE PUSH1 0x1 PUSH1 0x20 DUP2 SWAP1 MSTORE PUSH1 0x40 SWAP1 SWAP2 KECCAK256 DUP1 SLOAD PUSH1 0xFF NOT AND SWAP1 SWAP2 OR SWAP1 SSTORE JUMP JUMPDEST PUSH1 0x3 SLOAD SWAP1 JUMP JUMPDEST PUSH20 0xFFFFFFFFFFFFFFFFFFFFFFFFFFFFFFFFFFFFFFFF CALLER AND PUSH1 0x0 SWAP1 DUP2 MSTORE PUSH1 0x1 PUSH1 0x20 MSTORE PUSH1 0x40 DUP2 KECCAK256 SLOAD PUSH1 0xFF AND ISZERO ISZERO PUSH2 0x698 JUMPI PUSH1 0x0 DUP1 REVERT JUMPDEST CALLER PUSH20 0xFFFFFFFFFFFFFFFFFFFFFFFFFFFFFFFFFFFFFFFF DUP2 DUP2 AND PUSH1 0x0 SWAP1 DUP2 MSTORE PUSH1 0x2 PUSH1 0x20 MSTORE PUSH1 0x40 DUP2 KECCAK256 SWAP1 SLOAD DUP7 SWAP3 DUP7 SWAP3 SWAP2 AND PUSH2 0x6CF PUSH2 0xA9F JUMP JUMPDEST PUSH20 0xFFFFFFFFFFFFFFFFFFFFFFFFFFFFFFFFFFFFFFFF DUP1 DUP8 AND DUP3 MSTORE DUP3 AND PUSH1 0x80 DUP3 ADD MSTORE PUSH1 0xA0 PUSH1 0x20 DUP3 ADD DUP2 DUP2 MSTORE SWAP1 PUSH1 0x40 DUP4 ADD SWAP1 PUSH1 0x60 DUP5 ADD SWAP1 DUP5 ADD DUP9 DUP2 DUP2 MLOAD DUP2 MSTORE PUSH1 0x20 ADD SWAP2 POP DUP1 MLOAD SWAP1 PUSH1 0x20 ADD SWAP1 DUP1 DUP4 DUP4 PUSH1 0x0 JUMPDEST DUP4 DUP2 LT ISZERO PUSH2 0x736 JUMPI DUP1 DUP3 ADD MLOAD DUP4 DUP3 ADD MSTORE PUSH1 0x20 ADD PUSH2 0x71E JUMP JUMPDEST POP POP POP POP SWAP1 POP SWAP1 DUP2 ADD SWAP1 PUSH1 0x1F AND DUP1 ISZERO PUSH2 0x763 JUMPI DUP1 DUP3 SUB DUP1 MLOAD PUSH1 0x1 DUP4 PUSH1 0x20 SUB PUSH2 0x100 EXP SUB NOT AND DUP2 MSTORE PUSH1 0x20 ADD SWAP2 POP JUMPDEST POP DUP5 DUP2 SUB DUP4 MSTORE DUP8 DUP2 DUP2 MLOAD DUP2 MSTORE PUSH1 0x20 ADD SWAP2 POP DUP1 MLOAD SWAP1 PUSH1 0x20 ADD SWAP1 DUP1 DUP4 DUP4 PUSH1 0x0 JUMPDEST DUP4 DUP2 LT ISZERO PUSH2 0x799 JUMPI DUP1 DUP3 ADD MLOAD DUP4 DUP3 ADD MSTORE PUSH1 0x20 ADD PUSH2 0x781 JUMP JUMPDEST POP POP POP POP SWAP1 POP SWAP1 DUP2 ADD SWAP1 PUSH1 0x1F AND DUP1 ISZERO PUSH2 0x7C6 JUMPI DUP1 DUP3 SUB DUP1 MLOAD PUSH1 0x1 DUP4 PUSH1 0x20 SUB PUSH2 0x100 EXP SUB NOT AND DUP2 MSTORE PUSH1 0x20 ADD SWAP2 POP JUMPDEST POP DUP5 DUP2 SUB DUP3 MSTORE DUP7 SLOAD PUSH1 0x2 PUSH1 0x0 NOT PUSH2 0x100 PUSH1 0x1 DUP5 AND ISZERO MUL ADD SWAP1 SWAP2 AND DIV DUP1 DUP3 MSTORE PUSH1 0x20 SWAP1 SWAP2 ADD SWAP1 DUP8 SWAP1 DUP1 ISZERO PUSH2 0x839 JUMPI DUP1 PUSH1 0x1F LT PUSH2 0x80E JUMPI PUSH2 0x100 DUP1 DUP4 SLOAD DIV MUL DUP4 MSTORE SWAP2 PUSH1 0x20 ADD SWAP2 PUSH2 0x839 JUMP JUMPDEST DUP3 ADD SWAP2 SWAP1 PUSH1 0x0 MSTORE PUSH1 0x20 PUSH1 0x0 KECCAK256 SWAP1 JUMPDEST DUP2 SLOAD DUP2 MSTORE SWAP1 PUSH1 0x1 ADD SWAP1 PUSH1 0x20 ADD DUP1 DUP4 GT PUSH2 0x81C JUMPI DUP3 SWAP1 SUB PUSH1 0x1F AND DUP3 ADD SWAP2 JUMPDEST POP POP SWAP9 POP POP POP POP POP POP POP POP POP PUSH1 0x40 MLOAD DUP1 SWAP2 SUB SWAP1 PUSH1 0x0 CREATE DUP1 ISZERO ISZERO PUSH2 0x85B JUMPI PUSH1 0x0 DUP1 REVERT JUMPDEST SWAP1 POP PUSH1 0x3 DUP1 SLOAD DUP1 PUSH1 0x1 ADD DUP3 DUP2 PUSH2 0x871 SWAP2 SWAP1 PUSH2 0xAAF JUMP JUMPDEST POP PUSH1 0x0 SWAP2 DUP3 MSTORE PUSH1 0x20 SWAP1 SWAP2 KECCAK256 ADD DUP1 SLOAD PUSH20 0xFFFFFFFFFFFFFFFFFFFFFFFFFFFFFFFFFFFFFFFF NOT AND PUSH20 0xFFFFFFFFFFFFFFFFFFFFFFFFFFFFFFFFFFFFFFFF SWAP3 SWAP1 SWAP3 AND SWAP2 SWAP1 SWAP2 OR SWAP1 SSTORE POP POP JUMP JUMPDEST PUSH1 0x3 DUP1 SLOAD DUP3 SWAP1 DUP2 LT PUSH2 0x8C7 JUMPI INVALID JUMPDEST PUSH1 0x0 SWAP2 DUP3 MSTORE PUSH1 0x20 SWAP1 SWAP2 KECCAK256 ADD SLOAD PUSH20 0xFFFFFFFFFFFFFFFFFFFFFFFFFFFFFFFFFFFFFFFF AND SWAP1 POP DUP2 JUMP JUMPDEST PUSH1 0x2 PUSH1 0x20 MSTORE DUP1 PUSH1 0x0 MSTORE PUSH1 0x40 PUSH1 0x0 KECCAK256 PUSH1 0x0 SWAP2 POP SWAP1 POP DUP1 SLOAD PUSH1 0x1 DUP2 PUSH1 0x1 AND ISZERO PUSH2 0x100 MUL SUB AND PUSH1 0x2 SWAP1 DIV DUP1 PUSH1 0x1F ADD PUSH1 0x20 DUP1 SWAP2 DIV MUL PUSH1 0x20 ADD PUSH1 0x40 MLOAD SWAP1 DUP2 ADD PUSH1 0x40 MSTORE DUP1 SWAP3 SWAP2 SWAP1 DUP2 DUP2 MSTORE PUSH1 0x20 ADD DUP3 DUP1 SLOAD PUSH1 0x1 DUP2 PUSH1 0x1 AND ISZERO PUSH2 0x100 MUL SUB AND PUSH1 0x2 SWAP1 DIV DUP1 ISZERO PUSH2 0x996 JUMPI DUP1 PUSH1 0x1F LT PUSH2 0x96B JUMPI PUSH2 0x100 DUP1 DUP4 SLOAD DIV MUL DUP4 MSTORE SWAP2 PUSH1 0x20 ADD SWAP2 PUSH2 0x996 JUMP JUMPDEST DUP3 ADD SWAP2 SWAP1 PUSH1 0x0 MSTORE PUSH1 0x20 PUSH1 0x0 KECCAK256 SWAP1 JUMPDEST DUP2 SLOAD DUP2 MSTORE SWAP1 PUSH1 0x1 ADD SWAP1 PUSH1 0x20 ADD DUP1 DUP4 GT PUSH2 0x979 JUMPI DUP3 SWAP1 SUB PUSH1 0x1F AND DUP3 ADD SWAP2 JUMPDEST POP POP POP POP POP DUP2 JUMP JUMPDEST PUSH2 0x9A6 PUSH2 0xA13 JUMP JUMPDEST PUSH1 0x3 DUP1 SLOAD DUP1 PUSH1 0x20 MUL PUSH1 0x20 ADD PUSH1 0x40 MLOAD SWAP1 DUP2 ADD PUSH1 0x40 MSTORE DUP1 SWAP3 SWAP2 SWAP1 DUP2 DUP2 MSTORE PUSH1 0x20 ADD DUP3 DUP1 SLOAD DUP1 ISZERO PUSH2 0xA09 JUMPI PUSH1 0x20 MUL DUP3 ADD SWAP2 SWAP1 PUSH1 0x0 MSTORE PUSH1 0x20 PUSH1 0x0 KECCAK256 SWAP1 JUMPDEST DUP2 SLOAD PUSH20 0xFFFFFFFFFFFFFFFFFFFFFFFFFFFFFFFFFFFFFFFF AND DUP2 MSTORE PUSH1 0x1 SWAP1 SWAP2 ADD SWAP1 PUSH1 0x20 ADD DUP1 DUP4 GT PUSH2 0x9DE JUMPI JUMPDEST POP POP POP POP POP SWAP1 POP SWAP1 JUMP JUMPDEST PUSH1 0x20 PUSH1 0x40 MLOAD SWAP1 DUP2 ADD PUSH1 0x40 MSTORE PUSH1 0x0 DUP2 MSTORE SWAP1 JUMP JUMPDEST DUP3 DUP1 SLOAD PUSH1 0x1 DUP2 PUSH1 0x1 AND ISZERO PUSH2 0x100 MUL SUB AND PUSH1 0x2 SWAP1 DIV SWAP1 PUSH1 0x0 MSTORE PUSH1 0x20 PUSH1 0x0 KECCAK256 SWAP1 PUSH1 0x1F ADD PUSH1 0x20 SWAP1 DIV DUP2 ADD SWAP3 DUP3 PUSH1 0x1F LT PUSH2 0xA66 JUMPI DUP1 MLOAD PUSH1 0xFF NOT AND DUP4 DUP1 ADD OR DUP6 SSTORE PUSH2 0xA93 JUMP JUMPDEST DUP3 DUP1 ADD PUSH1 0x1 ADD DUP6 SSTORE DUP3 ISZERO PUSH2 0xA93 JUMPI SWAP2 DUP3 ADD JUMPDEST DUP3 DUP2 GT ISZERO PUSH2 0xA93 JUMPI DUP3 MLOAD DUP3 SSTORE SWAP2 PUSH1 0x20 ADD SWAP2 SWAP1 PUSH1 0x1 ADD SWAP1 PUSH2 0xA78 JUMP JUMPDEST POP PUSH2 0x5BA SWAP3 SWAP2 POP PUSH2 0xAD8 JUMP JUMPDEST PUSH1 0x40 MLOAD PUSH2 0x1412 DUP1 PUSH2 0xAF3 DUP4 CODECOPY ADD SWAP1 JUMP JUMPDEST DUP2 SLOAD DUP2 DUP4 SSTORE DUP2 DUP2 ISZERO GT PUSH2 0xAD3 JUMPI PUSH1 0x0 DUP4 DUP2 MSTORE PUSH1 0x20 SWAP1 KECCAK256 PUSH2 0xAD3 SWAP2 DUP2 ADD SWAP1 DUP4 ADD PUSH2 0xAD8 JUMP JUMPDEST POP POP POP JUMP JUMPDEST PUSH2 0x3EB SWAP2 SWAP1 JUMPDEST DUP1 DUP3 GT ISZERO PUSH2 0x5BA JUMPI PUSH1 0x0 DUP2 SSTORE PUSH1 0x1 ADD PUSH2 0xADE JUMP STOP PUSH1 0x60 PUSH1 0x40 MSTORE CALLVALUE ISZERO PUSH3 0x10 JUMPI PUSH1 0x0 DUP1 REVERT JUMPDEST PUSH1 0x40 MLOAD PUSH3 0x1412 CODESIZE SUB DUP1 PUSH3 0x1412 DUP4 CODECOPY DUP2 ADD PUSH1 0x40 MSTORE DUP1 DUP1 MLOAD SWAP2 SWAP1 PUSH1 0x20 ADD DUP1 MLOAD DUP3 ADD SWAP2 SWAP1 PUSH1 0x20 ADD DUP1 MLOAD DUP3 ADD SWAP2 SWAP1 PUSH1 0x20 ADD DUP1 MLOAD DUP3 ADD SWAP2 SWAP1 PUSH1 0x20 ADD DUP1 MLOAD PUSH1 0x2 DUP1 SLOAD PUSH1 0x1 PUSH1 0xA0 PUSH1 0x2 EXP SUB NOT AND PUSH1 0x1 PUSH1 0xA0 PUSH1 0x2 EXP SUB DUP10 AND OR SWAP1 SSTORE SWAP2 POP PUSH1 0x4 SWAP1 POP DUP5 DUP1 MLOAD PUSH3 0x7E SWAP3 SWAP2 PUSH1 0x20 ADD SWAP1 PUSH3 0xDB JUMP JUMPDEST POP PUSH1 0x5 DUP4 DUP1 MLOAD PUSH3 0x94 SWAP3 SWAP2 PUSH1 0x20 ADD SWAP1 PUSH3 0xDB JUMP JUMPDEST POP PUSH1 0x0 PUSH1 0x6 SSTORE PUSH1 0x3 DUP3 DUP1 MLOAD PUSH3 0xAF SWAP3 SWAP2 PUSH1 0x20 ADD SWAP1 PUSH3 0xDB JUMP JUMPDEST POP PUSH1 0x1 DUP1 SLOAD PUSH1 0x1 PUSH1 0xA0 PUSH1 0x2 EXP SUB NOT AND PUSH1 0x1 PUSH1 0xA0 PUSH1 0x2 EXP SUB SWAP3 SWAP1 SWAP3 AND SWAP2 SWAP1 SWAP2 OR SWAP1 SSTORE POP PUSH3 0x180 SWAP3 POP POP POP JUMP JUMPDEST DUP3 DUP1 SLOAD PUSH1 0x1 DUP2 PUSH1 0x1 AND ISZERO PUSH2 0x100 MUL SUB AND PUSH1 0x2 SWAP1 DIV SWAP1 PUSH1 0x0 MSTORE PUSH1 0x20 PUSH1 0x0 KECCAK256 SWAP1 PUSH1 0x1F ADD PUSH1 0x20 SWAP1 DIV DUP2 ADD SWAP3 DUP3 PUSH1 0x1F LT PUSH3 0x11E JUMPI DUP1 MLOAD PUSH1 0xFF NOT AND DUP4 DUP1 ADD OR DUP6 SSTORE PUSH3 0x14E JUMP JUMPDEST DUP3 DUP1 ADD PUSH1 0x1 ADD DUP6 SSTORE DUP3 ISZERO PUSH3 0x14E JUMPI SWAP2 DUP3 ADD JUMPDEST DUP3 DUP2 GT ISZERO PUSH3 0x14E JUMPI DUP3 MLOAD DUP3 SSTORE SWAP2 PUSH1 0x20 ADD SWAP2 SWAP1 PUSH1 0x1 ADD SWAP1 PUSH3 0x131 JUMP JUMPDEST POP PUSH3 0x15C SWAP3 SWAP2 POP PUSH3 0x160 JUMP JUMPDEST POP SWAP1 JUMP JUMPDEST PUSH3 0x17D SWAP2 SWAP1 JUMPDEST DUP1 DUP3 GT ISZERO PUSH3 0x15C JUMPI PUSH1 0x0 DUP2 SSTORE PUSH1 0x1 ADD PUSH3 0x167 JUMP JUMPDEST SWAP1 JUMP JUMPDEST PUSH2 0x1282 DUP1 PUSH3 0x190 PUSH1 0x0 CODECOPY PUSH1 0x0 RETURN STOP PUSH1 0x60 PUSH1 0x40 MSTORE CALLDATASIZE ISZERO PUSH2 0xF9 JUMPI PUSH4 0xFFFFFFFF PUSH29 0x100000000000000000000000000000000000000000000000000000000 PUSH1 0x0 CALLDATALOAD DIV AND PUSH4 0x114B9D1 DUP2 EQ PUSH2 0xFE JUMPI DUP1 PUSH4 0x2D05D3F EQ PUSH2 0x116 JUMPI DUP1 PUSH4 0x32B5A73 EQ PUSH2 0x145 JUMPI DUP1 PUSH4 0x6782C87 EQ PUSH2 0x158 JUMPI DUP1 PUSH4 0xBFB7DE9 EQ PUSH2 0x18B JUMPI DUP1 PUSH4 0x364497E4 EQ PUSH2 0x19E JUMPI DUP1 PUSH4 0x443FB57E EQ PUSH2 0x228 JUMPI DUP1 PUSH4 0x4A79D50C EQ PUSH2 0x39E JUMPI DUP1 PUSH4 0x61FAC54D EQ PUSH2 0x3B1 JUMPI DUP1 PUSH4 0x69A060CF EQ PUSH2 0x3C4 JUMPI DUP1 PUSH4 0x8B47462C EQ PUSH2 0x3E6 JUMPI DUP1 PUSH4 0x8EBB4C15 EQ PUSH2 0x408 JUMPI DUP1 PUSH4 0xA1EDEE49 EQ PUSH2 0x539 JUMPI DUP1 PUSH4 0xA3EC138D EQ PUSH2 0x5CC JUMPI DUP1 PUSH4 0xC1C1066B EQ PUSH2 0x5EB JUMPI DUP1 PUSH4 0xC8DE7279 EQ PUSH2 0x610 JUMPI DUP1 PUSH4 0xE168C3EC EQ PUSH2 0x718 JUMPI DUP1 PUSH4 0xF5B5709B EQ PUSH2 0x72B JUMPI JUMPDEST PUSH1 0x0 DUP1 REVERT JUMPDEST CALLVALUE ISZERO PUSH2 0x109 JUMPI PUSH1 0x0 DUP1 REVERT JUMPDEST PUSH2 0x114 PUSH1 0x4 CALLDATALOAD PUSH2 0x73E JUMP JUMPDEST STOP JUMPDEST CALLVALUE ISZERO PUSH2 0x121 JUMPI PUSH1 0x0 DUP1 REVERT JUMPDEST PUSH2 0x129 PUSH2 0x823 JUMP JUMPDEST PUSH1 0x40 MLOAD PUSH1 0x1 PUSH1 0xA0 PUSH1 0x2 EXP SUB SWAP1 SWAP2 AND DUP2 MSTORE PUSH1 0x20 ADD PUSH1 0x40 MLOAD DUP1 SWAP2 SUB SWAP1 RETURN JUMPDEST CALLVALUE ISZERO PUSH2 0x150 JUMPI PUSH1 0x0 DUP1 REVERT JUMPDEST PUSH2 0x129 PUSH2 0x832 JUMP JUMPDEST CALLVALUE ISZERO PUSH2 0x163 JUMPI PUSH1 0x0 DUP1 REVERT JUMPDEST PUSH2 0x177 PUSH1 0x1 PUSH1 0xA0 PUSH1 0x2 EXP SUB PUSH1 0x4 CALLDATALOAD AND PUSH2 0x841 JUMP JUMPDEST PUSH1 0x40 MLOAD SWAP1 ISZERO ISZERO DUP2 MSTORE PUSH1 0x20 ADD PUSH1 0x40 MLOAD DUP1 SWAP2 SUB SWAP1 RETURN JUMPDEST CALLVALUE ISZERO PUSH2 0x196 JUMPI PUSH1 0x0 DUP1 REVERT JUMPDEST PUSH2 0x114 PUSH2 0x85F JUMP JUMPDEST CALLVALUE ISZERO PUSH2 0x1A9 JUMPI PUSH1 0x0 DUP1 REVERT JUMPDEST PUSH2 0x1B1 PUSH2 0x913 JUMP JUMPDEST PUSH1 0x40 MLOAD PUSH1 0x20 DUP1 DUP3 MSTORE DUP2 SWAP1 DUP2 ADD DUP4 DUP2 DUP2 MLOAD DUP2 MSTORE PUSH1 0x20 ADD SWAP2 POP DUP1 MLOAD SWAP1 PUSH1 0x20 ADD SWAP1 DUP1 DUP4 DUP4 PUSH1 0x0 JUMPDEST DUP4 DUP2 LT ISZERO PUSH2 0x1ED JUMPI DUP1 DUP3 ADD MLOAD DUP4 DUP3 ADD MSTORE PUSH1 0x20 ADD PUSH2 0x1D5 JUMP JUMPDEST POP POP POP POP SWAP1 POP SWAP1 DUP2 ADD SWAP1 PUSH1 0x1F AND DUP1 ISZERO PUSH2 0x21A JUMPI DUP1 DUP3 SUB DUP1 MLOAD PUSH1 0x1 DUP4 PUSH1 0x20 SUB PUSH2 0x100 EXP SUB NOT AND DUP2 MSTORE PUSH1 0x20 ADD SWAP2 POP JUMPDEST POP SWAP3 POP POP POP PUSH1 0x40 MLOAD DUP1 SWAP2 SUB SWAP1 RETURN JUMPDEST CALLVALUE ISZERO PUSH2 0x233 JUMPI PUSH1 0x0 DUP1 REVERT JUMPDEST PUSH2 0x23B PUSH2 0x9B1 JUMP JUMPDEST PUSH1 0x40 MLOAD DUP1 DUP1 PUSH1 0x20 ADD DUP1 PUSH1 0x20 ADD DUP1 PUSH1 0x20 ADD DUP8 DUP2 MSTORE PUSH1 0x20 ADD DUP7 DUP2 MSTORE PUSH1 0x20 ADD DUP6 ISZERO ISZERO ISZERO ISZERO DUP2 MSTORE PUSH1 0x20 ADD DUP5 DUP2 SUB DUP5 MSTORE DUP11 DUP2 DUP2 MLOAD DUP2 MSTORE PUSH1 0x20 ADD SWAP2 POP DUP1 MLOAD SWAP1 PUSH1 0x20 ADD SWAP1 DUP1 DUP4 DUP4 PUSH1 0x0 JUMPDEST DUP4 DUP2 LT ISZERO PUSH2 0x296 JUMPI DUP1 DUP3 ADD MLOAD DUP4 DUP3 ADD MSTORE PUSH1 0x20 ADD PUSH2 0x27E JUMP JUMPDEST POP POP POP POP SWAP1 POP SWAP1 DUP2 ADD SWAP1 PUSH1 0x1F AND DUP1 ISZERO PUSH2 0x2C3 JUMPI DUP1 DUP3 SUB DUP1 MLOAD PUSH1 0x1 DUP4 PUSH1 0x20 SUB PUSH2 0x100 EXP SUB NOT AND DUP2 MSTORE PUSH1 0x20 ADD SWAP2 POP JUMPDEST POP DUP5 DUP2 SUB DUP4 MSTORE DUP10 DUP2 DUP2 MLOAD DUP2 MSTORE PUSH1 0x20 ADD SWAP2 POP DUP1 MLOAD SWAP1 PUSH1 0x20 ADD SWAP1 DUP1 DUP4 DUP4 PUSH1 0x0 JUMPDEST DUP4 DUP2 LT ISZERO PUSH2 0x2F9 JUMPI DUP1 DUP3 ADD MLOAD DUP4 DUP3 ADD MSTORE PUSH1 0x20 ADD PUSH2 0x2E1 JUMP JUMPDEST POP POP POP POP SWAP1 POP SWAP1 DUP2 ADD SWAP1 PUSH1 0x1F AND DUP1 ISZERO PUSH2 0x326 JUMPI DUP1 DUP3 SUB DUP1 MLOAD PUSH1 0x1 DUP4 PUSH1 0x20 SUB PUSH2 0x100 EXP SUB NOT AND DUP2 MSTORE PUSH1 0x20 ADD SWAP2 POP JUMPDEST POP DUP5 DUP2 SUB DUP3 MSTORE DUP9 DUP2 DUP2 MLOAD DUP2 MSTORE PUSH1 0x20 ADD SWAP2 POP DUP1 MLOAD SWAP1 PUSH1 0x20 ADD SWAP1 DUP1 DUP4 DUP4 PUSH1 0x0 JUMPDEST DUP4 DUP2 LT ISZERO PUSH2 0x35C JUMPI DUP1 DUP3 ADD MLOAD DUP4 DUP3 ADD MSTORE PUSH1 0x20 ADD PUSH2 0x344 JUMP JUMPDEST POP POP POP POP SWAP1 POP SWAP1 DUP2 ADD SWAP1 PUSH1 0x1F AND DUP1 ISZERO PUSH2 0x389 JUMPI DUP1 DUP3 SUB DUP1 MLOAD PUSH1 0x1 DUP4 PUSH1 0x20 SUB PUSH2 0x100 EXP SUB NOT AND DUP2 MSTORE PUSH1 0x20 ADD SWAP2 POP JUMPDEST POP SWAP10 POP POP POP POP POP POP POP POP POP POP PUSH1 0x40 MLOAD DUP1 SWAP2 SUB SWAP1 RETURN JUMPDEST CALLVALUE ISZERO PUSH2 0x3A9 JUMPI PUSH1 0x0 DUP1 REVERT JUMPDEST PUSH2 0x1B1 PUSH2 0xBF8 JUMP JUMPDEST CALLVALUE ISZERO PUSH2 0x3BC JUMPI PUSH1 0x0 DUP1 REVERT JUMPDEST PUSH2 0x1B1 PUSH2 0xC63 JUMP JUMPDEST CALLVALUE ISZERO PUSH2 0x3CF JUMPI PUSH1 0x0 DUP1 REVERT JUMPDEST PUSH2 0x177 PUSH1 0x4 CALLDATALOAD PUSH1 0x1 PUSH1 0xA0 PUSH1 0x2 EXP SUB PUSH1 0x24 CALLDATALOAD AND PUSH2 0xCCE JUMP JUMPDEST CALLVALUE ISZERO PUSH2 0x3F1 JUMPI PUSH1 0x0 DUP1 REVERT JUMPDEST PUSH2 0x114 PUSH1 0x4 CALLDATALOAD PUSH1 0x1 PUSH1 0xA0 PUSH1 0x2 EXP SUB PUSH1 0x24 CALLDATALOAD AND PUSH2 0xD16 JUMP JUMPDEST CALLVALUE ISZERO PUSH2 0x413 JUMPI PUSH1 0x0 DUP1 REVERT JUMPDEST PUSH2 0x41E PUSH1 0x4 CALLDATALOAD PUSH2 0xDB1 JUMP JUMPDEST PUSH1 0x40 MLOAD PUSH1 0x1 PUSH1 0xA0 PUSH1 0x2 EXP SUB DUP6 AND DUP2 MSTORE PUSH1 0x60 DUP2 ADD DUP3 SWAP1 MSTORE PUSH1 0x80 PUSH1 0x20 DUP3 ADD DUP2 DUP2 MSTORE DUP6 SLOAD PUSH1 0x2 PUSH1 0x0 NOT PUSH2 0x100 PUSH1 0x1 DUP5 AND ISZERO MUL ADD SWAP1 SWAP2 AND DIV SWAP2 DUP4 ADD DUP3 SWAP1 MSTORE SWAP1 PUSH1 0x40 DUP4 ADD SWAP1 PUSH1 0xA0 DUP5 ADD SWAP1 DUP8 SWAP1 DUP1 ISZERO PUSH2 0x4B2 JUMPI DUP1 PUSH1 0x1F LT PUSH2 0x487 JUMPI PUSH2 0x100 DUP1 DUP4 SLOAD DIV MUL DUP4 MSTORE SWAP2 PUSH1 0x20 ADD SWAP2 PUSH2 0x4B2 JUMP JUMPDEST DUP3 ADD SWAP2 SWAP1 PUSH1 0x0 MSTORE PUSH1 0x20 PUSH1 0x0 KECCAK256 SWAP1 JUMPDEST DUP2 SLOAD DUP2 MSTORE SWAP1 PUSH1 0x1 ADD SWAP1 PUSH1 0x20 ADD DUP1 DUP4 GT PUSH2 0x495 JUMPI DUP3 SWAP1 SUB PUSH1 0x1F AND DUP3 ADD SWAP2 JUMPDEST POP POP DUP4 DUP2 SUB DUP3 MSTORE DUP6 SLOAD PUSH1 0x2 PUSH1 0x0 NOT PUSH2 0x100 PUSH1 0x1 DUP5 AND ISZERO MUL ADD SWAP1 SWAP2 AND DIV DUP1 DUP3 MSTORE PUSH1 0x20 SWAP1 SWAP2 ADD SWAP1 DUP7 SWAP1 DUP1 ISZERO PUSH2 0x526 JUMPI DUP1 PUSH1 0x1F LT PUSH2 0x4FB JUMPI PUSH2 0x100 DUP1 DUP4 SLOAD DIV MUL DUP4 MSTORE SWAP2 PUSH1 0x20 ADD SWAP2 PUSH2 0x526 JUMP JUMPDEST DUP3 ADD SWAP2 SWAP1 PUSH1 0x0 MSTORE PUSH1 0x20 PUSH1 0x0 KECCAK256 SWAP1 JUMPDEST DUP2 SLOAD DUP2 MSTORE SWAP1 PUSH1 0x1 ADD SWAP1 PUSH1 0x20 ADD DUP1 DUP4 GT PUSH2 0x509 JUMPI DUP3 SWAP1 SUB PUSH1 0x1F AND DUP3 ADD SWAP2 JUMPDEST POP POP SWAP7 POP POP POP POP POP POP POP PUSH1 0x40 MLOAD DUP1 SWAP2 SUB SWAP1 RETURN JUMPDEST CALLVALUE ISZERO PUSH2 0x544 JUMPI PUSH1 0x0 DUP1 REVERT JUMPDEST PUSH2 0x114 PUSH1 0x4 PUSH1 0x24 DUP2 CALLDATALOAD DUP2 DUP2 ADD SWAP1 DUP4 ADD CALLDATALOAD DUP1 PUSH1 0x20 PUSH1 0x1F DUP3 ADD DUP2 SWAP1 DIV DUP2 MUL ADD PUSH1 0x40 MLOAD SWAP1 DUP2 ADD PUSH1 0x40 MSTORE DUP2 DUP2 MSTORE SWAP3 SWAP2 SWAP1 PUSH1 0x20 DUP5 ADD DUP4 DUP4 DUP1 DUP3 DUP5 CALLDATACOPY DUP3 ADD SWAP2 POP POP POP POP POP POP SWAP2 SWAP1 DUP1 CALLDATALOAD SWAP1 PUSH1 0x20 ADD SWAP1 DUP3 ADD DUP1 CALLDATALOAD SWAP1 PUSH1 0x20 ADD SWAP1 DUP1 DUP1 PUSH1 0x1F ADD PUSH1 0x20 DUP1 SWAP2 DIV MUL PUSH1 0x20 ADD PUSH1 0x40 MLOAD SWAP1 DUP2 ADD PUSH1 0x40 MSTORE DUP2 DUP2 MSTORE SWAP3 SWAP2 SWAP1 PUSH1 0x20 DUP5 ADD DUP4 DUP4 DUP1 DUP3 DUP5 CALLDATACOPY POP SWAP5 SWAP7 POP PUSH2 0xDEF SWAP6 POP POP POP POP POP POP JUMP JUMPDEST CALLVALUE ISZERO PUSH2 0x5D7 JUMPI PUSH1 0x0 DUP1 REVERT JUMPDEST PUSH2 0x177 PUSH1 0x1 PUSH1 0xA0 PUSH1 0x2 EXP SUB PUSH1 0x4 CALLDATALOAD AND PUSH2 0xEBB JUMP JUMPDEST CALLVALUE ISZERO PUSH2 0x5F6 JUMPI PUSH1 0x0 DUP1 REVERT JUMPDEST PUSH2 0x5FE PUSH2 0xED0 JUMP JUMPDEST PUSH1 0x40 MLOAD SWAP1 DUP2 MSTORE PUSH1 0x20 ADD PUSH1 0x40 MLOAD DUP1 SWAP2 SUB SWAP1 RETURN JUMPDEST CALLVALUE ISZERO PUSH2 0x61B JUMPI PUSH1 0x0 DUP1 REVERT JUMPDEST PUSH2 0x626 PUSH1 0x4 CALLDATALOAD PUSH2 0xED7 JUMP JUMPDEST PUSH1 0x40 MLOAD PUSH1 0x40 DUP2 ADD DUP4 SWAP1 MSTORE DUP2 ISZERO ISZERO PUSH1 0x60 DUP3 ADD MSTORE PUSH1 0x80 DUP1 DUP3 MSTORE DUP2 SWAP1 PUSH1 0x20 DUP3 ADD SWAP1 DUP3 ADD DUP8 DUP2 DUP2 MLOAD DUP2 MSTORE PUSH1 0x20 ADD SWAP2 POP DUP1 MLOAD SWAP1 PUSH1 0x20 ADD SWAP1 DUP1 DUP4 DUP4 PUSH1 0x0 JUMPDEST DUP4 DUP2 LT ISZERO PUSH2 0x676 JUMPI DUP1 DUP3 ADD MLOAD DUP4 DUP3 ADD MSTORE PUSH1 0x20 ADD PUSH2 0x65E JUMP JUMPDEST POP POP POP POP SWAP1 POP SWAP1 DUP2 ADD SWAP1 PUSH1 0x1F AND DUP1 ISZERO PUSH2 0x6A3 JUMPI DUP1 DUP3 SUB DUP1 MLOAD PUSH1 0x1 DUP4 PUSH1 0x20 SUB PUSH2 0x100 EXP SUB NOT AND DUP2 MSTORE PUSH1 0x20 ADD SWAP2 POP JUMPDEST POP DUP4 DUP2 SUB DUP3 MSTORE DUP7 DUP2 DUP2 MLOAD DUP2 MSTORE PUSH1 0x20 ADD SWAP2 POP DUP1 MLOAD SWAP1 PUSH1 0x20 ADD SWAP1 DUP1 DUP4 DUP4 PUSH1 0x0 JUMPDEST DUP4 DUP2 LT ISZERO PUSH2 0x6D9 JUMPI DUP1 DUP3 ADD MLOAD DUP4 DUP3 ADD MSTORE PUSH1 0x20 ADD PUSH2 0x6C1 JUMP JUMPDEST POP POP POP POP SWAP1 POP SWAP1 DUP2 ADD SWAP1 PUSH1 0x1F AND DUP1 ISZERO PUSH2 0x706 JUMPI DUP1 DUP3 SUB DUP1 MLOAD PUSH1 0x1 DUP4 PUSH1 0x20 SUB PUSH2 0x100 EXP SUB NOT AND DUP2 MSTORE PUSH1 0x20 ADD SWAP2 POP JUMPDEST POP SWAP7 POP POP POP POP POP POP POP PUSH1 0x40 MLOAD DUP1 SWAP2 SUB SWAP1 RETURN JUMPDEST CALLVALUE ISZERO PUSH2 0x723 JUMPI PUSH1 0x0 DUP1 REVERT JUMPDEST PUSH2 0x5FE PUSH2 0x1094 JUMP JUMPDEST CALLVALUE ISZERO PUSH2 0x736 JUMPI PUSH1 0x0 DUP1 REVERT JUMPDEST PUSH2 0x129 PUSH2 0x109A JUMP JUMPDEST PUSH1 0x0 DUP1 DUP3 DUP2 SLOAD DUP2 LT ISZERO ISZERO PUSH2 0x74E JUMPI INVALID JUMPDEST PUSH1 0x0 SWAP2 DUP3 MSTORE PUSH1 0x20 DUP1 DUP4 KECCAK256 PUSH1 0x1 PUSH1 0xA0 PUSH1 0x2 EXP SUB CALLER AND DUP5 MSTORE PUSH1 0x4 PUSH1 0x5 SWAP1 SWAP4 MUL ADD SWAP2 DUP3 ADD SWAP1 MSTORE PUSH1 0x40 SWAP1 SWAP2 KECCAK256 SLOAD SWAP1 SWAP2 POP PUSH1 0xFF AND ISZERO ISZERO PUSH2 0x7BB JUMPI PUSH1 0x3 DUP2 ADD DUP1 SLOAD PUSH1 0x1 SWAP1 DUP2 ADD SWAP1 SWAP2 SSTORE PUSH1 0x1 PUSH1 0xA0 PUSH1 0x2 EXP SUB CALLER AND PUSH1 0x0 SWAP1 DUP2 MSTORE PUSH1 0x4 DUP4 ADD PUSH1 0x20 MSTORE PUSH1 0x40 SWAP1 KECCAK256 DUP1 SLOAD PUSH1 0xFF NOT AND SWAP1 SWAP2 OR SWAP1 SSTORE PUSH2 0x81F JUMP JUMPDEST PUSH1 0x1 PUSH1 0xA0 PUSH1 0x2 EXP SUB CALLER AND PUSH1 0x0 SWAP1 DUP2 MSTORE PUSH1 0x4 DUP3 ADD PUSH1 0x20 MSTORE PUSH1 0x40 SWAP1 KECCAK256 SLOAD PUSH1 0xFF AND ISZERO PUSH2 0x81F JUMPI PUSH1 0x3 DUP2 ADD SLOAD PUSH1 0x0 SWAP1 GT PUSH2 0x7F0 JUMPI PUSH1 0x0 DUP1 REVERT JUMPDEST PUSH1 0x3 DUP2 ADD DUP1 SLOAD PUSH1 0x0 NOT ADD SWAP1 SSTORE PUSH1 0x1 PUSH1 0xA0 PUSH1 0x2 EXP SUB CALLER AND PUSH1 0x0 SWAP1 DUP2 MSTORE PUSH1 0x4 DUP3 ADD PUSH1 0x20 MSTORE PUSH1 0x40 SWAP1 KECCAK256 DUP1 SLOAD PUSH1 0xFF NOT AND SWAP1 SSTORE JUMPDEST POP POP JUMP JUMPDEST PUSH1 0x2 SLOAD PUSH1 0x1 PUSH1 0xA0 PUSH1 0x2 EXP SUB AND DUP2 JUMP JUMPDEST PUSH1 0x1 SLOAD PUSH1 0x1 PUSH1 0xA0 PUSH1 0x2 EXP SUB AND DUP2 JUMP JUMPDEST PUSH1 0x1 PUSH1 0xA0 PUSH1 0x2 EXP SUB AND PUSH1 0x0 SWAP1 DUP2 MSTORE PUSH1 0x7 PUSH1 0x20 MSTORE PUSH1 0x40 SWAP1 KECCAK256 SLOAD PUSH1 0xFF AND SWAP1 JUMP JUMPDEST PUSH1 0x1 PUSH1 0xA0 PUSH1 0x2 EXP SUB CALLER AND PUSH1 0x0 SWAP1 DUP2 MSTORE PUSH1 0x7 PUSH1 0x20 MSTORE PUSH1 0x40 SWAP1 KECCAK256 SLOAD PUSH1 0xFF AND ISZERO ISZERO PUSH2 0x8B5 JUMPI PUSH1 0x6 DUP1 SLOAD PUSH1 0x1 SWAP1 DUP2 ADD SWAP1 SWAP2 SSTORE PUSH1 0x1 PUSH1 0xA0 PUSH1 0x2 EXP SUB CALLER AND PUSH1 0x0 SWAP1 DUP2 MSTORE PUSH1 0x7 PUSH1 0x20 MSTORE PUSH1 0x40 SWAP1 KECCAK256 DUP1 SLOAD PUSH1 0xFF NOT AND SWAP1 SWAP2 OR SWAP1 SSTORE PUSH2 0x911 JUMP JUMPDEST PUSH1 0x1 PUSH1 0xA0 PUSH1 0x2 EXP SUB CALLER AND PUSH1 0x0 SWAP1 DUP2 MSTORE PUSH1 0x7 PUSH1 0x20 MSTORE PUSH1 0x40 SWAP1 KECCAK256 SLOAD PUSH1 0xFF AND ISZERO PUSH2 0x911 JUMPI PUSH1 0x6 SLOAD PUSH1 0x0 SWAP1 GT PUSH2 0x8E6 JUMPI PUSH1 0x0 DUP1 REVERT JUMPDEST PUSH1 0x6 DUP1 SLOAD PUSH1 0x0 NOT ADD SWAP1 SSTORE PUSH1 0x1 PUSH1 0xA0 PUSH1 0x2 EXP SUB CALLER AND PUSH1 0x0 SWAP1 DUP2 MSTORE PUSH1 0x7 PUSH1 0x20 MSTORE PUSH1 0x40 SWAP1 KECCAK256 DUP1 SLOAD PUSH1 0xFF NOT AND SWAP1 SSTORE JUMPDEST JUMP JUMPDEST PUSH1 0x5 DUP1 SLOAD PUSH1 0x1 DUP2 PUSH1 0x1 AND ISZERO PUSH2 0x100 MUL SUB AND PUSH1 0x2 SWAP1 DIV DUP1 PUSH1 0x1F ADD PUSH1 0x20 DUP1 SWAP2 DIV MUL PUSH1 0x20 ADD PUSH1 0x40 MLOAD SWAP1 DUP2 ADD PUSH1 0x40 MSTORE DUP1 SWAP3 SWAP2 SWAP1 DUP2 DUP2 MSTORE PUSH1 0x20 ADD DUP3 DUP1 SLOAD PUSH1 0x1 DUP2 PUSH1 0x1 AND ISZERO PUSH2 0x100 MUL SUB AND PUSH1 0x2 SWAP1 DIV DUP1 ISZERO PUSH2 0x9A9 JUMPI DUP1 PUSH1 0x1F LT PUSH2 0x97E JUMPI PUSH2 0x100 DUP1 DUP4 SLOAD DIV MUL DUP4 MSTORE SWAP2 PUSH1 0x20 ADD SWAP2 PUSH2 0x9A9 JUMP JUMPDEST DUP3 ADD SWAP2 SWAP1 PUSH1 0x0 MSTORE PUSH1 0x20 PUSH1 0x0 KECCAK256 SWAP1 JUMPDEST DUP2 SLOAD DUP2 MSTORE SWAP1 PUSH1 0x1 ADD SWAP1 PUSH1 0x20 ADD DUP1 DUP4 GT PUSH2 0x98C JUMPI DUP3 SWAP1 SUB PUSH1 0x1F AND DUP3 ADD SWAP2 JUMPDEST POP POP POP POP POP DUP2 JUMP JUMPDEST PUSH2 0x9B9 PUSH2 0x10A9 JUMP JUMPDEST PUSH2 0x9C1 PUSH2 0x10A9 JUMP JUMPDEST PUSH2 0x9C9 PUSH2 0x10A9 JUMP JUMPDEST PUSH1 0x0 DUP1 PUSH1 0x0 PUSH1 0x3 PUSH1 0x4 PUSH1 0x5 PUSH1 0x6 SLOAD PUSH1 0x0 DUP1 SLOAD SWAP1 POP PUSH1 0x7 PUSH1 0x0 CALLER PUSH1 0x1 PUSH1 0xA0 PUSH1 0x2 EXP SUB AND PUSH1 0x1 PUSH1 0xA0 PUSH1 0x2 EXP SUB AND DUP2 MSTORE PUSH1 0x20 ADD SWAP1 DUP2 MSTORE PUSH1 0x20 ADD PUSH1 0x0 KECCAK256 PUSH1 0x0 SWAP1 SLOAD SWAP1 PUSH2 0x100 EXP SWAP1 DIV PUSH1 0xFF AND DUP6 DUP1 SLOAD PUSH1 0x1 DUP2 PUSH1 0x1 AND ISZERO PUSH2 0x100 MUL SUB AND PUSH1 0x2 SWAP1 DIV DUP1 PUSH1 0x1F ADD PUSH1 0x20 DUP1 SWAP2 DIV MUL PUSH1 0x20 ADD PUSH1 0x40 MLOAD SWAP1 DUP2 ADD PUSH1 0x40 MSTORE DUP1 SWAP3 SWAP2 SWAP1 DUP2 DUP2 MSTORE PUSH1 0x20 ADD DUP3 DUP1 SLOAD PUSH1 0x1 DUP2 PUSH1 0x1 AND ISZERO PUSH2 0x100 MUL SUB AND PUSH1 0x2 SWAP1 DIV DUP1 ISZERO PUSH2 0xAA5 JUMPI DUP1 PUSH1 0x1F LT PUSH2 0xA7A JUMPI PUSH2 0x100 DUP1 DUP4 SLOAD DIV MUL DUP4 MSTORE SWAP2 PUSH1 0x20 ADD SWAP2 PUSH2 0xAA5 JUMP JUMPDEST DUP3 ADD SWAP2 SWAP1 PUSH1 0x0 MSTORE PUSH1 0x20 PUSH1 0x0 KECCAK256 SWAP1 JUMPDEST DUP2 SLOAD DUP2 MSTORE SWAP1 PUSH1 0x1 ADD SWAP1 PUSH1 0x20 ADD DUP1 DUP4 GT PUSH2 0xA88 JUMPI DUP3 SWAP1 SUB PUSH1 0x1F AND DUP3 ADD SWAP2 JUMPDEST POP POP POP POP POP SWAP6 POP DUP5 DUP1 SLOAD PUSH1 0x1 DUP2 PUSH1 0x1 AND ISZERO PUSH2 0x100 MUL SUB AND PUSH1 0x2 SWAP1 DIV DUP1 PUSH1 0x1F ADD PUSH1 0x20 DUP1 SWAP2 DIV MUL PUSH1 0x20 ADD PUSH1 0x40 MLOAD SWAP1 DUP2 ADD PUSH1 0x40 MSTORE DUP1 SWAP3 SWAP2 SWAP1 DUP2 DUP2 MSTORE PUSH1 0x20 ADD DUP3 DUP1 SLOAD PUSH1 0x1 DUP2 PUSH1 0x1 AND ISZERO PUSH2 0x100 MUL SUB AND PUSH1 0x2 SWAP1 DIV DUP1 ISZERO PUSH2 0xB41 JUMPI DUP1 PUSH1 0x1F LT PUSH2 0xB16 JUMPI PUSH2 0x100 DUP1 DUP4 SLOAD DIV MUL DUP4 MSTORE SWAP2 PUSH1 0x20 ADD SWAP2 PUSH2 0xB41 JUMP JUMPDEST DUP3 ADD SWAP2 SWAP1 PUSH1 0x0 MSTORE PUSH1 0x20 PUSH1 0x0 KECCAK256 SWAP1 JUMPDEST DUP2 SLOAD DUP2 MSTORE SWAP1 PUSH1 0x1 ADD SWAP1 PUSH1 0x20 ADD DUP1 DUP4 GT PUSH2 0xB24 JUMPI DUP3 SWAP1 SUB PUSH1 0x1F AND DUP3 ADD SWAP2 JUMPDEST POP POP POP POP POP SWAP5 POP DUP4 DUP1 SLOAD PUSH1 0x1 DUP2 PUSH1 0x1 AND ISZERO PUSH2 0x100 MUL SUB AND PUSH1 0x2 SWAP1 DIV DUP1 PUSH1 0x1F ADD PUSH1 0x20 DUP1 SWAP2 DIV MUL PUSH1 0x20 ADD PUSH1 0x40 MLOAD SWAP1 DUP2 ADD PUSH1 0x40 MSTORE DUP1 SWAP3 SWAP2 SWAP1 DUP2 DUP2 MSTORE PUSH1 0x20 ADD DUP3 DUP1 SLOAD PUSH1 0x1 DUP2 PUSH1 0x1 AND ISZERO PUSH2 0x100 MUL SUB AND PUSH1 0x2 SWAP1 DIV DUP1 ISZERO PUSH2 0xBDD JUMPI DUP1 PUSH1 0x1F LT PUSH2 0xBB2 JUMPI PUSH2 0x100 DUP1 DUP4 SLOAD DIV MUL DUP4 MSTORE SWAP2 PUSH1 0x20 ADD SWAP2 PUSH2 0xBDD JUMP JUMPDEST DUP3 ADD SWAP2 SWAP1 PUSH1 0x0 MSTORE PUSH1 0x20 PUSH1 0x0 KECCAK256 SWAP1 JUMPDEST DUP2 SLOAD DUP2 MSTORE SWAP1 PUSH1 0x1 ADD SWAP1 PUSH1 0x20 ADD DUP1 DUP4 GT PUSH2 0xBC0 JUMPI DUP3 SWAP1 SUB PUSH1 0x1F AND DUP3 ADD SWAP2 JUMPDEST POP POP POP POP POP SWAP4 POP SWAP6 POP SWAP6 POP SWAP6 POP SWAP6 POP SWAP6 POP SWAP6 POP SWAP1 SWAP2 SWAP3 SWAP4 SWAP5 SWAP6 JUMP JUMPDEST PUSH1 0x4 DUP1 SLOAD PUSH1 0x1 DUP2 PUSH1 0x1 AND ISZERO PUSH2 0x100 MUL SUB AND PUSH1 0x2 SWAP1 DIV DUP1 PUSH1 0x1F ADD PUSH1 0x20 DUP1 SWAP2 DIV MUL PUSH1 0x20 ADD PUSH1 0x40 MLOAD SWAP1 DUP2 ADD PUSH1 0x40 MSTORE DUP1 SWAP3 SWAP2 SWAP1 DUP2 DUP2 MSTORE PUSH1 0x20 ADD DUP3 DUP1 SLOAD PUSH1 0x1 DUP2 PUSH1 0x1 AND ISZERO PUSH2 0x100 MUL SUB AND PUSH1 0x2 SWAP1 DIV DUP1 ISZERO PUSH2 0x9A9 JUMPI DUP1 PUSH1 0x1F LT PUSH2 0x97E JUMPI PUSH2 0x100 DUP1 DUP4 SLOAD DIV MUL DUP4 MSTORE SWAP2 PUSH1 0x20 ADD SWAP2 PUSH2 0x9A9 JUMP JUMPDEST PUSH1 0x3 DUP1 SLOAD PUSH1 0x1 DUP2 PUSH1 0x1 AND ISZERO PUSH2 0x100 MUL SUB AND PUSH1 0x2 SWAP1 DIV DUP1 PUSH1 0x1F ADD PUSH1 0x20 DUP1 SWAP2 DIV MUL PUSH1 0x20 ADD PUSH1 0x40 MLOAD SWAP1 DUP2 ADD PUSH1 0x40 MSTORE DUP1 SWAP3 SWAP2 SWAP1 DUP2 DUP2 MSTORE PUSH1 0x20 ADD DUP3 DUP1 SLOAD PUSH1 0x1 DUP2 PUSH1 0x1 AND ISZERO PUSH2 0x100 MUL SUB AND PUSH1 0x2 SWAP1 DIV DUP1 ISZERO PUSH2 0x9A9 JUMPI DUP1 PUSH1 0x1F LT PUSH2 0x97E JUMPI PUSH2 0x100 DUP1 DUP4 SLOAD DIV MUL DUP4 MSTORE SWAP2 PUSH1 0x20 ADD SWAP2 PUSH2 0x9A9 JUMP JUMPDEST PUSH1 0x0 DUP1 PUSH1 0x0 DUP5 DUP2 SLOAD DUP2 LT ISZERO ISZERO PUSH2 0xCE0 JUMPI INVALID JUMPDEST PUSH1 0x0 SWAP2 DUP3 MSTORE PUSH1 0x20 DUP1 DUP4 KECCAK256 PUSH1 0x1 PUSH1 0xA0 PUSH1 0x2 EXP SUB SWAP7 SWAP1 SWAP7 AND DUP4 MSTORE PUSH1 0x5 SWAP2 SWAP1 SWAP2 MUL SWAP1 SWAP5 ADD PUSH1 0x4 ADD SWAP1 SWAP4 MSTORE POP POP PUSH1 0x40 SWAP1 KECCAK256 SLOAD PUSH1 0xFF AND SWAP2 SWAP1 POP JUMP JUMPDEST PUSH1 0x1 SLOAD CALLER PUSH1 0x1 PUSH1 0xA0 PUSH1 0x2 EXP SUB SWAP1 DUP2 AND SWAP2 AND EQ DUP1 PUSH2 0xD44 JUMPI POP DUP1 PUSH1 0x1 PUSH1 0xA0 PUSH1 0x2 EXP SUB AND CALLER PUSH1 0x1 PUSH1 0xA0 PUSH1 0x2 EXP SUB AND EQ JUMPDEST ISZERO ISZERO PUSH2 0xD4F JUMPI PUSH1 0x0 DUP1 REVERT JUMPDEST PUSH1 0x0 DUP1 SLOAD DUP4 SWAP1 DUP2 LT PUSH2 0xD5D JUMPI INVALID JUMPDEST PUSH1 0x0 SWAP2 DUP3 MSTORE PUSH1 0x20 DUP3 KECCAK256 PUSH1 0x5 SWAP1 SWAP2 MUL ADD DUP1 SLOAD PUSH20 0xFFFFFFFFFFFFFFFFFFFFFFFFFFFFFFFFFFFFFFFF NOT AND DUP2 SSTORE SWAP1 PUSH2 0xD95 PUSH1 0x1 DUP4 ADD DUP3 PUSH2 0x10BB JUMP JUMPDEST PUSH2 0xDA3 PUSH1 0x2 DUP4 ADD PUSH1 0x0 PUSH2 0x10BB JUMP JUMPDEST PUSH1 0x3 DUP3 ADD PUSH1 0x0 SWAP1 SSTORE POP POP POP POP JUMP JUMPDEST PUSH1 0x0 DUP1 SLOAD DUP3 SWAP1 DUP2 LT PUSH2 0xDBF JUMPI INVALID JUMPDEST PUSH1 0x0 SWAP2 DUP3 MSTORE PUSH1 0x20 SWAP1 SWAP2 KECCAK256 PUSH1 0x5 SWAP1 SWAP2 MUL ADD DUP1 SLOAD PUSH1 0x3 DUP3 ADD SLOAD PUSH1 0x1 PUSH1 0xA0 PUSH1 0x2 EXP SUB SWAP1 SWAP2 AND SWAP3 POP PUSH1 0x1 DUP3 ADD SWAP2 PUSH1 0x2 ADD SWAP1 DUP5 JUMP JUMPDEST PUSH2 0xDF7 PUSH2 0x1102 JUMP JUMPDEST PUSH1 0x80 PUSH1 0x40 MLOAD SWAP1 DUP2 ADD PUSH1 0x40 MSTORE DUP1 CALLER PUSH1 0x1 PUSH1 0xA0 PUSH1 0x2 EXP SUB AND DUP2 MSTORE PUSH1 0x20 ADD DUP4 DUP2 MSTORE PUSH1 0x20 ADD DUP5 DUP2 MSTORE PUSH1 0x20 ADD PUSH1 0x0 DUP2 MSTORE POP SWAP1 POP PUSH1 0x0 DUP1 SLOAD DUP1 PUSH1 0x1 ADD DUP3 DUP2 PUSH2 0xE39 SWAP2 SWAP1 PUSH2 0x1137 JUMP JUMPDEST PUSH1 0x0 SWAP3 DUP4 MSTORE PUSH1 0x20 SWAP1 SWAP3 KECCAK256 DUP4 SWAP2 PUSH1 0x5 MUL ADD DUP2 MLOAD DUP2 SLOAD PUSH20 0xFFFFFFFFFFFFFFFFFFFFFFFFFFFFFFFFFFFFFFFF NOT AND PUSH1 0x1 PUSH1 0xA0 PUSH1 0x2 EXP SUB SWAP2 SWAP1 SWAP2 AND OR DUP2 SSTORE PUSH1 0x20 DUP3 ADD MLOAD DUP2 PUSH1 0x1 ADD SWAP1 DUP1 MLOAD PUSH2 0xE8D SWAP3 SWAP2 PUSH1 0x20 ADD SWAP1 PUSH2 0x1168 JUMP JUMPDEST POP PUSH1 0x40 DUP3 ADD MLOAD DUP2 PUSH1 0x2 ADD SWAP1 DUP1 MLOAD PUSH2 0xEA8 SWAP3 SWAP2 PUSH1 0x20 ADD SWAP1 PUSH2 0x1168 JUMP JUMPDEST POP PUSH1 0x60 DUP3 ADD MLOAD DUP2 PUSH1 0x3 ADD SSTORE POP POP POP POP POP POP JUMP JUMPDEST PUSH1 0x7 PUSH1 0x20 MSTORE PUSH1 0x0 SWAP1 DUP2 MSTORE PUSH1 0x40 SWAP1 KECCAK256 SLOAD PUSH1 0xFF AND DUP2 JUMP JUMPDEST PUSH1 0x0 SLOAD JUMPDEST SWAP1 JUMP JUMPDEST PUSH2 0xEDF PUSH2 0x10A9 JUMP JUMPDEST PUSH2 0xEE7 PUSH2 0x10A9 JUMP JUMPDEST PUSH1 0x0 DUP1 PUSH1 0x0 DUP1 DUP7 DUP2 SLOAD DUP2 LT ISZERO ISZERO PUSH2 0xEFA JUMPI INVALID JUMPDEST SWAP1 PUSH1 0x0 MSTORE PUSH1 0x20 PUSH1 0x0 KECCAK256 SWAP1 PUSH1 0x5 MUL ADD SWAP1 POP DUP1 PUSH1 0x1 ADD DUP2 PUSH1 0x2 ADD DUP3 PUSH1 0x3 ADD SLOAD DUP4 PUSH1 0x4 ADD PUSH1 0x0 CALLER PUSH1 0x1 PUSH1 0xA0 PUSH1 0x2 EXP SUB AND PUSH1 0x1 PUSH1 0xA0 PUSH1 0x2 EXP SUB AND DUP2 MSTORE PUSH1 0x20 ADD SWAP1 DUP2 MSTORE PUSH1 0x20 ADD PUSH1 0x0 KECCAK256 PUSH1 0x0 SWAP1 SLOAD SWAP1 PUSH2 0x100 EXP SWAP1 DIV PUSH1 0xFF AND DUP4 DUP1 SLOAD PUSH1 0x1 DUP2 PUSH1 0x1 AND ISZERO PUSH2 0x100 MUL SUB AND PUSH1 0x2 SWAP1 DIV DUP1 PUSH1 0x1F ADD PUSH1 0x20 DUP1 SWAP2 DIV MUL PUSH1 0x20 ADD PUSH1 0x40 MLOAD SWAP1 DUP2 ADD PUSH1 0x40 MSTORE DUP1 SWAP3 SWAP2 SWAP1 DUP2 DUP2 MSTORE PUSH1 0x20 ADD DUP3 DUP1 SLOAD PUSH1 0x1 DUP2 PUSH1 0x1 AND ISZERO PUSH2 0x100 MUL SUB AND PUSH1 0x2 SWAP1 DIV DUP1 ISZERO PUSH2 0xFE1 JUMPI DUP1 PUSH1 0x1F LT PUSH2 0xFB6 JUMPI PUSH2 0x100 DUP1 DUP4 SLOAD DIV MUL DUP4 MSTORE SWAP2 PUSH1 0x20 ADD SWAP2 PUSH2 0xFE1 JUMP JUMPDEST DUP3 ADD SWAP2 SWAP1 PUSH1 0x0 MSTORE PUSH1 0x20 PUSH1 0x0 KECCAK256 SWAP1 JUMPDEST DUP2 SLOAD DUP2 MSTORE SWAP1 PUSH1 0x1 ADD SWAP1 PUSH1 0x20 ADD DUP1 DUP4 GT PUSH2 0xFC4 JUMPI DUP3 SWAP1 SUB PUSH1 0x1F AND DUP3 ADD SWAP2 JUMPDEST POP POP POP POP POP SWAP4 POP DUP3 DUP1 SLOAD PUSH1 0x1 DUP2 PUSH1 0x1 AND ISZERO PUSH2 0x100 MUL SUB AND PUSH1 0x2 SWAP1 DIV DUP1 PUSH1 0x1F ADD PUSH1 0x20 DUP1 SWAP2 DIV MUL PUSH1 0x20 ADD PUSH1 0x40 MLOAD SWAP1 DUP2 ADD PUSH1 0x40 MSTORE DUP1 SWAP3 SWAP2 SWAP1 DUP2 DUP2 MSTORE PUSH1 0x20 ADD DUP3 DUP1 SLOAD PUSH1 0x1 DUP2 PUSH1 0x1 AND ISZERO PUSH2 0x100 MUL SUB AND PUSH1 0x2 SWAP1 DIV DUP1 ISZERO PUSH2 0x107D JUMPI DUP1 PUSH1 0x1F LT PUSH2 0x1052 JUMPI PUSH2 0x100 DUP1 DUP4 SLOAD DIV MUL DUP4 MSTORE SWAP2 PUSH1 0x20 ADD SWAP2 PUSH2 0x107D JUMP JUMPDEST DUP3 ADD SWAP2 SWAP1 PUSH1 0x0 MSTORE PUSH1 0x20 PUSH1 0x0 KECCAK256 SWAP1 JUMPDEST DUP2 SLOAD DUP2 MSTORE SWAP1 PUSH1 0x1 ADD SWAP1 PUSH1 0x20 ADD DUP1 DUP4 GT PUSH2 0x1060 JUMPI DUP3 SWAP1 SUB PUSH1 0x1F AND DUP3 ADD SWAP2 JUMPDEST POP POP POP POP POP SWAP3 POP SWAP5 POP SWAP5 POP SWAP5 POP SWAP5 POP POP SWAP2 SWAP4 POP SWAP2 SWAP4 JUMP JUMPDEST PUSH1 0x6 SLOAD DUP2 JUMP JUMPDEST PUSH1 0x2 SLOAD PUSH1 0x1 PUSH1 0xA0 PUSH1 0x2 EXP SUB AND SWAP1 JUMP JUMPDEST PUSH1 0x20 PUSH1 0x40 MLOAD SWAP1 DUP2 ADD PUSH1 0x40 MSTORE PUSH1 0x0 DUP2 MSTORE SWAP1 JUMP JUMPDEST POP DUP1 SLOAD PUSH1 0x1 DUP2 PUSH1 0x1 AND ISZERO PUSH2 0x100 MUL SUB AND PUSH1 0x2 SWAP1 DIV PUSH1 0x0 DUP3 SSTORE DUP1 PUSH1 0x1F LT PUSH2 0x10E1 JUMPI POP PUSH2 0x10FF JUMP JUMPDEST PUSH1 0x1F ADD PUSH1 0x20 SWAP1 DIV SWAP1 PUSH1 0x0 MSTORE PUSH1 0x20 PUSH1 0x0 KECCAK256 SWAP1 DUP2 ADD SWAP1 PUSH2 0x10FF SWAP2 SWAP1 PUSH2 0x11E6 JUMP JUMPDEST POP JUMP JUMPDEST PUSH1 0x80 PUSH1 0x40 MLOAD SWAP1 DUP2 ADD PUSH1 0x40 MSTORE PUSH1 0x0 DUP2 MSTORE PUSH1 0x20 DUP2 ADD PUSH2 0x111D PUSH2 0x10A9 JUMP JUMPDEST DUP2 MSTORE PUSH1 0x20 ADD PUSH2 0x112A PUSH2 0x10A9 JUMP JUMPDEST DUP2 MSTORE PUSH1 0x20 ADD PUSH1 0x0 DUP2 MSTORE POP SWAP1 JUMP JUMPDEST DUP2 SLOAD DUP2 DUP4 SSTORE DUP2 DUP2 ISZERO GT PUSH2 0x1163 JUMPI PUSH1 0x5 MUL DUP2 PUSH1 0x5 MUL DUP4 PUSH1 0x0 MSTORE PUSH1 0x20 PUSH1 0x0 KECCAK256 SWAP2 DUP3 ADD SWAP2 ADD PUSH2 0x1163 SWAP2 SWAP1 PUSH2 0x1200 JUMP JUMPDEST POP POP POP JUMP JUMPDEST DUP3 DUP1 SLOAD PUSH1 0x1 DUP2 PUSH1 0x1 AND ISZERO PUSH2 0x100 MUL SUB AND PUSH1 0x2 SWAP1 DIV SWAP1 PUSH1 0x0 MSTORE PUSH1 0x20 PUSH1 0x0 KECCAK256 SWAP1 PUSH1 0x1F ADD PUSH1 0x20 SWAP1 DIV DUP2 ADD SWAP3 DUP3 PUSH1 0x1F LT PUSH2 0x11A9 JUMPI DUP1 MLOAD PUSH1 0xFF NOT AND DUP4 DUP1 ADD OR DUP6 SSTORE PUSH2 0x11D6 JUMP JUMPDEST DUP3 DUP1 ADD PUSH1 0x1 ADD DUP6 SSTORE DUP3 ISZERO PUSH2 0x11D6 JUMPI SWAP2 DUP3 ADD JUMPDEST DUP3 DUP2 GT ISZERO PUSH2 0x11D6 JUMPI DUP3 MLOAD DUP3 SSTORE SWAP2 PUSH1 0x20 ADD SWAP2 SWAP1 PUSH1 0x1 ADD SWAP1 PUSH2 0x11BB JUMP JUMPDEST POP PUSH2 0x11E2 SWAP3 SWAP2 POP PUSH2 0x11E6 JUMP JUMPDEST POP SWAP1 JUMP JUMPDEST PUSH2 0xED4 SWAP2 SWAP1 JUMPDEST DUP1 DUP3 GT ISZERO PUSH2 0x11E2 JUMPI PUSH1 0x0 DUP2 SSTORE PUSH1 0x1 ADD PUSH2 0x11EC JUMP JUMPDEST PUSH2 0xED4 SWAP2 SWAP1 JUMPDEST DUP1 DUP3 GT ISZERO PUSH2 0x11E2 JUMPI DUP1 SLOAD PUSH20 0xFFFFFFFFFFFFFFFFFFFFFFFFFFFFFFFFFFFFFFFF NOT AND DUP2 SSTORE PUSH1 0x0 PUSH2 0x1238 PUSH1 0x1 DUP4 ADD DUP3 PUSH2 0x10BB JUMP JUMPDEST PUSH2 0x1246 PUSH1 0x2 DUP4 ADD PUSH1 0x0 PUSH2 0x10BB JUMP JUMPDEST POP PUSH1 0x0 PUSH1 0x3 DUP3 ADD SSTORE PUSH1 0x5 ADD PUSH2 0x1206 JUMP STOP LOG1 PUSH6 0x627A7A723058 KECCAK256 DUP8 PUSH18 0xB6278F32A45C5D802256526CBC9E22E22DB4 SDIV 0xc3 0xf5 DUP8 SWAP12 SELFDESTRUCT PUSH18 0xF50AE922770029A165627A7A72305820F81E DELEGATECALL 0x5d PUSH29 0xF1B3F4EC4BE5AEDA4A978DE8193EC928E10C9FF28C46118C9A58E90029 "
        },
        "gasEstimates": {
          "creation": {
            "codeDepositCost": "1596800",
            "executionCost": "22041",
            "totalCost": "1618841"
          },
          "external": {
            "deletePost(uint256,address)": "20980",
            "deployPost(string,string)": "infinite",
            "deployedPosts(uint256)": "861",
            "getDeployedPosts()": "infinite",
            "getDeployedPostsLength()": "502",
            "getUsername()": "infinite",
            "isRegistered()": "479",
            "isUserRegistered(address)": "460",
            "manager()": "451",
            "registerUser(string)": "infinite",
            "users(address)": "infinite"
          }
        },
        "methodIdentifiers": {
          "deletePost(uint256,address)": "40b4baf9",
          "deployPost(string,string)": "9b124341",
          "deployedPosts(uint256)": "9cd62aa8",
          "getDeployedPosts()": "c01c052d",
          "getDeployedPostsLength()": "735fe553",
          "getUsername()": "681f3e6d",
          "isRegistered()": "22366844",
          "isUserRegistered(address)": "163f7522",
          "manager()": "481c6a75",
          "registerUser(string)": "704f1b94",
          "users(address)": "a87430ba"
        }
      },
      "userdoc": {
        "methods": {}
      }
    }
  }
}