{
  "contracts/Post.sol": {
    "Post": {
      "abi": [
        {
          "constant": false,
          "inputs": [
            {
              "name": "commentIndex",
              "type": "uint256"
            }
          ],
          "name": "voteComment",
          "outputs": [],
          "payable": false,
          "stateMutability": "nonpayable",
          "type": "function"
        },
        {
          "constant": true,
          "inputs": [],
          "name": "creator",
          "outputs": [
            {
              "name": "",
              "type": "address"
            }
          ],
          "payable": false,
          "stateMutability": "view",
          "type": "function"
        },
        {
          "constant": true,
          "inputs": [],
          "name": "factoryManager",
          "outputs": [
            {
              "name": "",
              "type": "address"
            }
          ],
          "payable": false,
          "stateMutability": "view",
          "type": "function"
        },
        {
          "constant": false,
          "inputs": [],
          "name": "votePost",
          "outputs": [],
          "payable": false,
          "stateMutability": "nonpayable",
          "type": "function"
        },
        {
          "constant": true,
          "inputs": [],
          "name": "body",
          "outputs": [
            {
              "name": "",
              "type": "string"
            }
          ],
          "payable": false,
          "stateMutability": "view",
          "type": "function"
        },
        {
          "constant": true,
          "inputs": [],
          "name": "getPostSummary",
          "outputs": [
            {
              "name": "",
              "type": "string"
            },
            {
              "name": "",
              "type": "string"
            },
            {
              "name": "",
              "type": "string"
            },
            {
              "name": "",
              "type": "uint256"
            },
            {
              "name": "",
              "type": "uint256"
            }
          ],
          "payable": false,
          "stateMutability": "view",
          "type": "function"
        },
        {
          "constant": true,
          "inputs": [],
          "name": "title",
          "outputs": [
            {
              "name": "",
              "type": "string"
            }
          ],
          "payable": false,
          "stateMutability": "view",
          "type": "function"
        },
        {
          "constant": true,
          "inputs": [],
          "name": "username",
          "outputs": [
            {
              "name": "",
              "type": "string"
            }
          ],
          "payable": false,
          "stateMutability": "view",
          "type": "function"
        },
        {
          "constant": false,
          "inputs": [
            {
              "name": "index",
              "type": "uint256"
            },
            {
              "name": "_creator",
              "type": "address"
            }
          ],
          "name": "deleteComment",
          "outputs": [],
          "payable": false,
          "stateMutability": "nonpayable",
          "type": "function"
        },
        {
          "constant": true,
          "inputs": [
            {
              "name": "",
              "type": "uint256"
            }
          ],
          "name": "comments",
          "outputs": [
            {
              "name": "creator",
              "type": "address"
            },
            {
              "name": "username",
              "type": "string"
            },
            {
              "name": "text",
              "type": "string"
            },
            {
              "name": "votes",
              "type": "uint256"
            }
          ],
          "payable": false,
          "stateMutability": "view",
          "type": "function"
        },
        {
          "constant": false,
          "inputs": [
            {
              "name": "commentText",
              "type": "string"
            },
            {
              "name": "user",
              "type": "string"
            }
          ],
          "name": "createComment",
          "outputs": [],
          "payable": false,
          "stateMutability": "nonpayable",
          "type": "function"
        },
        {
          "constant": true,
          "inputs": [
            {
              "name": "",
              "type": "address"
            }
          ],
          "name": "voters",
          "outputs": [
            {
              "name": "",
              "type": "bool"
            }
          ],
          "payable": false,
          "stateMutability": "view",
          "type": "function"
        },
        {
          "constant": true,
          "inputs": [],
          "name": "getCommentsCount",
          "outputs": [
            {
              "name": "",
              "type": "uint256"
            }
          ],
          "payable": false,
          "stateMutability": "view",
          "type": "function"
        },
        {
          "constant": true,
          "inputs": [
            {
              "name": "commentIndex",
              "type": "uint256"
            }
          ],
          "name": "getCommentSummary",
          "outputs": [
            {
              "name": "",
              "type": "string"
            },
            {
              "name": "",
              "type": "string"
            },
            {
              "name": "",
              "type": "uint256"
            }
          ],
          "payable": false,
          "stateMutability": "view",
          "type": "function"
        },
        {
          "constant": true,
          "inputs": [],
          "name": "votes",
          "outputs": [
            {
              "name": "",
              "type": "uint256"
            }
          ],
          "payable": false,
          "stateMutability": "view",
          "type": "function"
        },
        {
          "constant": true,
          "inputs": [],
          "name": "getPostCreator",
          "outputs": [
            {
              "name": "",
              "type": "address"
            }
          ],
          "payable": false,
          "stateMutability": "view",
          "type": "function"
        },
        {
          "inputs": [
            {
              "name": "postCreator",
              "type": "address"
            },
            {
              "name": "postTitle",
              "type": "string"
            },
            {
              "name": "postBody",
              "type": "string"
            },
            {
              "name": "user",
              "type": "string"
            },
            {
              "name": "manager",
              "type": "address"
            }
          ],
          "payable": false,
          "stateMutability": "nonpayable",
          "type": "constructor"
        }
      ],
      "devdoc": {
        "methods": {}
      },
      "evm": {
        "assembly": "    /* \"contracts/Post.sol\":1647:4618  contract Post {\r... */\n  mstore(0x40, 0x60)\n    /* \"contracts/Post.sol\":2429:2732  function Post(address postCreator, string memory postTitle, string memory postBody, string memory user, address manager) public {\r... */\n  jumpi(tag_1, iszero(callvalue))\n  0x0\n  dup1\n  revert\ntag_1:\n  mload(0x40)\n  sub(codesize, bytecodeSize)\n  dup1\n  bytecodeSize\n  dup4\n  codecopy\n  dup2\n  add\n  0x40\n  mstore\n  dup1\n  dup1\n  mload\n  swap2\n  swap1\n  0x20\n  add\n  dup1\n  mload\n  dup3\n  add\n  swap2\n  swap1\n  0x20\n  add\n  dup1\n  mload\n  dup3\n  add\n  swap2\n  swap1\n  0x20\n  add\n  dup1\n  mload\n  dup3\n  add\n  swap2\n  swap1\n  0x20\n  add\n  dup1\n  mload\n    /* \"contracts/Post.sol\":2568:2575  creator */\n  0x2\n    /* \"contracts/Post.sol\":2568:2589  creator = postCreator */\n  dup1\n  sload\n  not(sub(exp(0x2, 0xa0), 0x1))\n  and\n  sub(exp(0x2, 0xa0), 0x1)\n  dup10\n  and\n  or\n  swap1\n  sstore\n    /* \"contracts/Post.sol\":2429:2732  function Post(address postCreator, string memory postTitle, string memory postBody, string memory user, address manager) public {\r... */\n  swap2\n  pop\n    /* \"contracts/Post.sol\":2600:2605  title */\n  0x4\n  swap1\n  pop\n    /* \"contracts/Post.sol\":2608:2617  postTitle */\n  dup5\n  dup1\n    /* \"contracts/Post.sol\":2600:2617  title = postTitle */\n  mload\n  tag_4\n  swap3\n  swap2\n  0x20\n  add\n  swap1\n  jump\t// in(tag_5)\ntag_4:\n  pop\n    /* \"contracts/Post.sol\":2628:2632  body */\n  0x5\n    /* \"contracts/Post.sol\":2635:2643  postBody */\n  dup4\n  dup1\n    /* \"contracts/Post.sol\":2628:2643  body = postBody */\n  mload\n  tag_6\n  swap3\n  swap2\n  0x20\n  add\n  swap1\n  jump\t// in(tag_5)\ntag_6:\n  pop\n    /* \"contracts/Post.sol\":2662:2663  0 */\n  0x0\n    /* \"contracts/Post.sol\":2654:2659  votes */\n  0x6\n    /* \"contracts/Post.sol\":2654:2663  votes = 0 */\n  sstore\n    /* \"contracts/Post.sol\":2674:2682  username */\n  0x3\n    /* \"contracts/Post.sol\":2685:2689  user */\n  dup3\n  dup1\n    /* \"contracts/Post.sol\":2674:2689  username = user */\n  mload\n  tag_7\n  swap3\n  swap2\n  0x20\n  add\n  swap1\n  jump\t// in(tag_5)\ntag_7:\n  pop\n    /* \"contracts/Post.sol\":2700:2714  factoryManager */\n  0x1\n    /* \"contracts/Post.sol\":2700:2724  factoryManager = manager */\n  dup1\n  sload\n  not(sub(exp(0x2, 0xa0), 0x1))\n  and\n  sub(exp(0x2, 0xa0), 0x1)\n  swap3\n  swap1\n  swap3\n  and\n  swap2\n  swap1\n  swap2\n  or\n  swap1\n  sstore\n  pop\n    /* \"contracts/Post.sol\":1647:4618  contract Post {\r... */\n  tag_8\n  swap3\n  pop\n  pop\n  pop\n  jump\ntag_5:\n  dup3\n  dup1\n  sload\n  0x1\n  dup2\n  0x1\n  and\n  iszero\n  0x100\n  mul\n  sub\n  and\n  0x2\n  swap1\n  div\n  swap1\n  0x0\n  mstore\n  keccak256(0x0, 0x20)\n  swap1\n  0x1f\n  add\n  0x20\n  swap1\n  div\n  dup2\n  add\n  swap3\n  dup3\n  0x1f\n  lt\n  tag_10\n  jumpi\n  dup1\n  mload\n  not(0xff)\n  and\n  dup4\n  dup1\n  add\n  or\n  dup6\n  sstore\n  jump(tag_12)\ntag_10:\n  dup3\n  dup1\n  add\n  0x1\n  add\n  dup6\n  sstore\n  dup3\n  iszero\n  tag_12\n  jumpi\n  swap2\n  dup3\n  add\ntag_11:\n  dup3\n  dup2\n  gt\n  iszero\n  tag_12\n  jumpi\n  dup3\n  mload\n  dup3\n  sstore\n  swap2\n  0x20\n  add\n  swap2\n  swap1\n  0x1\n  add\n  swap1\n  jump(tag_11)\ntag_12:\n  pop\n  tag_13\n  swap3\n  swap2\n  pop\n  jump\t// in(tag_14)\ntag_13:\n  pop\n  swap1\n  jump\t// out\ntag_14:\n  tag_15\n  swap2\n  swap1\ntag_16:\n  dup1\n  dup3\n  gt\n  iszero\n  tag_13\n  jumpi\n  0x0\n  dup2\n  sstore\n  0x1\n  add\n  jump(tag_16)\ntag_15:\n  swap1\n  jump\t// out\ntag_8:\n  dataSize(sub_0)\n  dup1\n  dataOffset(sub_0)\n  0x0\n  codecopy\n  0x0\n  return\nstop\n\nsub_0: assembly {\n        /* \"contracts/Post.sol\":1647:4618  contract Post {\r... */\n      mstore(0x40, 0x60)\n      jumpi(tag_1, iszero(calldatasize))\n      and(div(calldataload(0x0), 0x100000000000000000000000000000000000000000000000000000000), 0xffffffff)\n      0x114b9d1\n      dup2\n      eq\n      tag_2\n      jumpi\n      dup1\n      0x2d05d3f\n      eq\n      tag_3\n      jumpi\n      dup1\n      0x32b5a73\n      eq\n      tag_4\n      jumpi\n      dup1\n      0xbfb7de9\n      eq\n      tag_5\n      jumpi\n      dup1\n      0x364497e4\n      eq\n      tag_6\n      jumpi\n      dup1\n      0x443fb57e\n      eq\n      tag_7\n      jumpi\n      dup1\n      0x4a79d50c\n      eq\n      tag_8\n      jumpi\n      dup1\n      0x61fac54d\n      eq\n      tag_9\n      jumpi\n      dup1\n      0x8b47462c\n      eq\n      tag_10\n      jumpi\n      dup1\n      0x8ebb4c15\n      eq\n      tag_11\n      jumpi\n      dup1\n      0xa1edee49\n      eq\n      tag_12\n      jumpi\n      dup1\n      0xa3ec138d\n      eq\n      tag_13\n      jumpi\n      dup1\n      0xc1c1066b\n      eq\n      tag_14\n      jumpi\n      dup1\n      0xc8de7279\n      eq\n      tag_15\n      jumpi\n      dup1\n      0xe168c3ec\n      eq\n      tag_16\n      jumpi\n      dup1\n      0xf5b5709b\n      eq\n      tag_17\n      jumpi\n    tag_1:\n      0x0\n      dup1\n      revert\n        /* \"contracts/Post.sol\":3352:3787  function voteComment(uint commentIndex) public {\r... */\n    tag_2:\n      jumpi(tag_18, iszero(callvalue))\n      0x0\n      dup1\n      revert\n    tag_18:\n      tag_19\n      calldataload(0x4)\n      jump(tag_20)\n    tag_19:\n      stop\n        /* \"contracts/Post.sol\":1908:1930  address public creator */\n    tag_3:\n      jumpi(tag_21, iszero(callvalue))\n      0x0\n      dup1\n      revert\n    tag_21:\n      tag_22\n      jump(tag_23)\n    tag_22:\n      mload(0x40)\n      0xffffffffffffffffffffffffffffffffffffffff\n      swap1\n      swap2\n      and\n      dup2\n      mstore\n      0x20\n      add\n      mload(0x40)\n      dup1\n      swap2\n      sub\n      swap1\n      return\n        /* \"contracts/Post.sol\":1872:1901  address public factoryManager */\n    tag_4:\n      jumpi(tag_24, iszero(callvalue))\n      0x0\n      dup1\n      revert\n    tag_24:\n      tag_22\n      jump(tag_26)\n        /* \"contracts/Post.sol\":3060:3340  function votePost() public {\r... */\n    tag_5:\n      jumpi(tag_27, iszero(callvalue))\n      0x0\n      dup1\n      revert\n    tag_27:\n      tag_19\n      jump(tag_29)\n        /* \"contracts/Post.sol\":1992:2010  string public body */\n    tag_6:\n      jumpi(tag_30, iszero(callvalue))\n      0x0\n      dup1\n      revert\n    tag_30:\n      tag_31\n      jump(tag_32)\n    tag_31:\n      mload(0x40)\n      0x20\n      dup1\n      dup3\n      mstore\n      dup2\n      swap1\n      dup2\n      add\n      dup4\n      dup2\n      dup2\n      mload\n      dup2\n      mstore\n      0x20\n      add\n      swap2\n      pop\n      dup1\n      mload\n      swap1\n      0x20\n      add\n      swap1\n      dup1\n      dup4\n      dup4\n        /* \"--CODEGEN--\":23:24   */\n      0x0\n        /* \"--CODEGEN--\":8:108   */\n    tag_33:\n        /* \"--CODEGEN--\":33:36   */\n      dup4\n        /* \"--CODEGEN--\":30:31   */\n      dup2\n        /* \"--CODEGEN--\":27:29   */\n      lt\n        /* \"--CODEGEN--\":8:108   */\n      iszero\n      tag_34\n      jumpi\n        /* \"--CODEGEN--\":99:100   */\n      dup1\n        /* \"--CODEGEN--\":94:97   */\n      dup3\n        /* \"--CODEGEN--\":90:93   */\n      add\n        /* \"--CODEGEN--\":84:89   */\n      mload\n        /* \"--CODEGEN--\":71:74   */\n      dup4\n      dup3\n      add\n        /* \"--CODEGEN--\":64:70   */\n      mstore\n        /* \"--CODEGEN--\":52:54   */\n      0x20\n        /* \"--CODEGEN--\":45:48   */\n      add\n        /* \"--CODEGEN--\":8:108   */\n      jump(tag_33)\n    tag_34:\n        /* \"--CODEGEN--\":12:26   */\n      pop\n        /* \"--CODEGEN--\":3:112   */\n      pop\n      pop\n      pop\n      swap1\n      pop\n      swap1\n      dup2\n      add\n      swap1\n      0x1f\n      and\n      dup1\n      iszero\n      tag_36\n      jumpi\n      dup1\n      dup3\n      sub\n      dup1\n      mload\n      0x1\n      dup4\n      0x20\n      sub\n      0x100\n      exp\n      sub\n      not\n      and\n      dup2\n      mstore\n      0x20\n      add\n      swap2\n      pop\n    tag_36:\n      pop\n      swap3\n      pop\n      pop\n      pop\n      mload(0x40)\n      dup1\n      swap2\n      sub\n      swap1\n      return\n        /* \"contracts/Post.sol\":3986:4162  function getPostSummary() public view returns(string memory, string memory, string memory, uint, uint) {\r... */\n    tag_7:\n      jumpi(tag_37, iszero(callvalue))\n      0x0\n      dup1\n      revert\n    tag_37:\n      tag_38\n      jump(tag_39)\n    tag_38:\n      mload(0x40)\n      dup1\n      dup1\n      0x20\n      add\n      dup1\n      0x20\n      add\n      dup1\n      0x20\n      add\n      dup7\n      dup2\n      mstore\n      0x20\n      add\n      dup6\n      dup2\n      mstore\n      0x20\n      add\n      dup5\n      dup2\n      sub\n      dup5\n      mstore\n      dup10\n      dup2\n      dup2\n      mload\n      dup2\n      mstore\n      0x20\n      add\n      swap2\n      pop\n      dup1\n      mload\n      swap1\n      0x20\n      add\n      swap1\n      dup1\n      dup4\n      dup4\n        /* \"--CODEGEN--\":23:24   */\n      0x0\n        /* \"--CODEGEN--\":8:108   */\n    tag_40:\n        /* \"--CODEGEN--\":33:36   */\n      dup4\n        /* \"--CODEGEN--\":30:31   */\n      dup2\n        /* \"--CODEGEN--\":27:29   */\n      lt\n        /* \"--CODEGEN--\":8:108   */\n      iszero\n      tag_41\n      jumpi\n        /* \"--CODEGEN--\":99:100   */\n      dup1\n        /* \"--CODEGEN--\":94:97   */\n      dup3\n        /* \"--CODEGEN--\":90:93   */\n      add\n        /* \"--CODEGEN--\":84:89   */\n      mload\n        /* \"--CODEGEN--\":71:74   */\n      dup4\n      dup3\n      add\n        /* \"--CODEGEN--\":64:70   */\n      mstore\n        /* \"--CODEGEN--\":52:54   */\n      0x20\n        /* \"--CODEGEN--\":45:48   */\n      add\n        /* \"--CODEGEN--\":8:108   */\n      jump(tag_40)\n    tag_41:\n        /* \"--CODEGEN--\":12:26   */\n      pop\n        /* \"--CODEGEN--\":3:112   */\n      pop\n      pop\n      pop\n      swap1\n      pop\n      swap1\n      dup2\n      add\n      swap1\n      0x1f\n      and\n      dup1\n      iszero\n      tag_43\n      jumpi\n      dup1\n      dup3\n      sub\n      dup1\n      mload\n      0x1\n      dup4\n      0x20\n      sub\n      0x100\n      exp\n      sub\n      not\n      and\n      dup2\n      mstore\n      0x20\n      add\n      swap2\n      pop\n    tag_43:\n      pop\n      dup5\n      dup2\n      sub\n      dup4\n      mstore\n      dup9\n      dup2\n      dup2\n      mload\n      dup2\n      mstore\n      0x20\n      add\n      swap2\n      pop\n      dup1\n      mload\n      swap1\n      0x20\n      add\n      swap1\n      dup1\n      dup4\n      dup4\n        /* \"--CODEGEN--\":23:24   */\n      0x0\n        /* \"--CODEGEN--\":8:108   */\n    tag_44:\n        /* \"--CODEGEN--\":33:36   */\n      dup4\n        /* \"--CODEGEN--\":30:31   */\n      dup2\n        /* \"--CODEGEN--\":27:29   */\n      lt\n        /* \"--CODEGEN--\":8:108   */\n      iszero\n      tag_45\n      jumpi\n        /* \"--CODEGEN--\":99:100   */\n      dup1\n        /* \"--CODEGEN--\":94:97   */\n      dup3\n        /* \"--CODEGEN--\":90:93   */\n      add\n        /* \"--CODEGEN--\":84:89   */\n      mload\n        /* \"--CODEGEN--\":71:74   */\n      dup4\n      dup3\n      add\n        /* \"--CODEGEN--\":64:70   */\n      mstore\n        /* \"--CODEGEN--\":52:54   */\n      0x20\n        /* \"--CODEGEN--\":45:48   */\n      add\n        /* \"--CODEGEN--\":8:108   */\n      jump(tag_44)\n    tag_45:\n        /* \"--CODEGEN--\":12:26   */\n      pop\n        /* \"--CODEGEN--\":3:112   */\n      pop\n      pop\n      pop\n      swap1\n      pop\n      swap1\n      dup2\n      add\n      swap1\n      0x1f\n      and\n      dup1\n      iszero\n      tag_47\n      jumpi\n      dup1\n      dup3\n      sub\n      dup1\n      mload\n      0x1\n      dup4\n      0x20\n      sub\n      0x100\n      exp\n      sub\n      not\n      and\n      dup2\n      mstore\n      0x20\n      add\n      swap2\n      pop\n    tag_47:\n      pop\n      dup5\n      dup2\n      sub\n      dup3\n      mstore\n      dup8\n      dup2\n      dup2\n      mload\n      dup2\n      mstore\n      0x20\n      add\n      swap2\n      pop\n      dup1\n      mload\n      swap1\n      0x20\n      add\n      swap1\n      dup1\n      dup4\n      dup4\n        /* \"--CODEGEN--\":23:24   */\n      0x0\n        /* \"--CODEGEN--\":8:108   */\n    tag_48:\n        /* \"--CODEGEN--\":33:36   */\n      dup4\n        /* \"--CODEGEN--\":30:31   */\n      dup2\n        /* \"--CODEGEN--\":27:29   */\n      lt\n        /* \"--CODEGEN--\":8:108   */\n      iszero\n      tag_49\n      jumpi\n        /* \"--CODEGEN--\":99:100   */\n      dup1\n        /* \"--CODEGEN--\":94:97   */\n      dup3\n        /* \"--CODEGEN--\":90:93   */\n      add\n        /* \"--CODEGEN--\":84:89   */\n      mload\n        /* \"--CODEGEN--\":71:74   */\n      dup4\n      dup3\n      add\n        /* \"--CODEGEN--\":64:70   */\n      mstore\n        /* \"--CODEGEN--\":52:54   */\n      0x20\n        /* \"--CODEGEN--\":45:48   */\n      add\n        /* \"--CODEGEN--\":8:108   */\n      jump(tag_48)\n    tag_49:\n        /* \"--CODEGEN--\":12:26   */\n      pop\n        /* \"--CODEGEN--\":3:112   */\n      pop\n      pop\n      pop\n      swap1\n      pop\n      swap1\n      dup2\n      add\n      swap1\n      0x1f\n      and\n      dup1\n      iszero\n      tag_51\n      jumpi\n      dup1\n      dup3\n      sub\n      dup1\n      mload\n      0x1\n      dup4\n      0x20\n      sub\n      0x100\n      exp\n      sub\n      not\n      and\n      dup2\n      mstore\n      0x20\n      add\n      swap2\n      pop\n    tag_51:\n      pop\n      swap9\n      pop\n      pop\n      pop\n      pop\n      pop\n      pop\n      pop\n      pop\n      pop\n      mload(0x40)\n      dup1\n      swap2\n      sub\n      swap1\n      return\n        /* \"contracts/Post.sol\":1966:1985  string public title */\n    tag_8:\n      jumpi(tag_52, iszero(callvalue))\n      0x0\n      dup1\n      revert\n    tag_52:\n      tag_31\n      jump(tag_54)\n        /* \"contracts/Post.sol\":1937:1959  string public username */\n    tag_9:\n      jumpi(tag_59, iszero(callvalue))\n      0x0\n      dup1\n      revert\n    tag_59:\n      tag_31\n      jump(tag_61)\n        /* \"contracts/Post.sol\":3799:3974  function deleteComment(uint index, address _creator) public {\r... */\n    tag_10:\n      jumpi(tag_66, iszero(callvalue))\n      0x0\n      dup1\n      revert\n    tag_66:\n      tag_19\n      calldataload(0x4)\n      and(calldataload(0x24), 0xffffffffffffffffffffffffffffffffffffffff)\n      jump(tag_68)\n        /* \"contracts/Post.sol\":1840:1865  Comment[] public comments */\n    tag_11:\n      jumpi(tag_69, iszero(callvalue))\n      0x0\n      dup1\n      revert\n    tag_69:\n      tag_70\n      calldataload(0x4)\n      jump(tag_71)\n    tag_70:\n      mload(0x40)\n      0xffffffffffffffffffffffffffffffffffffffff\n      dup6\n      and\n      dup2\n      mstore\n      0x60\n      dup2\n      add\n      dup3\n      swap1\n      mstore\n      0x80\n      0x20\n      dup3\n      add\n      dup2\n      dup2\n      mstore\n      dup6\n      sload\n      0x2\n      0x1\n      dup3\n      and\n      iszero\n      0x100\n      mul\n      not(0x0)\n      add\n      swap1\n      swap2\n      and\n      div\n      swap2\n      dup4\n      add\n      dup3\n      swap1\n      mstore\n      swap1\n      0x40\n      dup4\n      add\n      swap1\n      0xa0\n      dup5\n      add\n      swap1\n      dup8\n      swap1\n      dup1\n      iszero\n      tag_72\n      jumpi\n      dup1\n      0x1f\n      lt\n      tag_73\n      jumpi\n      0x100\n      dup1\n      dup4\n      sload\n      div\n      mul\n      dup4\n      mstore\n      swap2\n      0x20\n      add\n      swap2\n      jump(tag_72)\n    tag_73:\n      dup3\n      add\n      swap2\n      swap1\n      0x0\n      mstore\n      keccak256(0x0, 0x20)\n      swap1\n    tag_74:\n      dup2\n      sload\n      dup2\n      mstore\n      swap1\n      0x1\n      add\n      swap1\n      0x20\n      add\n      dup1\n      dup4\n      gt\n      tag_74\n      jumpi\n      dup3\n      swap1\n      sub\n      0x1f\n      and\n      dup3\n      add\n      swap2\n    tag_72:\n      pop\n      pop\n      dup4\n      dup2\n      sub\n      dup3\n      mstore\n      dup6\n      sload\n      0x2\n      0x1\n      dup3\n      and\n      iszero\n      0x100\n      mul\n      not(0x0)\n      add\n      swap1\n      swap2\n      and\n      div\n      dup1\n      dup3\n      mstore\n      0x20\n      swap1\n      swap2\n      add\n      swap1\n      dup7\n      swap1\n      dup1\n      iszero\n      tag_75\n      jumpi\n      dup1\n      0x1f\n      lt\n      tag_76\n      jumpi\n      0x100\n      dup1\n      dup4\n      sload\n      div\n      mul\n      dup4\n      mstore\n      swap2\n      0x20\n      add\n      swap2\n      jump(tag_75)\n    tag_76:\n      dup3\n      add\n      swap2\n      swap1\n      0x0\n      mstore\n      keccak256(0x0, 0x20)\n      swap1\n    tag_77:\n      dup2\n      sload\n      dup2\n      mstore\n      swap1\n      0x1\n      add\n      swap1\n      0x20\n      add\n      dup1\n      dup4\n      gt\n      tag_77\n      jumpi\n      dup3\n      swap1\n      sub\n      0x1f\n      and\n      dup3\n      add\n      swap2\n    tag_75:\n      pop\n      pop\n      swap7\n      pop\n      pop\n      pop\n      pop\n      pop\n      pop\n      pop\n      mload(0x40)\n      dup1\n      swap2\n      sub\n      swap1\n      return\n        /* \"contracts/Post.sol\":2740:3048  function createComment(string memory commentText, string memory user) public {\r... */\n    tag_12:\n      jumpi(tag_78, iszero(callvalue))\n      0x0\n      dup1\n      revert\n    tag_78:\n      tag_19\n      0x4\n      0x24\n      dup2\n      calldataload\n      dup2\n      dup2\n      add\n      swap1\n      dup4\n      add\n      calldataload\n      dup1\n      0x20\n      0x1f\n      dup3\n      add\n      dup2\n      swap1\n      div\n      dup2\n      mul\n      add\n      mload(0x40)\n      swap1\n      dup2\n      add\n      0x40\n      mstore\n      dup2\n      dup2\n      mstore\n      swap3\n      swap2\n      swap1\n      0x20\n      dup5\n      add\n      dup4\n      dup4\n      dup1\n      dup3\n      dup5\n      calldatacopy\n      dup3\n      add\n      swap2\n      pop\n      pop\n      pop\n      pop\n      pop\n      pop\n      swap2\n      swap1\n      dup1\n      calldataload\n      swap1\n      0x20\n      add\n      swap1\n      dup3\n      add\n      dup1\n      calldataload\n      swap1\n      0x20\n      add\n      swap1\n      dup1\n      dup1\n      0x1f\n      add\n      0x20\n      dup1\n      swap2\n      div\n      mul\n      0x20\n      add\n      mload(0x40)\n      swap1\n      dup2\n      add\n      0x40\n      mstore\n      dup2\n      dup2\n      mstore\n      swap3\n      swap2\n      swap1\n      0x20\n      dup5\n      add\n      dup4\n      dup4\n      dup1\n      dup3\n      dup5\n      calldatacopy\n      pop\n      swap5\n      swap7\n      pop\n      tag_80\n      swap6\n      pop\n      pop\n      pop\n      pop\n      pop\n      pop\n      jump\n        /* \"contracts/Post.sol\":2041:2079  mapping(address => bool) public voters */\n    tag_13:\n      jumpi(tag_81, iszero(callvalue))\n      0x0\n      dup1\n      revert\n    tag_81:\n      tag_82\n      and(calldataload(0x4), 0xffffffffffffffffffffffffffffffffffffffff)\n      jump(tag_83)\n    tag_82:\n      mload(0x40)\n      swap1\n      iszero\n      iszero\n      dup2\n      mstore\n      0x20\n      add\n      mload(0x40)\n      dup1\n      swap2\n      sub\n      swap1\n      return\n        /* \"contracts/Post.sol\":4420:4515  function getCommentsCount() public view returns(uint) {\r... */\n    tag_14:\n      jumpi(tag_84, iszero(callvalue))\n      0x0\n      dup1\n      revert\n    tag_84:\n      tag_85\n      jump(tag_86)\n    tag_85:\n      mload(0x40)\n      swap1\n      dup2\n      mstore\n      0x20\n      add\n      mload(0x40)\n      dup1\n      swap2\n      sub\n      swap1\n      return\n        /* \"contracts/Post.sol\":4174:4408  function getCommentSummary(uint commentIndex) public view returns(string memory, string memory, uint) {\r... */\n    tag_15:\n      jumpi(tag_87, iszero(callvalue))\n      0x0\n      dup1\n      revert\n    tag_87:\n      tag_88\n      calldataload(0x4)\n      jump(tag_89)\n    tag_88:\n      mload(0x40)\n      dup1\n      dup1\n      0x20\n      add\n      dup1\n      0x20\n      add\n      dup5\n      dup2\n      mstore\n      0x20\n      add\n      dup4\n      dup2\n      sub\n      dup4\n      mstore\n      dup7\n      dup2\n      dup2\n      mload\n      dup2\n      mstore\n      0x20\n      add\n      swap2\n      pop\n      dup1\n      mload\n      swap1\n      0x20\n      add\n      swap1\n      dup1\n      dup4\n      dup4\n        /* \"--CODEGEN--\":23:24   */\n      0x0\n        /* \"--CODEGEN--\":8:108   */\n    tag_90:\n        /* \"--CODEGEN--\":33:36   */\n      dup4\n        /* \"--CODEGEN--\":30:31   */\n      dup2\n        /* \"--CODEGEN--\":27:29   */\n      lt\n        /* \"--CODEGEN--\":8:108   */\n      iszero\n      tag_91\n      jumpi\n        /* \"--CODEGEN--\":99:100   */\n      dup1\n        /* \"--CODEGEN--\":94:97   */\n      dup3\n        /* \"--CODEGEN--\":90:93   */\n      add\n        /* \"--CODEGEN--\":84:89   */\n      mload\n        /* \"--CODEGEN--\":71:74   */\n      dup4\n      dup3\n      add\n        /* \"--CODEGEN--\":64:70   */\n      mstore\n        /* \"--CODEGEN--\":52:54   */\n      0x20\n        /* \"--CODEGEN--\":45:48   */\n      add\n        /* \"--CODEGEN--\":8:108   */\n      jump(tag_90)\n    tag_91:\n        /* \"--CODEGEN--\":12:26   */\n      pop\n        /* \"--CODEGEN--\":3:112   */\n      pop\n      pop\n      pop\n      swap1\n      pop\n      swap1\n      dup2\n      add\n      swap1\n      0x1f\n      and\n      dup1\n      iszero\n      tag_93\n      jumpi\n      dup1\n      dup3\n      sub\n      dup1\n      mload\n      0x1\n      dup4\n      0x20\n      sub\n      0x100\n      exp\n      sub\n      not\n      and\n      dup2\n      mstore\n      0x20\n      add\n      swap2\n      pop\n    tag_93:\n      pop\n      dup4\n      dup2\n      sub\n      dup3\n      mstore\n      dup6\n      dup2\n      dup2\n      mload\n      dup2\n      mstore\n      0x20\n      add\n      swap2\n      pop\n      dup1\n      mload\n      swap1\n      0x20\n      add\n      swap1\n      dup1\n      dup4\n      dup4\n        /* \"--CODEGEN--\":23:24   */\n      0x0\n        /* \"--CODEGEN--\":8:108   */\n    tag_94:\n        /* \"--CODEGEN--\":33:36   */\n      dup4\n        /* \"--CODEGEN--\":30:31   */\n      dup2\n        /* \"--CODEGEN--\":27:29   */\n      lt\n        /* \"--CODEGEN--\":8:108   */\n      iszero\n      tag_95\n      jumpi\n        /* \"--CODEGEN--\":99:100   */\n      dup1\n        /* \"--CODEGEN--\":94:97   */\n      dup3\n        /* \"--CODEGEN--\":90:93   */\n      add\n        /* \"--CODEGEN--\":84:89   */\n      mload\n        /* \"--CODEGEN--\":71:74   */\n      dup4\n      dup3\n      add\n        /* \"--CODEGEN--\":64:70   */\n      mstore\n        /* \"--CODEGEN--\":52:54   */\n      0x20\n        /* \"--CODEGEN--\":45:48   */\n      add\n        /* \"--CODEGEN--\":8:108   */\n      jump(tag_94)\n    tag_95:\n        /* \"--CODEGEN--\":12:26   */\n      pop\n        /* \"--CODEGEN--\":3:112   */\n      pop\n      pop\n      pop\n      swap1\n      pop\n      swap1\n      dup2\n      add\n      swap1\n      0x1f\n      and\n      dup1\n      iszero\n      tag_97\n      jumpi\n      dup1\n      dup3\n      sub\n      dup1\n      mload\n      0x1\n      dup4\n      0x20\n      sub\n      0x100\n      exp\n      sub\n      not\n      and\n      dup2\n      mstore\n      0x20\n      add\n      swap2\n      pop\n    tag_97:\n      pop\n      swap6\n      pop\n      pop\n      pop\n      pop\n      pop\n      pop\n      mload(0x40)\n      dup1\n      swap2\n      sub\n      swap1\n      return\n        /* \"contracts/Post.sol\":2017:2034  uint public votes */\n    tag_16:\n      jumpi(tag_98, iszero(callvalue))\n      0x0\n      dup1\n      revert\n    tag_98:\n      tag_85\n      jump(tag_100)\n        /* \"contracts/Post.sol\":4527:4615  function getPostCreator() public view returns(address) {\r... */\n    tag_17:\n      jumpi(tag_101, iszero(callvalue))\n      0x0\n      dup1\n      revert\n    tag_101:\n      tag_22\n      jump(tag_103)\n        /* \"contracts/Post.sol\":3352:3787  function voteComment(uint commentIndex) public {\r... */\n    tag_20:\n        /* \"contracts/Post.sol\":3410:3433  Comment storage comment */\n      0x0\n        /* \"contracts/Post.sol\":3436:3444  comments */\n      dup1\n        /* \"contracts/Post.sol\":3445:3457  commentIndex */\n      dup3\n        /* \"contracts/Post.sol\":3436:3458  comments[commentIndex] */\n      dup2\n      sload\n      dup2\n      lt\n      iszero\n      iszero\n      tag_105\n      jumpi\n      invalid\n    tag_105:\n      0x0\n      swap2\n      dup3\n      mstore\n      0x20\n      dup1\n      dup4\n      keccak256\n        /* \"contracts/Post.sol\":3483:3509  comment.voters[msg.sender] */\n      0xffffffffffffffffffffffffffffffffffffffff\n        /* \"contracts/Post.sol\":3498:3508  msg.sender */\n      caller\n        /* \"contracts/Post.sol\":3483:3509  comment.voters[msg.sender] */\n      and\n      dup5\n      mstore\n        /* \"contracts/Post.sol\":3483:3497  comment.voters */\n      0x4\n        /* \"contracts/Post.sol\":3436:3458  comments[commentIndex] */\n      0x5\n      swap1\n      swap4\n      mul\n      add\n        /* \"contracts/Post.sol\":3483:3497  comment.voters */\n      swap2\n      dup3\n      add\n        /* \"contracts/Post.sol\":3483:3509  comment.voters[msg.sender] */\n      swap1\n      mstore\n      0x40\n      swap1\n      swap2\n      keccak256\n      sload\n        /* \"contracts/Post.sol\":3436:3458  comments[commentIndex] */\n      swap1\n      swap2\n      pop\n        /* \"contracts/Post.sol\":3483:3509  comment.voters[msg.sender] */\n      0xff\n      and\n        /* \"contracts/Post.sol\":3482:3509  !comment.voters[msg.sender] */\n      iszero\n        /* \"contracts/Post.sol\":3479:3770  if(!comment.voters[msg.sender]) {\r... */\n      iszero\n      tag_107\n      jumpi\n        /* \"contracts/Post.sol\":3526:3539  comment.votes */\n      0x3\n      dup2\n      add\n        /* \"contracts/Post.sol\":3526:3541  comment.votes++ */\n      dup1\n      sload\n      0x1\n      swap1\n      dup2\n      add\n      swap1\n      swap2\n      sstore\n        /* \"contracts/Post.sol\":3571:3581  msg.sender */\n      caller\n        /* \"contracts/Post.sol\":3556:3582  comment.voters[msg.sender] */\n      0xffffffffffffffffffffffffffffffffffffffff\n      and\n      0x0\n      swap1\n      dup2\n      mstore\n        /* \"contracts/Post.sol\":3556:3570  comment.voters */\n      0x4\n      dup4\n      add\n        /* \"contracts/Post.sol\":3556:3582  comment.voters[msg.sender] */\n      0x20\n      mstore\n      0x40\n      swap1\n      keccak256\n        /* \"contracts/Post.sol\":3556:3589  comment.voters[msg.sender] = true */\n      dup1\n      sload\n      not(0xff)\n      and\n      swap1\n      swap2\n      or\n      swap1\n      sstore\n        /* \"contracts/Post.sol\":3479:3770  if(!comment.voters[msg.sender]) {\r... */\n      jump(tag_109)\n    tag_107:\n        /* \"contracts/Post.sol\":3610:3636  comment.voters[msg.sender] */\n      0xffffffffffffffffffffffffffffffffffffffff\n        /* \"contracts/Post.sol\":3625:3635  msg.sender */\n      caller\n        /* \"contracts/Post.sol\":3610:3636  comment.voters[msg.sender] */\n      and\n      0x0\n      swap1\n      dup2\n      mstore\n        /* \"contracts/Post.sol\":3610:3624  comment.voters */\n      0x4\n      dup3\n      add\n        /* \"contracts/Post.sol\":3610:3636  comment.voters[msg.sender] */\n      0x20\n      mstore\n      0x40\n      swap1\n      keccak256\n      sload\n      0xff\n      and\n        /* \"contracts/Post.sol\":3607:3770  if(comment.voters[msg.sender]) {\r... */\n      iszero\n      tag_109\n      jumpi\n        /* \"contracts/Post.sol\":3661:3674  comment.votes */\n      0x3\n      dup2\n      add\n      sload\n        /* \"contracts/Post.sol\":3677:3678  0 */\n      0x0\n        /* \"contracts/Post.sol\":3661:3678  comment.votes > 0 */\n      swap1\n      gt\n        /* \"contracts/Post.sol\":3653:3679  require(comment.votes > 0) */\n      tag_110\n      jumpi\n      0x0\n      dup1\n      revert\n    tag_110:\n        /* \"contracts/Post.sol\":3694:3707  comment.votes */\n      0x3\n      dup2\n      add\n        /* \"contracts/Post.sol\":3694:3709  comment.votes-- */\n      dup1\n      sload\n      not(0x0)\n      add\n      swap1\n      sstore\n        /* \"contracts/Post.sol\":3739:3749  msg.sender */\n      caller\n        /* \"contracts/Post.sol\":3724:3750  comment.voters[msg.sender] */\n      0xffffffffffffffffffffffffffffffffffffffff\n      and\n      0x0\n      swap1\n      dup2\n      mstore\n        /* \"contracts/Post.sol\":3724:3738  comment.voters */\n      0x4\n      dup3\n      add\n        /* \"contracts/Post.sol\":3724:3750  comment.voters[msg.sender] */\n      0x20\n      mstore\n      0x40\n      swap1\n      keccak256\n        /* \"contracts/Post.sol\":3724:3758  comment.voters[msg.sender] = false */\n      dup1\n      sload\n      not(0xff)\n      and\n      swap1\n      sstore\n        /* \"contracts/Post.sol\":3607:3770  if(comment.voters[msg.sender]) {\r... */\n    tag_109:\n        /* \"contracts/Post.sol\":3352:3787  function voteComment(uint commentIndex) public {\r... */\n      pop\n      pop\n      jump\t// out\n        /* \"contracts/Post.sol\":1908:1930  address public creator */\n    tag_23:\n      and(0xffffffffffffffffffffffffffffffffffffffff, sload(0x2))\n      dup2\n      jump\t// out\n        /* \"contracts/Post.sol\":1872:1901  address public factoryManager */\n    tag_26:\n      and(0xffffffffffffffffffffffffffffffffffffffff, sload(0x1))\n      dup2\n      jump\t// out\n        /* \"contracts/Post.sol\":3060:3340  function votePost() public {\r... */\n    tag_29:\n        /* \"contracts/Post.sol\":3102:3120  voters[msg.sender] */\n      0xffffffffffffffffffffffffffffffffffffffff\n        /* \"contracts/Post.sol\":3109:3119  msg.sender */\n      caller\n        /* \"contracts/Post.sol\":3102:3120  voters[msg.sender] */\n      and\n      0x0\n      swap1\n      dup2\n      mstore\n        /* \"contracts/Post.sol\":3102:3108  voters */\n      0x7\n        /* \"contracts/Post.sol\":3102:3120  voters[msg.sender] */\n      0x20\n      mstore\n      0x40\n      swap1\n      keccak256\n      sload\n      0xff\n      and\n        /* \"contracts/Post.sol\":3101:3120  !voters[msg.sender] */\n      iszero\n        /* \"contracts/Post.sol\":3098:3333  if(!voters[msg.sender]) {\r... */\n      iszero\n      tag_112\n      jumpi\n        /* \"contracts/Post.sol\":3137:3142  votes */\n      0x6\n        /* \"contracts/Post.sol\":3137:3144  votes++ */\n      dup1\n      sload\n      0x1\n      swap1\n      dup2\n      add\n      swap1\n      swap2\n      sstore\n        /* \"contracts/Post.sol\":3166:3176  msg.sender */\n      caller\n        /* \"contracts/Post.sol\":3159:3177  voters[msg.sender] */\n      0xffffffffffffffffffffffffffffffffffffffff\n      and\n      0x0\n      swap1\n      dup2\n      mstore\n        /* \"contracts/Post.sol\":3159:3165  voters */\n      0x7\n        /* \"contracts/Post.sol\":3159:3177  voters[msg.sender] */\n      0x20\n      mstore\n      0x40\n      swap1\n      keccak256\n        /* \"contracts/Post.sol\":3159:3184  voters[msg.sender] = true */\n      dup1\n      sload\n      not(0xff)\n      and\n      swap1\n      swap2\n      or\n      swap1\n      sstore\n        /* \"contracts/Post.sol\":3098:3333  if(!voters[msg.sender]) {\r... */\n      jump(tag_114)\n    tag_112:\n        /* \"contracts/Post.sol\":3205:3223  voters[msg.sender] */\n      0xffffffffffffffffffffffffffffffffffffffff\n        /* \"contracts/Post.sol\":3212:3222  msg.sender */\n      caller\n        /* \"contracts/Post.sol\":3205:3223  voters[msg.sender] */\n      and\n      0x0\n      swap1\n      dup2\n      mstore\n        /* \"contracts/Post.sol\":3205:3211  voters */\n      0x7\n        /* \"contracts/Post.sol\":3205:3223  voters[msg.sender] */\n      0x20\n      mstore\n      0x40\n      swap1\n      keccak256\n      sload\n      0xff\n      and\n        /* \"contracts/Post.sol\":3202:3333  if(voters[msg.sender]) {\r... */\n      iszero\n      tag_114\n      jumpi\n        /* \"contracts/Post.sol\":3248:3253  votes */\n      sload(0x6)\n        /* \"contracts/Post.sol\":3256:3257  0 */\n      0x0\n        /* \"contracts/Post.sol\":3248:3257  votes > 0 */\n      swap1\n      gt\n        /* \"contracts/Post.sol\":3240:3258  require(votes > 0) */\n      tag_115\n      jumpi\n      0x0\n      dup1\n      revert\n    tag_115:\n        /* \"contracts/Post.sol\":3273:3278  votes */\n      0x6\n        /* \"contracts/Post.sol\":3273:3280  votes-- */\n      dup1\n      sload\n      not(0x0)\n      add\n      swap1\n      sstore\n        /* \"contracts/Post.sol\":3302:3312  msg.sender */\n      caller\n        /* \"contracts/Post.sol\":3295:3313  voters[msg.sender] */\n      0xffffffffffffffffffffffffffffffffffffffff\n      and\n      0x0\n      swap1\n      dup2\n      mstore\n        /* \"contracts/Post.sol\":3295:3301  voters */\n      0x7\n        /* \"contracts/Post.sol\":3295:3313  voters[msg.sender] */\n      0x20\n      mstore\n      0x40\n      swap1\n      keccak256\n        /* \"contracts/Post.sol\":3295:3321  voters[msg.sender] = false */\n      dup1\n      sload\n      not(0xff)\n      and\n      swap1\n      sstore\n        /* \"contracts/Post.sol\":3202:3333  if(voters[msg.sender]) {\r... */\n    tag_114:\n        /* \"contracts/Post.sol\":3060:3340  function votePost() public {\r... */\n      jump\t// out\n        /* \"contracts/Post.sol\":1992:2010  string public body */\n    tag_32:\n      0x5\n      dup1\n      sload\n      0x1\n      dup2\n      0x1\n      and\n      iszero\n      0x100\n      mul\n      sub\n      and\n      0x2\n      swap1\n      div\n      dup1\n      0x1f\n      add\n      0x20\n      dup1\n      swap2\n      div\n      mul\n      0x20\n      add\n      mload(0x40)\n      swap1\n      dup2\n      add\n      0x40\n      mstore\n      dup1\n      swap3\n      swap2\n      swap1\n      dup2\n      dup2\n      mstore\n      0x20\n      add\n      dup3\n      dup1\n      sload\n      0x1\n      dup2\n      0x1\n      and\n      iszero\n      0x100\n      mul\n      sub\n      and\n      0x2\n      swap1\n      div\n      dup1\n      iszero\n      tag_116\n      jumpi\n      dup1\n      0x1f\n      lt\n      tag_117\n      jumpi\n      0x100\n      dup1\n      dup4\n      sload\n      div\n      mul\n      dup4\n      mstore\n      swap2\n      0x20\n      add\n      swap2\n      jump(tag_116)\n    tag_117:\n      dup3\n      add\n      swap2\n      swap1\n      0x0\n      mstore\n      keccak256(0x0, 0x20)\n      swap1\n    tag_118:\n      dup2\n      sload\n      dup2\n      mstore\n      swap1\n      0x1\n      add\n      swap1\n      0x20\n      add\n      dup1\n      dup4\n      gt\n      tag_118\n      jumpi\n      dup3\n      swap1\n      sub\n      0x1f\n      and\n      dup3\n      add\n      swap2\n    tag_116:\n      pop\n      pop\n      pop\n      pop\n      pop\n      dup2\n      jump\t// out\n        /* \"contracts/Post.sol\":3986:4162  function getPostSummary() public view returns(string memory, string memory, string memory, uint, uint) {\r... */\n    tag_39:\n        /* \"contracts/Post.sol\":4032:4038  string */\n      tag_119\n      jump\t// in(tag_120)\n    tag_119:\n        /* \"contracts/Post.sol\":4047:4053  string */\n      tag_121\n      jump\t// in(tag_120)\n    tag_121:\n        /* \"contracts/Post.sol\":4062:4068  string */\n      tag_122\n      jump\t// in(tag_120)\n    tag_122:\n        /* \"contracts/Post.sol\":4077:4081  uint */\n      0x0\n        /* \"contracts/Post.sol\":4083:4087  uint */\n      dup1\n        /* \"contracts/Post.sol\":4108:4116  username */\n      0x3\n        /* \"contracts/Post.sol\":4118:4123  title */\n      0x4\n        /* \"contracts/Post.sol\":4125:4129  body */\n      0x5\n        /* \"contracts/Post.sol\":4131:4136  votes */\n      sload(0x6)\n        /* \"contracts/Post.sol\":4138:4146  comments */\n      0x0\n        /* \"contracts/Post.sol\":4138:4153  comments.length */\n      dup1\n      sload\n      swap1\n      pop\n        /* \"contracts/Post.sol\":4100:4154  return (username, title, body, votes, comments.length) */\n      dup5\n      dup1\n      sload\n      0x1\n      dup2\n      0x1\n      and\n      iszero\n      0x100\n      mul\n      sub\n      and\n      0x2\n      swap1\n      div\n      dup1\n      0x1f\n      add\n      0x20\n      dup1\n      swap2\n      div\n      mul\n      0x20\n      add\n      mload(0x40)\n      swap1\n      dup2\n      add\n      0x40\n      mstore\n      dup1\n      swap3\n      swap2\n      swap1\n      dup2\n      dup2\n      mstore\n      0x20\n      add\n      dup3\n      dup1\n      sload\n      0x1\n      dup2\n      0x1\n      and\n      iszero\n      0x100\n      mul\n      sub\n      and\n      0x2\n      swap1\n      div\n      dup1\n      iszero\n      tag_124\n      jumpi\n      dup1\n      0x1f\n      lt\n      tag_125\n      jumpi\n      0x100\n      dup1\n      dup4\n      sload\n      div\n      mul\n      dup4\n      mstore\n      swap2\n      0x20\n      add\n      swap2\n      jump(tag_124)\n    tag_125:\n      dup3\n      add\n      swap2\n      swap1\n      0x0\n      mstore\n      keccak256(0x0, 0x20)\n      swap1\n    tag_126:\n      dup2\n      sload\n      dup2\n      mstore\n      swap1\n      0x1\n      add\n      swap1\n      0x20\n      add\n      dup1\n      dup4\n      gt\n      tag_126\n      jumpi\n      dup3\n      swap1\n      sub\n      0x1f\n      and\n      dup3\n      add\n      swap2\n    tag_124:\n      pop\n      pop\n      pop\n      pop\n      pop\n      swap5\n      pop\n      dup4\n      dup1\n      sload\n      0x1\n      dup2\n      0x1\n      and\n      iszero\n      0x100\n      mul\n      sub\n      and\n      0x2\n      swap1\n      div\n      dup1\n      0x1f\n      add\n      0x20\n      dup1\n      swap2\n      div\n      mul\n      0x20\n      add\n      mload(0x40)\n      swap1\n      dup2\n      add\n      0x40\n      mstore\n      dup1\n      swap3\n      swap2\n      swap1\n      dup2\n      dup2\n      mstore\n      0x20\n      add\n      dup3\n      dup1\n      sload\n      0x1\n      dup2\n      0x1\n      and\n      iszero\n      0x100\n      mul\n      sub\n      and\n      0x2\n      swap1\n      div\n      dup1\n      iszero\n      tag_127\n      jumpi\n      dup1\n      0x1f\n      lt\n      tag_128\n      jumpi\n      0x100\n      dup1\n      dup4\n      sload\n      div\n      mul\n      dup4\n      mstore\n      swap2\n      0x20\n      add\n      swap2\n      jump(tag_127)\n    tag_128:\n      dup3\n      add\n      swap2\n      swap1\n      0x0\n      mstore\n      keccak256(0x0, 0x20)\n      swap1\n    tag_129:\n      dup2\n      sload\n      dup2\n      mstore\n      swap1\n      0x1\n      add\n      swap1\n      0x20\n      add\n      dup1\n      dup4\n      gt\n      tag_129\n      jumpi\n      dup3\n      swap1\n      sub\n      0x1f\n      and\n      dup3\n      add\n      swap2\n    tag_127:\n      pop\n      pop\n      pop\n      pop\n      pop\n      swap4\n      pop\n      dup3\n      dup1\n      sload\n      0x1\n      dup2\n      0x1\n      and\n      iszero\n      0x100\n      mul\n      sub\n      and\n      0x2\n      swap1\n      div\n      dup1\n      0x1f\n      add\n      0x20\n      dup1\n      swap2\n      div\n      mul\n      0x20\n      add\n      mload(0x40)\n      swap1\n      dup2\n      add\n      0x40\n      mstore\n      dup1\n      swap3\n      swap2\n      swap1\n      dup2\n      dup2\n      mstore\n      0x20\n      add\n      dup3\n      dup1\n      sload\n      0x1\n      dup2\n      0x1\n      and\n      iszero\n      0x100\n      mul\n      sub\n      and\n      0x2\n      swap1\n      div\n      dup1\n      iszero\n      tag_130\n      jumpi\n      dup1\n      0x1f\n      lt\n      tag_131\n      jumpi\n      0x100\n      dup1\n      dup4\n      sload\n      div\n      mul\n      dup4\n      mstore\n      swap2\n      0x20\n      add\n      swap2\n      jump(tag_130)\n    tag_131:\n      dup3\n      add\n      swap2\n      swap1\n      0x0\n      mstore\n      keccak256(0x0, 0x20)\n      swap1\n    tag_132:\n      dup2\n      sload\n      dup2\n      mstore\n      swap1\n      0x1\n      add\n      swap1\n      0x20\n      add\n      dup1\n      dup4\n      gt\n      tag_132\n      jumpi\n      dup3\n      swap1\n      sub\n      0x1f\n      and\n      dup3\n      add\n      swap2\n    tag_130:\n      pop\n      pop\n      pop\n      pop\n      pop\n      swap3\n      pop\n      swap5\n      pop\n      swap5\n      pop\n      swap5\n      pop\n      swap5\n      pop\n      swap5\n      pop\n        /* \"contracts/Post.sol\":3986:4162  function getPostSummary() public view returns(string memory, string memory, string memory, uint, uint) {\r... */\n      swap1\n      swap2\n      swap3\n      swap4\n      swap5\n      jump\t// out\n        /* \"contracts/Post.sol\":1966:1985  string public title */\n    tag_54:\n      0x4\n      dup1\n      sload\n      0x1\n      dup2\n      0x1\n      and\n      iszero\n      0x100\n      mul\n      sub\n      and\n      0x2\n      swap1\n      div\n      dup1\n      0x1f\n      add\n      0x20\n      dup1\n      swap2\n      div\n      mul\n      0x20\n      add\n      mload(0x40)\n      swap1\n      dup2\n      add\n      0x40\n      mstore\n      dup1\n      swap3\n      swap2\n      swap1\n      dup2\n      dup2\n      mstore\n      0x20\n      add\n      dup3\n      dup1\n      sload\n      0x1\n      dup2\n      0x1\n      and\n      iszero\n      0x100\n      mul\n      sub\n      and\n      0x2\n      swap1\n      div\n      dup1\n      iszero\n      tag_116\n      jumpi\n      dup1\n      0x1f\n      lt\n      tag_117\n      jumpi\n      0x100\n      dup1\n      dup4\n      sload\n      div\n      mul\n      dup4\n      mstore\n      swap2\n      0x20\n      add\n      swap2\n      jump(tag_116)\n        /* \"contracts/Post.sol\":1937:1959  string public username */\n    tag_61:\n      0x3\n      dup1\n      sload\n      0x1\n      dup2\n      0x1\n      and\n      iszero\n      0x100\n      mul\n      sub\n      and\n      0x2\n      swap1\n      div\n      dup1\n      0x1f\n      add\n      0x20\n      dup1\n      swap2\n      div\n      mul\n      0x20\n      add\n      mload(0x40)\n      swap1\n      dup2\n      add\n      0x40\n      mstore\n      dup1\n      swap3\n      swap2\n      swap1\n      dup2\n      dup2\n      mstore\n      0x20\n      add\n      dup3\n      dup1\n      sload\n      0x1\n      dup2\n      0x1\n      and\n      iszero\n      0x100\n      mul\n      sub\n      and\n      0x2\n      swap1\n      div\n      dup1\n      iszero\n      tag_116\n      jumpi\n      dup1\n      0x1f\n      lt\n      tag_117\n      jumpi\n      0x100\n      dup1\n      dup4\n      sload\n      div\n      mul\n      dup4\n      mstore\n      swap2\n      0x20\n      add\n      swap2\n      jump(tag_116)\n        /* \"contracts/Post.sol\":3799:3974  function deleteComment(uint index, address _creator) public {\r... */\n    tag_68:\n        /* \"contracts/Post.sol\":3892:3906  factoryManager */\n      sload(0x1)\n        /* \"contracts/Post.sol\":3878:3888  msg.sender */\n      caller\n        /* \"contracts/Post.sol\":3892:3906  factoryManager */\n      0xffffffffffffffffffffffffffffffffffffffff\n        /* \"contracts/Post.sol\":3878:3906  msg.sender == factoryManager */\n      swap1\n      dup2\n      and\n        /* \"contracts/Post.sol\":3892:3906  factoryManager */\n      swap2\n      and\n        /* \"contracts/Post.sol\":3878:3906  msg.sender == factoryManager */\n      eq\n      dup1\n        /* \"contracts/Post.sol\":3878:3932  msg.sender == factoryManager || msg.sender == _creator */\n      tag_140\n      jumpi\n      pop\n        /* \"contracts/Post.sol\":3924:3932  _creator */\n      dup1\n        /* \"contracts/Post.sol\":3910:3932  msg.sender == _creator */\n      0xffffffffffffffffffffffffffffffffffffffff\n      and\n        /* \"contracts/Post.sol\":3910:3920  msg.sender */\n      caller\n        /* \"contracts/Post.sol\":3910:3932  msg.sender == _creator */\n      0xffffffffffffffffffffffffffffffffffffffff\n      and\n      eq\n        /* \"contracts/Post.sol\":3878:3932  msg.sender == factoryManager || msg.sender == _creator */\n    tag_140:\n        /* \"contracts/Post.sol\":3870:3933  require(msg.sender == factoryManager || msg.sender == _creator) */\n      iszero\n      iszero\n      tag_141\n      jumpi\n      0x0\n      dup1\n      revert\n    tag_141:\n        /* \"contracts/Post.sol\":3951:3959  comments */\n      0x0\n        /* \"contracts/Post.sol\":3951:3966  comments[index] */\n      dup1\n      sload\n        /* \"contracts/Post.sol\":3960:3965  index */\n      dup4\n      swap1\n        /* \"contracts/Post.sol\":3951:3966  comments[index] */\n      dup2\n      lt\n      tag_142\n      jumpi\n      invalid\n    tag_142:\n      0x0\n      swap2\n      dup3\n      mstore\n      0x20\n      dup3\n      keccak256\n      0x5\n      swap1\n      swap2\n      mul\n      add\n        /* \"contracts/Post.sol\":3944:3966  delete comments[index] */\n      dup1\n      sload\n      not(0xffffffffffffffffffffffffffffffffffffffff)\n      and\n      dup2\n      sstore\n        /* \"contracts/Post.sol\":3951:3966  comments[index] */\n      swap1\n        /* \"contracts/Post.sol\":3944:3966  delete comments[index] */\n      tag_144\n      0x1\n      dup4\n      add\n        /* \"contracts/Post.sol\":3951:3966  comments[index] */\n      dup3\n        /* \"contracts/Post.sol\":3944:3966  delete comments[index] */\n      jump\t// in(tag_145)\n    tag_144:\n      tag_146\n      0x2\n      dup4\n      add\n      0x0\n      jump\t// in(tag_145)\n    tag_146:\n      0x3\n      dup3\n      add\n      0x0\n      swap1\n      sstore\n      pop\n      pop\n        /* \"contracts/Post.sol\":3799:3974  function deleteComment(uint index, address _creator) public {\r... */\n      pop\n      pop\n      jump\t// out\n        /* \"contracts/Post.sol\":1840:1865  Comment[] public comments */\n    tag_71:\n      0x0\n      dup1\n      sload\n      dup3\n      swap1\n      dup2\n      lt\n      tag_147\n      jumpi\n      invalid\n    tag_147:\n      0x0\n      swap2\n      dup3\n      mstore\n      0x20\n      swap1\n      swap2\n      keccak256\n      0x5\n      swap1\n      swap2\n      mul\n      add\n      dup1\n      sload\n      0x3\n      dup3\n      add\n      sload\n      0xffffffffffffffffffffffffffffffffffffffff\n      swap1\n      swap2\n      and\n      swap3\n      pop\n      0x1\n      dup3\n      add\n      swap2\n      0x2\n      add\n      swap1\n      dup5\n      jump\t// out\n        /* \"contracts/Post.sol\":2740:3048  function createComment(string memory commentText, string memory user) public {\r... */\n    tag_80:\n        /* \"contracts/Post.sol\":2828:2853  Comment memory newComment */\n      tag_149\n      jump\t// in(tag_150)\n    tag_149:\n        /* \"contracts/Post.sol\":2856:2994  Comment({\r... */\n      0x80\n      mload(0x40)\n      swap1\n      dup2\n      add\n      0x40\n      mstore\n      dup1\n        /* \"contracts/Post.sol\":2888:2898  msg.sender */\n      caller\n        /* \"contracts/Post.sol\":2856:2994  Comment({\r... */\n      0xffffffffffffffffffffffffffffffffffffffff\n      and\n      dup2\n      mstore\n      0x20\n      add\n        /* \"contracts/Post.sol\":2978:2982  user */\n      dup4\n        /* \"contracts/Post.sol\":2856:2994  Comment({\r... */\n      dup2\n      mstore\n      0x20\n      add\n        /* \"contracts/Post.sol\":2919:2930  commentText */\n      dup5\n        /* \"contracts/Post.sol\":2856:2994  Comment({\r... */\n      dup2\n      mstore\n      0x20\n      add\n        /* \"contracts/Post.sol\":2952:2953  0 */\n      0x0\n        /* \"contracts/Post.sol\":2856:2994  Comment({\r... */\n      dup2\n      mstore\n      pop\n        /* \"contracts/Post.sol\":2828:2994  Comment memory newComment = Comment({\r... */\n      swap1\n      pop\n        /* \"contracts/Post.sol\":3015:3023  comments */\n      0x0\n        /* \"contracts/Post.sol\":3015:3040  comments.push(newComment) */\n      dup1\n      sload\n      dup1\n      0x1\n      add\n      dup3\n      dup2\n      tag_152\n      swap2\n      swap1\n      jump\t// in(tag_153)\n    tag_152:\n      0x0\n      swap3\n      dup4\n      mstore\n      0x20\n      swap1\n      swap3\n      keccak256\n        /* \"contracts/Post.sol\":3029:3039  newComment */\n      dup4\n      swap2\n        /* \"contracts/Post.sol\":3015:3040  comments.push(newComment) */\n      0x5\n      mul\n      add\n        /* \"contracts/Post.sol\":3029:3039  newComment */\n      dup2\n        /* \"contracts/Post.sol\":3015:3040  comments.push(newComment) */\n      mload\n      dup2\n      sload\n      not(0xffffffffffffffffffffffffffffffffffffffff)\n      and\n      0xffffffffffffffffffffffffffffffffffffffff\n      swap2\n      swap1\n      swap2\n      and\n      or\n      dup2\n      sstore\n      0x20\n      dup3\n      add\n      mload\n      dup2\n      0x1\n      add\n      swap1\n      dup1\n      mload\n      tag_155\n      swap3\n      swap2\n      0x20\n      add\n      swap1\n      jump\t// in(tag_156)\n    tag_155:\n      pop\n      0x40\n      dup3\n      add\n      mload\n      dup2\n      0x2\n      add\n      swap1\n      dup1\n      mload\n      tag_157\n      swap3\n      swap2\n      0x20\n      add\n      swap1\n      jump\t// in(tag_156)\n    tag_157:\n      pop\n      0x60\n      dup3\n      add\n      mload\n      dup2\n      0x3\n      add\n      sstore\n      pop\n      pop\n      pop\n        /* \"contracts/Post.sol\":2740:3048  function createComment(string memory commentText, string memory user) public {\r... */\n      pop\n      pop\n      pop\n      jump\t// out\n        /* \"contracts/Post.sol\":2041:2079  mapping(address => bool) public voters */\n    tag_83:\n      mstore(0x20, 0x7)\n      0x0\n      swap1\n      dup2\n      mstore\n      0x40\n      swap1\n      keccak256\n      sload\n      0xff\n      and\n      dup2\n      jump\t// out\n        /* \"contracts/Post.sol\":4420:4515  function getCommentsCount() public view returns(uint) {\r... */\n    tag_86:\n        /* \"contracts/Post.sol\":4468:4472  uint */\n      0x0\n        /* \"contracts/Post.sol\":4492:4507  comments.length */\n      sload\n        /* \"contracts/Post.sol\":4420:4515  function getCommentsCount() public view returns(uint) {\r... */\n    tag_158:\n      swap1\n      jump\t// out\n        /* \"contracts/Post.sol\":4174:4408  function getCommentSummary(uint commentIndex) public view returns(string memory, string memory, uint) {\r... */\n    tag_89:\n        /* \"contracts/Post.sol\":4240:4246  string */\n      tag_159\n      jump\t// in(tag_120)\n    tag_159:\n        /* \"contracts/Post.sol\":4255:4261  string */\n      tag_160\n      jump\t// in(tag_120)\n    tag_160:\n        /* \"contracts/Post.sol\":4270:4274  uint */\n      0x0\n        /* \"contracts/Post.sol\":4287:4310  Comment storage comment */\n      dup1\n        /* \"contracts/Post.sol\":4313:4321  comments */\n      0x0\n        /* \"contracts/Post.sol\":4322:4334  commentIndex */\n      dup6\n        /* \"contracts/Post.sol\":4313:4335  comments[commentIndex] */\n      dup2\n      sload\n      dup2\n      lt\n      iszero\n      iszero\n      tag_162\n      jumpi\n      invalid\n    tag_162:\n      swap1\n      0x0\n      mstore\n      keccak256(0x0, 0x20)\n      swap1\n      0x5\n      mul\n      add\n        /* \"contracts/Post.sol\":4287:4335  Comment storage comment = comments[commentIndex] */\n      swap1\n      pop\n        /* \"contracts/Post.sol\":4354:4361  comment */\n      dup1\n        /* \"contracts/Post.sol\":4354:4370  comment.username */\n      0x1\n      add\n        /* \"contracts/Post.sol\":4372:4379  comment */\n      dup2\n        /* \"contracts/Post.sol\":4372:4384  comment.text */\n      0x2\n      add\n        /* \"contracts/Post.sol\":4386:4393  comment */\n      dup3\n        /* \"contracts/Post.sol\":4386:4399  comment.votes */\n      0x3\n      add\n      sload\n        /* \"contracts/Post.sol\":4346:4400  return (comment.username, comment.text, comment.votes) */\n      dup3\n      dup1\n      sload\n      0x1\n      dup2\n      0x1\n      and\n      iszero\n      0x100\n      mul\n      sub\n      and\n      0x2\n      swap1\n      div\n      dup1\n      0x1f\n      add\n      0x20\n      dup1\n      swap2\n      div\n      mul\n      0x20\n      add\n      mload(0x40)\n      swap1\n      dup2\n      add\n      0x40\n      mstore\n      dup1\n      swap3\n      swap2\n      swap1\n      dup2\n      dup2\n      mstore\n      0x20\n      add\n      dup3\n      dup1\n      sload\n      0x1\n      dup2\n      0x1\n      and\n      iszero\n      0x100\n      mul\n      sub\n      and\n      0x2\n      swap1\n      div\n      dup1\n      iszero\n      tag_164\n      jumpi\n      dup1\n      0x1f\n      lt\n      tag_165\n      jumpi\n      0x100\n      dup1\n      dup4\n      sload\n      div\n      mul\n      dup4\n      mstore\n      swap2\n      0x20\n      add\n      swap2\n      jump(tag_164)\n    tag_165:\n      dup3\n      add\n      swap2\n      swap1\n      0x0\n      mstore\n      keccak256(0x0, 0x20)\n      swap1\n    tag_166:\n      dup2\n      sload\n      dup2\n      mstore\n      swap1\n      0x1\n      add\n      swap1\n      0x20\n      add\n      dup1\n      dup4\n      gt\n      tag_166\n      jumpi\n      dup3\n      swap1\n      sub\n      0x1f\n      and\n      dup3\n      add\n      swap2\n    tag_164:\n      pop\n      pop\n      pop\n      pop\n      pop\n      swap3\n      pop\n      dup2\n      dup1\n      sload\n      0x1\n      dup2\n      0x1\n      and\n      iszero\n      0x100\n      mul\n      sub\n      and\n      0x2\n      swap1\n      div\n      dup1\n      0x1f\n      add\n      0x20\n      dup1\n      swap2\n      div\n      mul\n      0x20\n      add\n      mload(0x40)\n      swap1\n      dup2\n      add\n      0x40\n      mstore\n      dup1\n      swap3\n      swap2\n      swap1\n      dup2\n      dup2\n      mstore\n      0x20\n      add\n      dup3\n      dup1\n      sload\n      0x1\n      dup2\n      0x1\n      and\n      iszero\n      0x100\n      mul\n      sub\n      and\n      0x2\n      swap1\n      div\n      dup1\n      iszero\n      tag_167\n      jumpi\n      dup1\n      0x1f\n      lt\n      tag_168\n      jumpi\n      0x100\n      dup1\n      dup4\n      sload\n      div\n      mul\n      dup4\n      mstore\n      swap2\n      0x20\n      add\n      swap2\n      jump(tag_167)\n    tag_168:\n      dup3\n      add\n      swap2\n      swap1\n      0x0\n      mstore\n      keccak256(0x0, 0x20)\n      swap1\n    tag_169:\n      dup2\n      sload\n      dup2\n      mstore\n      swap1\n      0x1\n      add\n      swap1\n      0x20\n      add\n      dup1\n      dup4\n      gt\n      tag_169\n      jumpi\n      dup3\n      swap1\n      sub\n      0x1f\n      and\n      dup3\n      add\n      swap2\n    tag_167:\n      pop\n      pop\n      pop\n      pop\n      pop\n      swap2\n      pop\n      swap4\n      pop\n      swap4\n      pop\n      swap4\n      pop\n        /* \"contracts/Post.sol\":4174:4408  function getCommentSummary(uint commentIndex) public view returns(string memory, string memory, uint) {\r... */\n      pop\n      swap2\n      swap4\n      swap1\n      swap3\n      pop\n      jump\t// out\n        /* \"contracts/Post.sol\":2017:2034  uint public votes */\n    tag_100:\n      sload(0x6)\n      dup2\n      jump\t// out\n        /* \"contracts/Post.sol\":4527:4615  function getPostCreator() public view returns(address) {\r... */\n    tag_103:\n        /* \"contracts/Post.sol\":4600:4607  creator */\n      and(0xffffffffffffffffffffffffffffffffffffffff, sload(0x2))\n        /* \"contracts/Post.sol\":4527:4615  function getPostCreator() public view returns(address) {\r... */\n      swap1\n      jump\t// out\n        /* \"contracts/Post.sol\":1647:4618  contract Post {\r... */\n    tag_120:\n      0x20\n      mload(0x40)\n      swap1\n      dup2\n      add\n      0x40\n      mstore\n      0x0\n      dup2\n      mstore\n      swap1\n      jump\t// out\n    tag_145:\n      pop\n      dup1\n      sload\n      0x1\n      dup2\n      0x1\n      and\n      iszero\n      0x100\n      mul\n      sub\n      and\n      0x2\n      swap1\n      div\n      0x0\n      dup3\n      sstore\n      dup1\n      0x1f\n      lt\n      tag_172\n      jumpi\n      pop\n      jump(tag_173)\n    tag_172:\n      0x1f\n      add\n      0x20\n      swap1\n      div\n      swap1\n      0x0\n      mstore\n      keccak256(0x0, 0x20)\n      swap1\n      dup2\n      add\n      swap1\n      tag_173\n      swap2\n      swap1\n      jump\t// in(tag_174)\n    tag_173:\n      pop\n      jump\t// out\n    tag_150:\n      0x80\n      mload(0x40)\n      swap1\n      dup2\n      add\n      0x40\n      mstore\n      0x0\n      dup2\n      mstore\n      0x20\n      dup2\n      add\n      tag_175\n      jump\t// in(tag_120)\n    tag_175:\n      dup2\n      mstore\n      0x20\n      add\n      tag_177\n      jump\t// in(tag_120)\n    tag_177:\n      dup2\n      mstore\n      0x20\n      add\n      0x0\n      dup2\n      mstore\n      pop\n      swap1\n      jump\t// out\n    tag_153:\n      dup2\n      sload\n      dup2\n      dup4\n      sstore\n      dup2\n      dup2\n      iszero\n      gt\n      tag_179\n      jumpi\n      0x5\n      mul\n      dup2\n      0x5\n      mul\n      dup4\n      0x0\n      mstore\n      keccak256(0x0, 0x20)\n      swap2\n      dup3\n      add\n      swap2\n      add\n      tag_179\n      swap2\n      swap1\n      jump\t// in(tag_180)\n    tag_179:\n      pop\n      pop\n      pop\n      jump\t// out\n    tag_156:\n      dup3\n      dup1\n      sload\n      0x1\n      dup2\n      0x1\n      and\n      iszero\n      0x100\n      mul\n      sub\n      and\n      0x2\n      swap1\n      div\n      swap1\n      0x0\n      mstore\n      keccak256(0x0, 0x20)\n      swap1\n      0x1f\n      add\n      0x20\n      swap1\n      div\n      dup2\n      add\n      swap3\n      dup3\n      0x1f\n      lt\n      tag_182\n      jumpi\n      dup1\n      mload\n      not(0xff)\n      and\n      dup4\n      dup1\n      add\n      or\n      dup6\n      sstore\n      jump(tag_184)\n    tag_182:\n      dup3\n      dup1\n      add\n      0x1\n      add\n      dup6\n      sstore\n      dup3\n      iszero\n      tag_184\n      jumpi\n      swap2\n      dup3\n      add\n    tag_183:\n      dup3\n      dup2\n      gt\n      iszero\n      tag_184\n      jumpi\n      dup3\n      mload\n      dup3\n      sstore\n      swap2\n      0x20\n      add\n      swap2\n      swap1\n      0x1\n      add\n      swap1\n      jump(tag_183)\n    tag_184:\n      pop\n      tag_185\n      swap3\n      swap2\n      pop\n      jump\t// in(tag_174)\n    tag_185:\n      pop\n      swap1\n      jump\t// out\n    tag_174:\n      tag_158\n      swap2\n      swap1\n    tag_187:\n      dup1\n      dup3\n      gt\n      iszero\n      tag_185\n      jumpi\n      0x0\n      dup2\n      sstore\n      0x1\n      add\n      jump(tag_187)\n    tag_180:\n      tag_158\n      swap2\n      swap1\n    tag_190:\n      dup1\n      dup3\n      gt\n      iszero\n      tag_185\n      jumpi\n      dup1\n      sload\n      0xffffffffffffffffffffffff0000000000000000000000000000000000000000\n      and\n      dup2\n      sstore\n      0x0\n      tag_192\n      0x1\n      dup4\n      add\n      dup3\n      jump\t// in(tag_145)\n    tag_192:\n      tag_193\n      0x2\n      dup4\n      add\n      0x0\n      jump\t// in(tag_145)\n    tag_193:\n      pop\n      0x0\n      0x3\n      dup3\n      add\n      sstore\n      0x5\n      add\n      jump(tag_190)\n\n    auxdata: 0xa165627a7a7230582050500cb495f275f249f368664dca79cc71788853c169fb52ba9737e598d567ba0029\n}\n",
        "bytecode": {
          "linkReferences": {},
          "object": "606060405234156200001057600080fd5b604051620013e1380380620013e1833981016040528080519190602001805182019190602001805182019190602001805182019190602001805160028054600160a060020a031916600160a060020a0389161790559150600490508480516200007e929160200190620000db565b50600583805162000094929160200190620000db565b5060006006556003828051620000af929160200190620000db565b5060018054600160a060020a031916600160a060020a0392909216919091179055506200018092505050565b828054600181600116156101000203166002900490600052602060002090601f016020900481019282601f106200011e57805160ff19168380011785556200014e565b828001600101855582156200014e579182015b828111156200014e57825182559160200191906001019062000131565b506200015c92915062000160565b5090565b6200017d91905b808211156200015c576000815560010162000167565b90565b61125180620001906000396000f300606060405236156100e35763ffffffff7c01000000000000000000000000000000000000000000000000000000006000350416630114b9d181146100e857806302d05d3f14610100578063032b5a731461013c5780630bfb7de91461014f578063364497e414610162578063443fb57e146101ec5780634a79d50c1461035757806361fac54d1461036a5780638b47462c1461037d5780638ebb4c15146103ac578063a1edee49146104ea578063a3ec138d1461057d578063c1c1066b146105bd578063c8de7279146105e2578063e168c3ec146106e0578063f5b5709b146106f3575b600080fd5b34156100f357600080fd5b6100fe600435610706565b005b341561010b57600080fd5b61011361081f565b60405173ffffffffffffffffffffffffffffffffffffffff909116815260200160405180910390f35b341561014757600080fd5b61011361083b565b341561015a57600080fd5b6100fe610857565b341561016d57600080fd5b61017561093f565b60405160208082528190810183818151815260200191508051906020019080838360005b838110156101b1578082015183820152602001610199565b50505050905090810190601f1680156101de5780820380516001836020036101000a031916815260200191505b509250505060405180910390f35b34156101f757600080fd5b6101ff6109dd565b60405180806020018060200180602001868152602001858152602001848103845289818151815260200191508051906020019080838360005b83811015610250578082015183820152602001610238565b50505050905090810190601f16801561027d5780820380516001836020036101000a031916815260200191505b50848103835288818151815260200191508051906020019080838360005b838110156102b357808201518382015260200161029b565b50505050905090810190601f1680156102e05780820380516001836020036101000a031916815260200191505b50848103825287818151815260200191508051906020019080838360005b838110156103165780820151838201526020016102fe565b50505050905090810190601f1680156103435780820380516001836020036101000a031916815260200191505b509850505050505050505060405180910390f35b341561036257600080fd5b610175610bec565b341561037557600080fd5b610175610c57565b341561038857600080fd5b6100fe60043573ffffffffffffffffffffffffffffffffffffffff60243516610cc2565b34156103b757600080fd5b6103c2600435610d84565b60405173ffffffffffffffffffffffffffffffffffffffff851681526060810182905260806020820181815285546002600019610100600184161502019091160491830182905290604083019060a0840190879080156104635780601f1061043857610100808354040283529160200191610463565b820191906000526020600020905b81548152906001019060200180831161044657829003601f168201915b50508381038252855460026000196101006001841615020190911604808252602090910190869080156104d75780601f106104ac576101008083540402835291602001916104d7565b820191906000526020600020905b8154815290600101906020018083116104ba57829003601f168201915b5050965050505050505060405180910390f35b34156104f557600080fd5b6100fe60046024813581810190830135806020601f8201819004810201604051908101604052818152929190602084018383808284378201915050505050509190803590602001908201803590602001908080601f016020809104026020016040519081016040528181529291906020840183838082843750949650610dcf95505050505050565b341561058857600080fd5b6105a973ffffffffffffffffffffffffffffffffffffffff60043516610eb5565b604051901515815260200160405180910390f35b34156105c857600080fd5b6105d0610eca565b60405190815260200160405180910390f35b34156105ed57600080fd5b6105f8600435610ed1565b604051808060200180602001848152602001838103835286818151815260200191508051906020019080838360005b8381101561063f578082015183820152602001610627565b50505050905090810190601f16801561066c5780820380516001836020036101000a031916815260200191505b50838103825285818151815260200191508051906020019080838360005b838110156106a257808201518382015260200161068a565b50505050905090810190601f1680156106cf5780820380516001836020036101000a031916815260200191505b509550505050505060405180910390f35b34156106eb57600080fd5b6105d0611056565b34156106fe57600080fd5b61011361105c565b6000808281548110151561071657fe5b6000918252602080832073ffffffffffffffffffffffffffffffffffffffff331684526004600590930201918201905260409091205490915060ff16151561079d57600381018054600190810190915573ffffffffffffffffffffffffffffffffffffffff331660009081526004830160205260409020805460ff1916909117905561081b565b73ffffffffffffffffffffffffffffffffffffffff3316600090815260048201602052604090205460ff161561081b576003810154600090116107df57600080fd5b60038101805460001901905573ffffffffffffffffffffffffffffffffffffffff331660009081526004820160205260409020805460ff191690555b5050565b60025473ffffffffffffffffffffffffffffffffffffffff1681565b60015473ffffffffffffffffffffffffffffffffffffffff1681565b73ffffffffffffffffffffffffffffffffffffffff331660009081526007602052604090205460ff1615156108c75760068054600190810190915573ffffffffffffffffffffffffffffffffffffffff33166000908152600760205260409020805460ff1916909117905561093d565b73ffffffffffffffffffffffffffffffffffffffff331660009081526007602052604090205460ff161561093d576006546000901161090557600080fd5b6006805460001901905573ffffffffffffffffffffffffffffffffffffffff33166000908152600760205260409020805460ff191690555b565b60058054600181600116156101000203166002900480601f0160208091040260200160405190810160405280929190818152602001828054600181600116156101000203166002900480156109d55780601f106109aa576101008083540402835291602001916109d5565b820191906000526020600020905b8154815290600101906020018083116109b857829003601f168201915b505050505081565b6109e5611078565b6109ed611078565b6109f5611078565b600080600360046005600654600080549050848054600181600116156101000203166002900480601f016020809104026020016040519081016040528092919081815260200182805460018160011615610100020316600290048015610a9c5780601f10610a7157610100808354040283529160200191610a9c565b820191906000526020600020905b815481529060010190602001808311610a7f57829003601f168201915b50505050509450838054600181600116156101000203166002900480601f016020809104026020016040519081016040528092919081815260200182805460018160011615610100020316600290048015610b385780601f10610b0d57610100808354040283529160200191610b38565b820191906000526020600020905b815481529060010190602001808311610b1b57829003601f168201915b50505050509350828054600181600116156101000203166002900480601f016020809104026020016040519081016040528092919081815260200182805460018160011615610100020316600290048015610bd45780601f10610ba957610100808354040283529160200191610bd4565b820191906000526020600020905b815481529060010190602001808311610bb757829003601f168201915b50505050509250945094509450945094509091929394565b60048054600181600116156101000203166002900480601f0160208091040260200160405190810160405280929190818152602001828054600181600116156101000203166002900480156109d55780601f106109aa576101008083540402835291602001916109d5565b60038054600181600116156101000203166002900480601f0160208091040260200160405190810160405280929190818152602001828054600181600116156101000203166002900480156109d55780601f106109aa576101008083540402835291602001916109d5565b6001543373ffffffffffffffffffffffffffffffffffffffff90811691161480610d1757508073ffffffffffffffffffffffffffffffffffffffff163373ffffffffffffffffffffffffffffffffffffffff16145b1515610d2257600080fd5b6000805483908110610d3057fe5b600091825260208220600590910201805473ffffffffffffffffffffffffffffffffffffffff1916815590610d68600183018261108a565b610d7660028301600061108a565b600382016000905550505050565b6000805482908110610d9257fe5b600091825260209091206005909102018054600382015473ffffffffffffffffffffffffffffffffffffffff909116925060018201916002019084565b610dd76110d1565b6080604051908101604052803373ffffffffffffffffffffffffffffffffffffffff1681526020018381526020018481526020016000815250905060008054806001018281610e269190611106565b600092835260209092208391600502018151815473ffffffffffffffffffffffffffffffffffffffff191673ffffffffffffffffffffffffffffffffffffffff91909116178155602082015181600101908051610e87929160200190611137565b50604082015181600201908051610ea2929160200190611137565b5060608201518160030155505050505050565b60076020526000908152604090205460ff1681565b6000545b90565b610ed9611078565b610ee1611078565b600080600085815481101515610ef357fe5b9060005260206000209060050201905080600101816002018260030154828054600181600116156101000203166002900480601f016020809104026020016040519081016040528092919081815260200182805460018160011615610100020316600290048015610fa55780601f10610f7a57610100808354040283529160200191610fa5565b820191906000526020600020905b815481529060010190602001808311610f8857829003601f168201915b50505050509250818054600181600116156101000203166002900480601f0160208091040260200160405190810160405280929190818152602001828054600181600116156101000203166002900480156110415780601f1061101657610100808354040283529160200191611041565b820191906000526020600020905b81548152906001019060200180831161102457829003601f168201915b50505050509150935093509350509193909250565b60065481565b60025473ffffffffffffffffffffffffffffffffffffffff1690565b60206040519081016040526000815290565b50805460018160011615610100020316600290046000825580601f106110b057506110ce565b601f0160209004906000526020600020908101906110ce91906111b5565b50565b608060405190810160405260008152602081016110ec611078565b81526020016110f9611078565b8152602001600081525090565b8154818355818115116111325760050281600502836000526020600020918201910161113291906111cf565b505050565b828054600181600116156101000203166002900490600052602060002090601f016020900481019282601f1061117857805160ff19168380011785556111a5565b828001600101855582156111a5579182015b828111156111a557825182559160200191906001019061118a565b506111b19291506111b5565b5090565b610ece91905b808211156111b157600081556001016111bb565b610ece91905b808211156111b157805473ffffffffffffffffffffffffffffffffffffffff191681556000611207600183018261108a565b61121560028301600061108a565b50600060038201556005016111d55600a165627a7a7230582050500cb495f275f249f368664dca79cc71788853c169fb52ba9737e598d567ba0029",
          "opcodes": "PUSH1 0x60 PUSH1 0x40 MSTORE CALLVALUE ISZERO PUSH3 0x10 JUMPI PUSH1 0x0 DUP1 REVERT JUMPDEST PUSH1 0x40 MLOAD PUSH3 0x13E1 CODESIZE SUB DUP1 PUSH3 0x13E1 DUP4 CODECOPY DUP2 ADD PUSH1 0x40 MSTORE DUP1 DUP1 MLOAD SWAP2 SWAP1 PUSH1 0x20 ADD DUP1 MLOAD DUP3 ADD SWAP2 SWAP1 PUSH1 0x20 ADD DUP1 MLOAD DUP3 ADD SWAP2 SWAP1 PUSH1 0x20 ADD DUP1 MLOAD DUP3 ADD SWAP2 SWAP1 PUSH1 0x20 ADD DUP1 MLOAD PUSH1 0x2 DUP1 SLOAD PUSH1 0x1 PUSH1 0xA0 PUSH1 0x2 EXP SUB NOT AND PUSH1 0x1 PUSH1 0xA0 PUSH1 0x2 EXP SUB DUP10 AND OR SWAP1 SSTORE SWAP2 POP PUSH1 0x4 SWAP1 POP DUP5 DUP1 MLOAD PUSH3 0x7E SWAP3 SWAP2 PUSH1 0x20 ADD SWAP1 PUSH3 0xDB JUMP JUMPDEST POP PUSH1 0x5 DUP4 DUP1 MLOAD PUSH3 0x94 SWAP3 SWAP2 PUSH1 0x20 ADD SWAP1 PUSH3 0xDB JUMP JUMPDEST POP PUSH1 0x0 PUSH1 0x6 SSTORE PUSH1 0x3 DUP3 DUP1 MLOAD PUSH3 0xAF SWAP3 SWAP2 PUSH1 0x20 ADD SWAP1 PUSH3 0xDB JUMP JUMPDEST POP PUSH1 0x1 DUP1 SLOAD PUSH1 0x1 PUSH1 0xA0 PUSH1 0x2 EXP SUB NOT AND PUSH1 0x1 PUSH1 0xA0 PUSH1 0x2 EXP SUB SWAP3 SWAP1 SWAP3 AND SWAP2 SWAP1 SWAP2 OR SWAP1 SSTORE POP PUSH3 0x180 SWAP3 POP POP POP JUMP JUMPDEST DUP3 DUP1 SLOAD PUSH1 0x1 DUP2 PUSH1 0x1 AND ISZERO PUSH2 0x100 MUL SUB AND PUSH1 0x2 SWAP1 DIV SWAP1 PUSH1 0x0 MSTORE PUSH1 0x20 PUSH1 0x0 KECCAK256 SWAP1 PUSH1 0x1F ADD PUSH1 0x20 SWAP1 DIV DUP2 ADD SWAP3 DUP3 PUSH1 0x1F LT PUSH3 0x11E JUMPI DUP1 MLOAD PUSH1 0xFF NOT AND DUP4 DUP1 ADD OR DUP6 SSTORE PUSH3 0x14E JUMP JUMPDEST DUP3 DUP1 ADD PUSH1 0x1 ADD DUP6 SSTORE DUP3 ISZERO PUSH3 0x14E JUMPI SWAP2 DUP3 ADD JUMPDEST DUP3 DUP2 GT ISZERO PUSH3 0x14E JUMPI DUP3 MLOAD DUP3 SSTORE SWAP2 PUSH1 0x20 ADD SWAP2 SWAP1 PUSH1 0x1 ADD SWAP1 PUSH3 0x131 JUMP JUMPDEST POP PUSH3 0x15C SWAP3 SWAP2 POP PUSH3 0x160 JUMP JUMPDEST POP SWAP1 JUMP JUMPDEST PUSH3 0x17D SWAP2 SWAP1 JUMPDEST DUP1 DUP3 GT ISZERO PUSH3 0x15C JUMPI PUSH1 0x0 DUP2 SSTORE PUSH1 0x1 ADD PUSH3 0x167 JUMP JUMPDEST SWAP1 JUMP JUMPDEST PUSH2 0x1251 DUP1 PUSH3 0x190 PUSH1 0x0 CODECOPY PUSH1 0x0 RETURN STOP PUSH1 0x60 PUSH1 0x40 MSTORE CALLDATASIZE ISZERO PUSH2 0xE3 JUMPI PUSH4 0xFFFFFFFF PUSH29 0x100000000000000000000000000000000000000000000000000000000 PUSH1 0x0 CALLDATALOAD DIV AND PUSH4 0x114B9D1 DUP2 EQ PUSH2 0xE8 JUMPI DUP1 PUSH4 0x2D05D3F EQ PUSH2 0x100 JUMPI DUP1 PUSH4 0x32B5A73 EQ PUSH2 0x13C JUMPI DUP1 PUSH4 0xBFB7DE9 EQ PUSH2 0x14F JUMPI DUP1 PUSH4 0x364497E4 EQ PUSH2 0x162 JUMPI DUP1 PUSH4 0x443FB57E EQ PUSH2 0x1EC JUMPI DUP1 PUSH4 0x4A79D50C EQ PUSH2 0x357 JUMPI DUP1 PUSH4 0x61FAC54D EQ PUSH2 0x36A JUMPI DUP1 PUSH4 0x8B47462C EQ PUSH2 0x37D JUMPI DUP1 PUSH4 0x8EBB4C15 EQ PUSH2 0x3AC JUMPI DUP1 PUSH4 0xA1EDEE49 EQ PUSH2 0x4EA JUMPI DUP1 PUSH4 0xA3EC138D EQ PUSH2 0x57D JUMPI DUP1 PUSH4 0xC1C1066B EQ PUSH2 0x5BD JUMPI DUP1 PUSH4 0xC8DE7279 EQ PUSH2 0x5E2 JUMPI DUP1 PUSH4 0xE168C3EC EQ PUSH2 0x6E0 JUMPI DUP1 PUSH4 0xF5B5709B EQ PUSH2 0x6F3 JUMPI JUMPDEST PUSH1 0x0 DUP1 REVERT JUMPDEST CALLVALUE ISZERO PUSH2 0xF3 JUMPI PUSH1 0x0 DUP1 REVERT JUMPDEST PUSH2 0xFE PUSH1 0x4 CALLDATALOAD PUSH2 0x706 JUMP JUMPDEST STOP JUMPDEST CALLVALUE ISZERO PUSH2 0x10B JUMPI PUSH1 0x0 DUP1 REVERT JUMPDEST PUSH2 0x113 PUSH2 0x81F JUMP JUMPDEST PUSH1 0x40 MLOAD PUSH20 0xFFFFFFFFFFFFFFFFFFFFFFFFFFFFFFFFFFFFFFFF SWAP1 SWAP2 AND DUP2 MSTORE PUSH1 0x20 ADD PUSH1 0x40 MLOAD DUP1 SWAP2 SUB SWAP1 RETURN JUMPDEST CALLVALUE ISZERO PUSH2 0x147 JUMPI PUSH1 0x0 DUP1 REVERT JUMPDEST PUSH2 0x113 PUSH2 0x83B JUMP JUMPDEST CALLVALUE ISZERO PUSH2 0x15A JUMPI PUSH1 0x0 DUP1 REVERT JUMPDEST PUSH2 0xFE PUSH2 0x857 JUMP JUMPDEST CALLVALUE ISZERO PUSH2 0x16D JUMPI PUSH1 0x0 DUP1 REVERT JUMPDEST PUSH2 0x175 PUSH2 0x93F JUMP JUMPDEST PUSH1 0x40 MLOAD PUSH1 0x20 DUP1 DUP3 MSTORE DUP2 SWAP1 DUP2 ADD DUP4 DUP2 DUP2 MLOAD DUP2 MSTORE PUSH1 0x20 ADD SWAP2 POP DUP1 MLOAD SWAP1 PUSH1 0x20 ADD SWAP1 DUP1 DUP4 DUP4 PUSH1 0x0 JUMPDEST DUP4 DUP2 LT ISZERO PUSH2 0x1B1 JUMPI DUP1 DUP3 ADD MLOAD DUP4 DUP3 ADD MSTORE PUSH1 0x20 ADD PUSH2 0x199 JUMP JUMPDEST POP POP POP POP SWAP1 POP SWAP1 DUP2 ADD SWAP1 PUSH1 0x1F AND DUP1 ISZERO PUSH2 0x1DE JUMPI DUP1 DUP3 SUB DUP1 MLOAD PUSH1 0x1 DUP4 PUSH1 0x20 SUB PUSH2 0x100 EXP SUB NOT AND DUP2 MSTORE PUSH1 0x20 ADD SWAP2 POP JUMPDEST POP SWAP3 POP POP POP PUSH1 0x40 MLOAD DUP1 SWAP2 SUB SWAP1 RETURN JUMPDEST CALLVALUE ISZERO PUSH2 0x1F7 JUMPI PUSH1 0x0 DUP1 REVERT JUMPDEST PUSH2 0x1FF PUSH2 0x9DD JUMP JUMPDEST PUSH1 0x40 MLOAD DUP1 DUP1 PUSH1 0x20 ADD DUP1 PUSH1 0x20 ADD DUP1 PUSH1 0x20 ADD DUP7 DUP2 MSTORE PUSH1 0x20 ADD DUP6 DUP2 MSTORE PUSH1 0x20 ADD DUP5 DUP2 SUB DUP5 MSTORE DUP10 DUP2 DUP2 MLOAD DUP2 MSTORE PUSH1 0x20 ADD SWAP2 POP DUP1 MLOAD SWAP1 PUSH1 0x20 ADD SWAP1 DUP1 DUP4 DUP4 PUSH1 0x0 JUMPDEST DUP4 DUP2 LT ISZERO PUSH2 0x250 JUMPI DUP1 DUP3 ADD MLOAD DUP4 DUP3 ADD MSTORE PUSH1 0x20 ADD PUSH2 0x238 JUMP JUMPDEST POP POP POP POP SWAP1 POP SWAP1 DUP2 ADD SWAP1 PUSH1 0x1F AND DUP1 ISZERO PUSH2 0x27D JUMPI DUP1 DUP3 SUB DUP1 MLOAD PUSH1 0x1 DUP4 PUSH1 0x20 SUB PUSH2 0x100 EXP SUB NOT AND DUP2 MSTORE PUSH1 0x20 ADD SWAP2 POP JUMPDEST POP DUP5 DUP2 SUB DUP4 MSTORE DUP9 DUP2 DUP2 MLOAD DUP2 MSTORE PUSH1 0x20 ADD SWAP2 POP DUP1 MLOAD SWAP1 PUSH1 0x20 ADD SWAP1 DUP1 DUP4 DUP4 PUSH1 0x0 JUMPDEST DUP4 DUP2 LT ISZERO PUSH2 0x2B3 JUMPI DUP1 DUP3 ADD MLOAD DUP4 DUP3 ADD MSTORE PUSH1 0x20 ADD PUSH2 0x29B JUMP JUMPDEST POP POP POP POP SWAP1 POP SWAP1 DUP2 ADD SWAP1 PUSH1 0x1F AND DUP1 ISZERO PUSH2 0x2E0 JUMPI DUP1 DUP3 SUB DUP1 MLOAD PUSH1 0x1 DUP4 PUSH1 0x20 SUB PUSH2 0x100 EXP SUB NOT AND DUP2 MSTORE PUSH1 0x20 ADD SWAP2 POP JUMPDEST POP DUP5 DUP2 SUB DUP3 MSTORE DUP8 DUP2 DUP2 MLOAD DUP2 MSTORE PUSH1 0x20 ADD SWAP2 POP DUP1 MLOAD SWAP1 PUSH1 0x20 ADD SWAP1 DUP1 DUP4 DUP4 PUSH1 0x0 JUMPDEST DUP4 DUP2 LT ISZERO PUSH2 0x316 JUMPI DUP1 DUP3 ADD MLOAD DUP4 DUP3 ADD MSTORE PUSH1 0x20 ADD PUSH2 0x2FE JUMP JUMPDEST POP POP POP POP SWAP1 POP SWAP1 DUP2 ADD SWAP1 PUSH1 0x1F AND DUP1 ISZERO PUSH2 0x343 JUMPI DUP1 DUP3 SUB DUP1 MLOAD PUSH1 0x1 DUP4 PUSH1 0x20 SUB PUSH2 0x100 EXP SUB NOT AND DUP2 MSTORE PUSH1 0x20 ADD SWAP2 POP JUMPDEST POP SWAP9 POP POP POP POP POP POP POP POP POP PUSH1 0x40 MLOAD DUP1 SWAP2 SUB SWAP1 RETURN JUMPDEST CALLVALUE ISZERO PUSH2 0x362 JUMPI PUSH1 0x0 DUP1 REVERT JUMPDEST PUSH2 0x175 PUSH2 0xBEC JUMP JUMPDEST CALLVALUE ISZERO PUSH2 0x375 JUMPI PUSH1 0x0 DUP1 REVERT JUMPDEST PUSH2 0x175 PUSH2 0xC57 JUMP JUMPDEST CALLVALUE ISZERO PUSH2 0x388 JUMPI PUSH1 0x0 DUP1 REVERT JUMPDEST PUSH2 0xFE PUSH1 0x4 CALLDATALOAD PUSH20 0xFFFFFFFFFFFFFFFFFFFFFFFFFFFFFFFFFFFFFFFF PUSH1 0x24 CALLDATALOAD AND PUSH2 0xCC2 JUMP JUMPDEST CALLVALUE ISZERO PUSH2 0x3B7 JUMPI PUSH1 0x0 DUP1 REVERT JUMPDEST PUSH2 0x3C2 PUSH1 0x4 CALLDATALOAD PUSH2 0xD84 JUMP JUMPDEST PUSH1 0x40 MLOAD PUSH20 0xFFFFFFFFFFFFFFFFFFFFFFFFFFFFFFFFFFFFFFFF DUP6 AND DUP2 MSTORE PUSH1 0x60 DUP2 ADD DUP3 SWAP1 MSTORE PUSH1 0x80 PUSH1 0x20 DUP3 ADD DUP2 DUP2 MSTORE DUP6 SLOAD PUSH1 0x2 PUSH1 0x0 NOT PUSH2 0x100 PUSH1 0x1 DUP5 AND ISZERO MUL ADD SWAP1 SWAP2 AND DIV SWAP2 DUP4 ADD DUP3 SWAP1 MSTORE SWAP1 PUSH1 0x40 DUP4 ADD SWAP1 PUSH1 0xA0 DUP5 ADD SWAP1 DUP8 SWAP1 DUP1 ISZERO PUSH2 0x463 JUMPI DUP1 PUSH1 0x1F LT PUSH2 0x438 JUMPI PUSH2 0x100 DUP1 DUP4 SLOAD DIV MUL DUP4 MSTORE SWAP2 PUSH1 0x20 ADD SWAP2 PUSH2 0x463 JUMP JUMPDEST DUP3 ADD SWAP2 SWAP1 PUSH1 0x0 MSTORE PUSH1 0x20 PUSH1 0x0 KECCAK256 SWAP1 JUMPDEST DUP2 SLOAD DUP2 MSTORE SWAP1 PUSH1 0x1 ADD SWAP1 PUSH1 0x20 ADD DUP1 DUP4 GT PUSH2 0x446 JUMPI DUP3 SWAP1 SUB PUSH1 0x1F AND DUP3 ADD SWAP2 JUMPDEST POP POP DUP4 DUP2 SUB DUP3 MSTORE DUP6 SLOAD PUSH1 0x2 PUSH1 0x0 NOT PUSH2 0x100 PUSH1 0x1 DUP5 AND ISZERO MUL ADD SWAP1 SWAP2 AND DIV DUP1 DUP3 MSTORE PUSH1 0x20 SWAP1 SWAP2 ADD SWAP1 DUP7 SWAP1 DUP1 ISZERO PUSH2 0x4D7 JUMPI DUP1 PUSH1 0x1F LT PUSH2 0x4AC JUMPI PUSH2 0x100 DUP1 DUP4 SLOAD DIV MUL DUP4 MSTORE SWAP2 PUSH1 0x20 ADD SWAP2 PUSH2 0x4D7 JUMP JUMPDEST DUP3 ADD SWAP2 SWAP1 PUSH1 0x0 MSTORE PUSH1 0x20 PUSH1 0x0 KECCAK256 SWAP1 JUMPDEST DUP2 SLOAD DUP2 MSTORE SWAP1 PUSH1 0x1 ADD SWAP1 PUSH1 0x20 ADD DUP1 DUP4 GT PUSH2 0x4BA JUMPI DUP3 SWAP1 SUB PUSH1 0x1F AND DUP3 ADD SWAP2 JUMPDEST POP POP SWAP7 POP POP POP POP POP POP POP PUSH1 0x40 MLOAD DUP1 SWAP2 SUB SWAP1 RETURN JUMPDEST CALLVALUE ISZERO PUSH2 0x4F5 JUMPI PUSH1 0x0 DUP1 REVERT JUMPDEST PUSH2 0xFE PUSH1 0x4 PUSH1 0x24 DUP2 CALLDATALOAD DUP2 DUP2 ADD SWAP1 DUP4 ADD CALLDATALOAD DUP1 PUSH1 0x20 PUSH1 0x1F DUP3 ADD DUP2 SWAP1 DIV DUP2 MUL ADD PUSH1 0x40 MLOAD SWAP1 DUP2 ADD PUSH1 0x40 MSTORE DUP2 DUP2 MSTORE SWAP3 SWAP2 SWAP1 PUSH1 0x20 DUP5 ADD DUP4 DUP4 DUP1 DUP3 DUP5 CALLDATACOPY DUP3 ADD SWAP2 POP POP POP POP POP POP SWAP2 SWAP1 DUP1 CALLDATALOAD SWAP1 PUSH1 0x20 ADD SWAP1 DUP3 ADD DUP1 CALLDATALOAD SWAP1 PUSH1 0x20 ADD SWAP1 DUP1 DUP1 PUSH1 0x1F ADD PUSH1 0x20 DUP1 SWAP2 DIV MUL PUSH1 0x20 ADD PUSH1 0x40 MLOAD SWAP1 DUP2 ADD PUSH1 0x40 MSTORE DUP2 DUP2 MSTORE SWAP3 SWAP2 SWAP1 PUSH1 0x20 DUP5 ADD DUP4 DUP4 DUP1 DUP3 DUP5 CALLDATACOPY POP SWAP5 SWAP7 POP PUSH2 0xDCF SWAP6 POP POP POP POP POP POP JUMP JUMPDEST CALLVALUE ISZERO PUSH2 0x588 JUMPI PUSH1 0x0 DUP1 REVERT JUMPDEST PUSH2 0x5A9 PUSH20 0xFFFFFFFFFFFFFFFFFFFFFFFFFFFFFFFFFFFFFFFF PUSH1 0x4 CALLDATALOAD AND PUSH2 0xEB5 JUMP JUMPDEST PUSH1 0x40 MLOAD SWAP1 ISZERO ISZERO DUP2 MSTORE PUSH1 0x20 ADD PUSH1 0x40 MLOAD DUP1 SWAP2 SUB SWAP1 RETURN JUMPDEST CALLVALUE ISZERO PUSH2 0x5C8 JUMPI PUSH1 0x0 DUP1 REVERT JUMPDEST PUSH2 0x5D0 PUSH2 0xECA JUMP JUMPDEST PUSH1 0x40 MLOAD SWAP1 DUP2 MSTORE PUSH1 0x20 ADD PUSH1 0x40 MLOAD DUP1 SWAP2 SUB SWAP1 RETURN JUMPDEST CALLVALUE ISZERO PUSH2 0x5ED JUMPI PUSH1 0x0 DUP1 REVERT JUMPDEST PUSH2 0x5F8 PUSH1 0x4 CALLDATALOAD PUSH2 0xED1 JUMP JUMPDEST PUSH1 0x40 MLOAD DUP1 DUP1 PUSH1 0x20 ADD DUP1 PUSH1 0x20 ADD DUP5 DUP2 MSTORE PUSH1 0x20 ADD DUP4 DUP2 SUB DUP4 MSTORE DUP7 DUP2 DUP2 MLOAD DUP2 MSTORE PUSH1 0x20 ADD SWAP2 POP DUP1 MLOAD SWAP1 PUSH1 0x20 ADD SWAP1 DUP1 DUP4 DUP4 PUSH1 0x0 JUMPDEST DUP4 DUP2 LT ISZERO PUSH2 0x63F JUMPI DUP1 DUP3 ADD MLOAD DUP4 DUP3 ADD MSTORE PUSH1 0x20 ADD PUSH2 0x627 JUMP JUMPDEST POP POP POP POP SWAP1 POP SWAP1 DUP2 ADD SWAP1 PUSH1 0x1F AND DUP1 ISZERO PUSH2 0x66C JUMPI DUP1 DUP3 SUB DUP1 MLOAD PUSH1 0x1 DUP4 PUSH1 0x20 SUB PUSH2 0x100 EXP SUB NOT AND DUP2 MSTORE PUSH1 0x20 ADD SWAP2 POP JUMPDEST POP DUP4 DUP2 SUB DUP3 MSTORE DUP6 DUP2 DUP2 MLOAD DUP2 MSTORE PUSH1 0x20 ADD SWAP2 POP DUP1 MLOAD SWAP1 PUSH1 0x20 ADD SWAP1 DUP1 DUP4 DUP4 PUSH1 0x0 JUMPDEST DUP4 DUP2 LT ISZERO PUSH2 0x6A2 JUMPI DUP1 DUP3 ADD MLOAD DUP4 DUP3 ADD MSTORE PUSH1 0x20 ADD PUSH2 0x68A JUMP JUMPDEST POP POP POP POP SWAP1 POP SWAP1 DUP2 ADD SWAP1 PUSH1 0x1F AND DUP1 ISZERO PUSH2 0x6CF JUMPI DUP1 DUP3 SUB DUP1 MLOAD PUSH1 0x1 DUP4 PUSH1 0x20 SUB PUSH2 0x100 EXP SUB NOT AND DUP2 MSTORE PUSH1 0x20 ADD SWAP2 POP JUMPDEST POP SWAP6 POP POP POP POP POP POP PUSH1 0x40 MLOAD DUP1 SWAP2 SUB SWAP1 RETURN JUMPDEST CALLVALUE ISZERO PUSH2 0x6EB JUMPI PUSH1 0x0 DUP1 REVERT JUMPDEST PUSH2 0x5D0 PUSH2 0x1056 JUMP JUMPDEST CALLVALUE ISZERO PUSH2 0x6FE JUMPI PUSH1 0x0 DUP1 REVERT JUMPDEST PUSH2 0x113 PUSH2 0x105C JUMP JUMPDEST PUSH1 0x0 DUP1 DUP3 DUP2 SLOAD DUP2 LT ISZERO ISZERO PUSH2 0x716 JUMPI INVALID JUMPDEST PUSH1 0x0 SWAP2 DUP3 MSTORE PUSH1 0x20 DUP1 DUP4 KECCAK256 PUSH20 0xFFFFFFFFFFFFFFFFFFFFFFFFFFFFFFFFFFFFFFFF CALLER AND DUP5 MSTORE PUSH1 0x4 PUSH1 0x5 SWAP1 SWAP4 MUL ADD SWAP2 DUP3 ADD SWAP1 MSTORE PUSH1 0x40 SWAP1 SWAP2 KECCAK256 SLOAD SWAP1 SWAP2 POP PUSH1 0xFF AND ISZERO ISZERO PUSH2 0x79D JUMPI PUSH1 0x3 DUP2 ADD DUP1 SLOAD PUSH1 0x1 SWAP1 DUP2 ADD SWAP1 SWAP2 SSTORE PUSH20 0xFFFFFFFFFFFFFFFFFFFFFFFFFFFFFFFFFFFFFFFF CALLER AND PUSH1 0x0 SWAP1 DUP2 MSTORE PUSH1 0x4 DUP4 ADD PUSH1 0x20 MSTORE PUSH1 0x40 SWAP1 KECCAK256 DUP1 SLOAD PUSH1 0xFF NOT AND SWAP1 SWAP2 OR SWAP1 SSTORE PUSH2 0x81B JUMP JUMPDEST PUSH20 0xFFFFFFFFFFFFFFFFFFFFFFFFFFFFFFFFFFFFFFFF CALLER AND PUSH1 0x0 SWAP1 DUP2 MSTORE PUSH1 0x4 DUP3 ADD PUSH1 0x20 MSTORE PUSH1 0x40 SWAP1 KECCAK256 SLOAD PUSH1 0xFF AND ISZERO PUSH2 0x81B JUMPI PUSH1 0x3 DUP2 ADD SLOAD PUSH1 0x0 SWAP1 GT PUSH2 0x7DF JUMPI PUSH1 0x0 DUP1 REVERT JUMPDEST PUSH1 0x3 DUP2 ADD DUP1 SLOAD PUSH1 0x0 NOT ADD SWAP1 SSTORE PUSH20 0xFFFFFFFFFFFFFFFFFFFFFFFFFFFFFFFFFFFFFFFF CALLER AND PUSH1 0x0 SWAP1 DUP2 MSTORE PUSH1 0x4 DUP3 ADD PUSH1 0x20 MSTORE PUSH1 0x40 SWAP1 KECCAK256 DUP1 SLOAD PUSH1 0xFF NOT AND SWAP1 SSTORE JUMPDEST POP POP JUMP JUMPDEST PUSH1 0x2 SLOAD PUSH20 0xFFFFFFFFFFFFFFFFFFFFFFFFFFFFFFFFFFFFFFFF AND DUP2 JUMP JUMPDEST PUSH1 0x1 SLOAD PUSH20 0xFFFFFFFFFFFFFFFFFFFFFFFFFFFFFFFFFFFFFFFF AND DUP2 JUMP JUMPDEST PUSH20 0xFFFFFFFFFFFFFFFFFFFFFFFFFFFFFFFFFFFFFFFF CALLER AND PUSH1 0x0 SWAP1 DUP2 MSTORE PUSH1 0x7 PUSH1 0x20 MSTORE PUSH1 0x40 SWAP1 KECCAK256 SLOAD PUSH1 0xFF AND ISZERO ISZERO PUSH2 0x8C7 JUMPI PUSH1 0x6 DUP1 SLOAD PUSH1 0x1 SWAP1 DUP2 ADD SWAP1 SWAP2 SSTORE PUSH20 0xFFFFFFFFFFFFFFFFFFFFFFFFFFFFFFFFFFFFFFFF CALLER AND PUSH1 0x0 SWAP1 DUP2 MSTORE PUSH1 0x7 PUSH1 0x20 MSTORE PUSH1 0x40 SWAP1 KECCAK256 DUP1 SLOAD PUSH1 0xFF NOT AND SWAP1 SWAP2 OR SWAP1 SSTORE PUSH2 0x93D JUMP JUMPDEST PUSH20 0xFFFFFFFFFFFFFFFFFFFFFFFFFFFFFFFFFFFFFFFF CALLER AND PUSH1 0x0 SWAP1 DUP2 MSTORE PUSH1 0x7 PUSH1 0x20 MSTORE PUSH1 0x40 SWAP1 KECCAK256 SLOAD PUSH1 0xFF AND ISZERO PUSH2 0x93D JUMPI PUSH1 0x6 SLOAD PUSH1 0x0 SWAP1 GT PUSH2 0x905 JUMPI PUSH1 0x0 DUP1 REVERT JUMPDEST PUSH1 0x6 DUP1 SLOAD PUSH1 0x0 NOT ADD SWAP1 SSTORE PUSH20 0xFFFFFFFFFFFFFFFFFFFFFFFFFFFFFFFFFFFFFFFF CALLER AND PUSH1 0x0 SWAP1 DUP2 MSTORE PUSH1 0x7 PUSH1 0x20 MSTORE PUSH1 0x40 SWAP1 KECCAK256 DUP1 SLOAD PUSH1 0xFF NOT AND SWAP1 SSTORE JUMPDEST JUMP JUMPDEST PUSH1 0x5 DUP1 SLOAD PUSH1 0x1 DUP2 PUSH1 0x1 AND ISZERO PUSH2 0x100 MUL SUB AND PUSH1 0x2 SWAP1 DIV DUP1 PUSH1 0x1F ADD PUSH1 0x20 DUP1 SWAP2 DIV MUL PUSH1 0x20 ADD PUSH1 0x40 MLOAD SWAP1 DUP2 ADD PUSH1 0x40 MSTORE DUP1 SWAP3 SWAP2 SWAP1 DUP2 DUP2 MSTORE PUSH1 0x20 ADD DUP3 DUP1 SLOAD PUSH1 0x1 DUP2 PUSH1 0x1 AND ISZERO PUSH2 0x100 MUL SUB AND PUSH1 0x2 SWAP1 DIV DUP1 ISZERO PUSH2 0x9D5 JUMPI DUP1 PUSH1 0x1F LT PUSH2 0x9AA JUMPI PUSH2 0x100 DUP1 DUP4 SLOAD DIV MUL DUP4 MSTORE SWAP2 PUSH1 0x20 ADD SWAP2 PUSH2 0x9D5 JUMP JUMPDEST DUP3 ADD SWAP2 SWAP1 PUSH1 0x0 MSTORE PUSH1 0x20 PUSH1 0x0 KECCAK256 SWAP1 JUMPDEST DUP2 SLOAD DUP2 MSTORE SWAP1 PUSH1 0x1 ADD SWAP1 PUSH1 0x20 ADD DUP1 DUP4 GT PUSH2 0x9B8 JUMPI DUP3 SWAP1 SUB PUSH1 0x1F AND DUP3 ADD SWAP2 JUMPDEST POP POP POP POP POP DUP2 JUMP JUMPDEST PUSH2 0x9E5 PUSH2 0x1078 JUMP JUMPDEST PUSH2 0x9ED PUSH2 0x1078 JUMP JUMPDEST PUSH2 0x9F5 PUSH2 0x1078 JUMP JUMPDEST PUSH1 0x0 DUP1 PUSH1 0x3 PUSH1 0x4 PUSH1 0x5 PUSH1 0x6 SLOAD PUSH1 0x0 DUP1 SLOAD SWAP1 POP DUP5 DUP1 SLOAD PUSH1 0x1 DUP2 PUSH1 0x1 AND ISZERO PUSH2 0x100 MUL SUB AND PUSH1 0x2 SWAP1 DIV DUP1 PUSH1 0x1F ADD PUSH1 0x20 DUP1 SWAP2 DIV MUL PUSH1 0x20 ADD PUSH1 0x40 MLOAD SWAP1 DUP2 ADD PUSH1 0x40 MSTORE DUP1 SWAP3 SWAP2 SWAP1 DUP2 DUP2 MSTORE PUSH1 0x20 ADD DUP3 DUP1 SLOAD PUSH1 0x1 DUP2 PUSH1 0x1 AND ISZERO PUSH2 0x100 MUL SUB AND PUSH1 0x2 SWAP1 DIV DUP1 ISZERO PUSH2 0xA9C JUMPI DUP1 PUSH1 0x1F LT PUSH2 0xA71 JUMPI PUSH2 0x100 DUP1 DUP4 SLOAD DIV MUL DUP4 MSTORE SWAP2 PUSH1 0x20 ADD SWAP2 PUSH2 0xA9C JUMP JUMPDEST DUP3 ADD SWAP2 SWAP1 PUSH1 0x0 MSTORE PUSH1 0x20 PUSH1 0x0 KECCAK256 SWAP1 JUMPDEST DUP2 SLOAD DUP2 MSTORE SWAP1 PUSH1 0x1 ADD SWAP1 PUSH1 0x20 ADD DUP1 DUP4 GT PUSH2 0xA7F JUMPI DUP3 SWAP1 SUB PUSH1 0x1F AND DUP3 ADD SWAP2 JUMPDEST POP POP POP POP POP SWAP5 POP DUP4 DUP1 SLOAD PUSH1 0x1 DUP2 PUSH1 0x1 AND ISZERO PUSH2 0x100 MUL SUB AND PUSH1 0x2 SWAP1 DIV DUP1 PUSH1 0x1F ADD PUSH1 0x20 DUP1 SWAP2 DIV MUL PUSH1 0x20 ADD PUSH1 0x40 MLOAD SWAP1 DUP2 ADD PUSH1 0x40 MSTORE DUP1 SWAP3 SWAP2 SWAP1 DUP2 DUP2 MSTORE PUSH1 0x20 ADD DUP3 DUP1 SLOAD PUSH1 0x1 DUP2 PUSH1 0x1 AND ISZERO PUSH2 0x100 MUL SUB AND PUSH1 0x2 SWAP1 DIV DUP1 ISZERO PUSH2 0xB38 JUMPI DUP1 PUSH1 0x1F LT PUSH2 0xB0D JUMPI PUSH2 0x100 DUP1 DUP4 SLOAD DIV MUL DUP4 MSTORE SWAP2 PUSH1 0x20 ADD SWAP2 PUSH2 0xB38 JUMP JUMPDEST DUP3 ADD SWAP2 SWAP1 PUSH1 0x0 MSTORE PUSH1 0x20 PUSH1 0x0 KECCAK256 SWAP1 JUMPDEST DUP2 SLOAD DUP2 MSTORE SWAP1 PUSH1 0x1 ADD SWAP1 PUSH1 0x20 ADD DUP1 DUP4 GT PUSH2 0xB1B JUMPI DUP3 SWAP1 SUB PUSH1 0x1F AND DUP3 ADD SWAP2 JUMPDEST POP POP POP POP POP SWAP4 POP DUP3 DUP1 SLOAD PUSH1 0x1 DUP2 PUSH1 0x1 AND ISZERO PUSH2 0x100 MUL SUB AND PUSH1 0x2 SWAP1 DIV DUP1 PUSH1 0x1F ADD PUSH1 0x20 DUP1 SWAP2 DIV MUL PUSH1 0x20 ADD PUSH1 0x40 MLOAD SWAP1 DUP2 ADD PUSH1 0x40 MSTORE DUP1 SWAP3 SWAP2 SWAP1 DUP2 DUP2 MSTORE PUSH1 0x20 ADD DUP3 DUP1 SLOAD PUSH1 0x1 DUP2 PUSH1 0x1 AND ISZERO PUSH2 0x100 MUL SUB AND PUSH1 0x2 SWAP1 DIV DUP1 ISZERO PUSH2 0xBD4 JUMPI DUP1 PUSH1 0x1F LT PUSH2 0xBA9 JUMPI PUSH2 0x100 DUP1 DUP4 SLOAD DIV MUL DUP4 MSTORE SWAP2 PUSH1 0x20 ADD SWAP2 PUSH2 0xBD4 JUMP JUMPDEST DUP3 ADD SWAP2 SWAP1 PUSH1 0x0 MSTORE PUSH1 0x20 PUSH1 0x0 KECCAK256 SWAP1 JUMPDEST DUP2 SLOAD DUP2 MSTORE SWAP1 PUSH1 0x1 ADD SWAP1 PUSH1 0x20 ADD DUP1 DUP4 GT PUSH2 0xBB7 JUMPI DUP3 SWAP1 SUB PUSH1 0x1F AND DUP3 ADD SWAP2 JUMPDEST POP POP POP POP POP SWAP3 POP SWAP5 POP SWAP5 POP SWAP5 POP SWAP5 POP SWAP5 POP SWAP1 SWAP2 SWAP3 SWAP4 SWAP5 JUMP JUMPDEST PUSH1 0x4 DUP1 SLOAD PUSH1 0x1 DUP2 PUSH1 0x1 AND ISZERO PUSH2 0x100 MUL SUB AND PUSH1 0x2 SWAP1 DIV DUP1 PUSH1 0x1F ADD PUSH1 0x20 DUP1 SWAP2 DIV MUL PUSH1 0x20 ADD PUSH1 0x40 MLOAD SWAP1 DUP2 ADD PUSH1 0x40 MSTORE DUP1 SWAP3 SWAP2 SWAP1 DUP2 DUP2 MSTORE PUSH1 0x20 ADD DUP3 DUP1 SLOAD PUSH1 0x1 DUP2 PUSH1 0x1 AND ISZERO PUSH2 0x100 MUL SUB AND PUSH1 0x2 SWAP1 DIV DUP1 ISZERO PUSH2 0x9D5 JUMPI DUP1 PUSH1 0x1F LT PUSH2 0x9AA JUMPI PUSH2 0x100 DUP1 DUP4 SLOAD DIV MUL DUP4 MSTORE SWAP2 PUSH1 0x20 ADD SWAP2 PUSH2 0x9D5 JUMP JUMPDEST PUSH1 0x3 DUP1 SLOAD PUSH1 0x1 DUP2 PUSH1 0x1 AND ISZERO PUSH2 0x100 MUL SUB AND PUSH1 0x2 SWAP1 DIV DUP1 PUSH1 0x1F ADD PUSH1 0x20 DUP1 SWAP2 DIV MUL PUSH1 0x20 ADD PUSH1 0x40 MLOAD SWAP1 DUP2 ADD PUSH1 0x40 MSTORE DUP1 SWAP3 SWAP2 SWAP1 DUP2 DUP2 MSTORE PUSH1 0x20 ADD DUP3 DUP1 SLOAD PUSH1 0x1 DUP2 PUSH1 0x1 AND ISZERO PUSH2 0x100 MUL SUB AND PUSH1 0x2 SWAP1 DIV DUP1 ISZERO PUSH2 0x9D5 JUMPI DUP1 PUSH1 0x1F LT PUSH2 0x9AA JUMPI PUSH2 0x100 DUP1 DUP4 SLOAD DIV MUL DUP4 MSTORE SWAP2 PUSH1 0x20 ADD SWAP2 PUSH2 0x9D5 JUMP JUMPDEST PUSH1 0x1 SLOAD CALLER PUSH20 0xFFFFFFFFFFFFFFFFFFFFFFFFFFFFFFFFFFFFFFFF SWAP1 DUP2 AND SWAP2 AND EQ DUP1 PUSH2 0xD17 JUMPI POP DUP1 PUSH20 0xFFFFFFFFFFFFFFFFFFFFFFFFFFFFFFFFFFFFFFFF AND CALLER PUSH20 0xFFFFFFFFFFFFFFFFFFFFFFFFFFFFFFFFFFFFFFFF AND EQ JUMPDEST ISZERO ISZERO PUSH2 0xD22 JUMPI PUSH1 0x0 DUP1 REVERT JUMPDEST PUSH1 0x0 DUP1 SLOAD DUP4 SWAP1 DUP2 LT PUSH2 0xD30 JUMPI INVALID JUMPDEST PUSH1 0x0 SWAP2 DUP3 MSTORE PUSH1 0x20 DUP3 KECCAK256 PUSH1 0x5 SWAP1 SWAP2 MUL ADD DUP1 SLOAD PUSH20 0xFFFFFFFFFFFFFFFFFFFFFFFFFFFFFFFFFFFFFFFF NOT AND DUP2 SSTORE SWAP1 PUSH2 0xD68 PUSH1 0x1 DUP4 ADD DUP3 PUSH2 0x108A JUMP JUMPDEST PUSH2 0xD76 PUSH1 0x2 DUP4 ADD PUSH1 0x0 PUSH2 0x108A JUMP JUMPDEST PUSH1 0x3 DUP3 ADD PUSH1 0x0 SWAP1 SSTORE POP POP POP POP JUMP JUMPDEST PUSH1 0x0 DUP1 SLOAD DUP3 SWAP1 DUP2 LT PUSH2 0xD92 JUMPI INVALID JUMPDEST PUSH1 0x0 SWAP2 DUP3 MSTORE PUSH1 0x20 SWAP1 SWAP2 KECCAK256 PUSH1 0x5 SWAP1 SWAP2 MUL ADD DUP1 SLOAD PUSH1 0x3 DUP3 ADD SLOAD PUSH20 0xFFFFFFFFFFFFFFFFFFFFFFFFFFFFFFFFFFFFFFFF SWAP1 SWAP2 AND SWAP3 POP PUSH1 0x1 DUP3 ADD SWAP2 PUSH1 0x2 ADD SWAP1 DUP5 JUMP JUMPDEST PUSH2 0xDD7 PUSH2 0x10D1 JUMP JUMPDEST PUSH1 0x80 PUSH1 0x40 MLOAD SWAP1 DUP2 ADD PUSH1 0x40 MSTORE DUP1 CALLER PUSH20 0xFFFFFFFFFFFFFFFFFFFFFFFFFFFFFFFFFFFFFFFF AND DUP2 MSTORE PUSH1 0x20 ADD DUP4 DUP2 MSTORE PUSH1 0x20 ADD DUP5 DUP2 MSTORE PUSH1 0x20 ADD PUSH1 0x0 DUP2 MSTORE POP SWAP1 POP PUSH1 0x0 DUP1 SLOAD DUP1 PUSH1 0x1 ADD DUP3 DUP2 PUSH2 0xE26 SWAP2 SWAP1 PUSH2 0x1106 JUMP JUMPDEST PUSH1 0x0 SWAP3 DUP4 MSTORE PUSH1 0x20 SWAP1 SWAP3 KECCAK256 DUP4 SWAP2 PUSH1 0x5 MUL ADD DUP2 MLOAD DUP2 SLOAD PUSH20 0xFFFFFFFFFFFFFFFFFFFFFFFFFFFFFFFFFFFFFFFF NOT AND PUSH20 0xFFFFFFFFFFFFFFFFFFFFFFFFFFFFFFFFFFFFFFFF SWAP2 SWAP1 SWAP2 AND OR DUP2 SSTORE PUSH1 0x20 DUP3 ADD MLOAD DUP2 PUSH1 0x1 ADD SWAP1 DUP1 MLOAD PUSH2 0xE87 SWAP3 SWAP2 PUSH1 0x20 ADD SWAP1 PUSH2 0x1137 JUMP JUMPDEST POP PUSH1 0x40 DUP3 ADD MLOAD DUP2 PUSH1 0x2 ADD SWAP1 DUP1 MLOAD PUSH2 0xEA2 SWAP3 SWAP2 PUSH1 0x20 ADD SWAP1 PUSH2 0x1137 JUMP JUMPDEST POP PUSH1 0x60 DUP3 ADD MLOAD DUP2 PUSH1 0x3 ADD SSTORE POP POP POP POP POP POP JUMP JUMPDEST PUSH1 0x7 PUSH1 0x20 MSTORE PUSH1 0x0 SWAP1 DUP2 MSTORE PUSH1 0x40 SWAP1 KECCAK256 SLOAD PUSH1 0xFF AND DUP2 JUMP JUMPDEST PUSH1 0x0 SLOAD JUMPDEST SWAP1 JUMP JUMPDEST PUSH2 0xED9 PUSH2 0x1078 JUMP JUMPDEST PUSH2 0xEE1 PUSH2 0x1078 JUMP JUMPDEST PUSH1 0x0 DUP1 PUSH1 0x0 DUP6 DUP2 SLOAD DUP2 LT ISZERO ISZERO PUSH2 0xEF3 JUMPI INVALID JUMPDEST SWAP1 PUSH1 0x0 MSTORE PUSH1 0x20 PUSH1 0x0 KECCAK256 SWAP1 PUSH1 0x5 MUL ADD SWAP1 POP DUP1 PUSH1 0x1 ADD DUP2 PUSH1 0x2 ADD DUP3 PUSH1 0x3 ADD SLOAD DUP3 DUP1 SLOAD PUSH1 0x1 DUP2 PUSH1 0x1 AND ISZERO PUSH2 0x100 MUL SUB AND PUSH1 0x2 SWAP1 DIV DUP1 PUSH1 0x1F ADD PUSH1 0x20 DUP1 SWAP2 DIV MUL PUSH1 0x20 ADD PUSH1 0x40 MLOAD SWAP1 DUP2 ADD PUSH1 0x40 MSTORE DUP1 SWAP3 SWAP2 SWAP1 DUP2 DUP2 MSTORE PUSH1 0x20 ADD DUP3 DUP1 SLOAD PUSH1 0x1 DUP2 PUSH1 0x1 AND ISZERO PUSH2 0x100 MUL SUB AND PUSH1 0x2 SWAP1 DIV DUP1 ISZERO PUSH2 0xFA5 JUMPI DUP1 PUSH1 0x1F LT PUSH2 0xF7A JUMPI PUSH2 0x100 DUP1 DUP4 SLOAD DIV MUL DUP4 MSTORE SWAP2 PUSH1 0x20 ADD SWAP2 PUSH2 0xFA5 JUMP JUMPDEST DUP3 ADD SWAP2 SWAP1 PUSH1 0x0 MSTORE PUSH1 0x20 PUSH1 0x0 KECCAK256 SWAP1 JUMPDEST DUP2 SLOAD DUP2 MSTORE SWAP1 PUSH1 0x1 ADD SWAP1 PUSH1 0x20 ADD DUP1 DUP4 GT PUSH2 0xF88 JUMPI DUP3 SWAP1 SUB PUSH1 0x1F AND DUP3 ADD SWAP2 JUMPDEST POP POP POP POP POP SWAP3 POP DUP2 DUP1 SLOAD PUSH1 0x1 DUP2 PUSH1 0x1 AND ISZERO PUSH2 0x100 MUL SUB AND PUSH1 0x2 SWAP1 DIV DUP1 PUSH1 0x1F ADD PUSH1 0x20 DUP1 SWAP2 DIV MUL PUSH1 0x20 ADD PUSH1 0x40 MLOAD SWAP1 DUP2 ADD PUSH1 0x40 MSTORE DUP1 SWAP3 SWAP2 SWAP1 DUP2 DUP2 MSTORE PUSH1 0x20 ADD DUP3 DUP1 SLOAD PUSH1 0x1 DUP2 PUSH1 0x1 AND ISZERO PUSH2 0x100 MUL SUB AND PUSH1 0x2 SWAP1 DIV DUP1 ISZERO PUSH2 0x1041 JUMPI DUP1 PUSH1 0x1F LT PUSH2 0x1016 JUMPI PUSH2 0x100 DUP1 DUP4 SLOAD DIV MUL DUP4 MSTORE SWAP2 PUSH1 0x20 ADD SWAP2 PUSH2 0x1041 JUMP JUMPDEST DUP3 ADD SWAP2 SWAP1 PUSH1 0x0 MSTORE PUSH1 0x20 PUSH1 0x0 KECCAK256 SWAP1 JUMPDEST DUP2 SLOAD DUP2 MSTORE SWAP1 PUSH1 0x1 ADD SWAP1 PUSH1 0x20 ADD DUP1 DUP4 GT PUSH2 0x1024 JUMPI DUP3 SWAP1 SUB PUSH1 0x1F AND DUP3 ADD SWAP2 JUMPDEST POP POP POP POP POP SWAP2 POP SWAP4 POP SWAP4 POP SWAP4 POP POP SWAP2 SWAP4 SWAP1 SWAP3 POP JUMP JUMPDEST PUSH1 0x6 SLOAD DUP2 JUMP JUMPDEST PUSH1 0x2 SLOAD PUSH20 0xFFFFFFFFFFFFFFFFFFFFFFFFFFFFFFFFFFFFFFFF AND SWAP1 JUMP JUMPDEST PUSH1 0x20 PUSH1 0x40 MLOAD SWAP1 DUP2 ADD PUSH1 0x40 MSTORE PUSH1 0x0 DUP2 MSTORE SWAP1 JUMP JUMPDEST POP DUP1 SLOAD PUSH1 0x1 DUP2 PUSH1 0x1 AND ISZERO PUSH2 0x100 MUL SUB AND PUSH1 0x2 SWAP1 DIV PUSH1 0x0 DUP3 SSTORE DUP1 PUSH1 0x1F LT PUSH2 0x10B0 JUMPI POP PUSH2 0x10CE JUMP JUMPDEST PUSH1 0x1F ADD PUSH1 0x20 SWAP1 DIV SWAP1 PUSH1 0x0 MSTORE PUSH1 0x20 PUSH1 0x0 KECCAK256 SWAP1 DUP2 ADD SWAP1 PUSH2 0x10CE SWAP2 SWAP1 PUSH2 0x11B5 JUMP JUMPDEST POP JUMP JUMPDEST PUSH1 0x80 PUSH1 0x40 MLOAD SWAP1 DUP2 ADD PUSH1 0x40 MSTORE PUSH1 0x0 DUP2 MSTORE PUSH1 0x20 DUP2 ADD PUSH2 0x10EC PUSH2 0x1078 JUMP JUMPDEST DUP2 MSTORE PUSH1 0x20 ADD PUSH2 0x10F9 PUSH2 0x1078 JUMP JUMPDEST DUP2 MSTORE PUSH1 0x20 ADD PUSH1 0x0 DUP2 MSTORE POP SWAP1 JUMP JUMPDEST DUP2 SLOAD DUP2 DUP4 SSTORE DUP2 DUP2 ISZERO GT PUSH2 0x1132 JUMPI PUSH1 0x5 MUL DUP2 PUSH1 0x5 MUL DUP4 PUSH1 0x0 MSTORE PUSH1 0x20 PUSH1 0x0 KECCAK256 SWAP2 DUP3 ADD SWAP2 ADD PUSH2 0x1132 SWAP2 SWAP1 PUSH2 0x11CF JUMP JUMPDEST POP POP POP JUMP JUMPDEST DUP3 DUP1 SLOAD PUSH1 0x1 DUP2 PUSH1 0x1 AND ISZERO PUSH2 0x100 MUL SUB AND PUSH1 0x2 SWAP1 DIV SWAP1 PUSH1 0x0 MSTORE PUSH1 0x20 PUSH1 0x0 KECCAK256 SWAP1 PUSH1 0x1F ADD PUSH1 0x20 SWAP1 DIV DUP2 ADD SWAP3 DUP3 PUSH1 0x1F LT PUSH2 0x1178 JUMPI DUP1 MLOAD PUSH1 0xFF NOT AND DUP4 DUP1 ADD OR DUP6 SSTORE PUSH2 0x11A5 JUMP JUMPDEST DUP3 DUP1 ADD PUSH1 0x1 ADD DUP6 SSTORE DUP3 ISZERO PUSH2 0x11A5 JUMPI SWAP2 DUP3 ADD JUMPDEST DUP3 DUP2 GT ISZERO PUSH2 0x11A5 JUMPI DUP3 MLOAD DUP3 SSTORE SWAP2 PUSH1 0x20 ADD SWAP2 SWAP1 PUSH1 0x1 ADD SWAP1 PUSH2 0x118A JUMP JUMPDEST POP PUSH2 0x11B1 SWAP3 SWAP2 POP PUSH2 0x11B5 JUMP JUMPDEST POP SWAP1 JUMP JUMPDEST PUSH2 0xECE SWAP2 SWAP1 JUMPDEST DUP1 DUP3 GT ISZERO PUSH2 0x11B1 JUMPI PUSH1 0x0 DUP2 SSTORE PUSH1 0x1 ADD PUSH2 0x11BB JUMP JUMPDEST PUSH2 0xECE SWAP2 SWAP1 JUMPDEST DUP1 DUP3 GT ISZERO PUSH2 0x11B1 JUMPI DUP1 SLOAD PUSH20 0xFFFFFFFFFFFFFFFFFFFFFFFFFFFFFFFFFFFFFFFF NOT AND DUP2 SSTORE PUSH1 0x0 PUSH2 0x1207 PUSH1 0x1 DUP4 ADD DUP3 PUSH2 0x108A JUMP JUMPDEST PUSH2 0x1215 PUSH1 0x2 DUP4 ADD PUSH1 0x0 PUSH2 0x108A JUMP JUMPDEST POP PUSH1 0x0 PUSH1 0x3 DUP3 ADD SSTORE PUSH1 0x5 ADD PUSH2 0x11D5 JUMP STOP LOG1 PUSH6 0x627A7A723058 KECCAK256 POP POP 0xc 0xb4 SWAP6 CALLCODE PUSH22 0xF249F368664DCA79CC71788853C169FB52BA9737E598 0xd5 PUSH8 0xBA00290000000000 "
        },
        "gasEstimates": {
          "creation": {
            "codeDepositCost": "937800",
            "executionCost": "infinite",
            "totalCost": "infinite"
          },
          "external": {
            "body()": "infinite",
            "comments(uint256)": "infinite",
            "createComment(string,string)": "infinite",
            "creator()": "407",
            "deleteComment(uint256,address)": "infinite",
            "factoryManager()": "429",
            "getCommentSummary(uint256)": "infinite",
            "getCommentsCount()": "635",
            "getPostCreator()": "715",
            "getPostSummary()": "infinite",
            "title()": "infinite",
            "username()": "infinite",
            "voteComment(uint256)": "41821",
            "votePost()": "41527",
            "voters(address)": "702",
            "votes()": "678"
          }
        },
        "methodIdentifiers": {
          "body()": "364497e4",
          "comments(uint256)": "8ebb4c15",
          "createComment(string,string)": "a1edee49",
          "creator()": "02d05d3f",
          "deleteComment(uint256,address)": "8b47462c",
          "factoryManager()": "032b5a73",
          "getCommentSummary(uint256)": "c8de7279",
          "getCommentsCount()": "c1c1066b",
          "getPostCreator()": "f5b5709b",
          "getPostSummary()": "443fb57e",
          "title()": "4a79d50c",
          "username()": "61fac54d",
          "voteComment(uint256)": "0114b9d1",
          "votePost()": "0bfb7de9",
          "voters(address)": "a3ec138d",
          "votes()": "e168c3ec"
        }
      },
      "userdoc": {
        "methods": {}
      }
    }
  }
}