{
  "_format": "hh-sol-artifact-1",
  "contractName": "Post",
  "sourceName": "contracts/Post.sol",
  "abi": [
    {
      "constant": false,
      "inputs": [
        {
          "name": "commentIndex",
          "type": "uint256"
        }
      ],
      "name": "voteComment",
      "outputs": [],
      "payable": false,
      "stateMutability": "nonpayable",
      "type": "function"
    },
    {
      "constant": true,
      "inputs": [],
      "name": "creator",
      "outputs": [
        {
          "name": "",
          "type": "address"
        }
      ],
      "payable": false,
      "stateMutability": "view",
      "type": "function"
    },
    {
      "constant": true,
      "inputs": [],
      "name": "factoryManager",
      "outputs": [
        {
          "name": "",
          "type": "address"
        }
      ],
      "payable": false,
      "stateMutability": "view",
      "type": "function"
    },
    {
      "constant": true,
      "inputs": [
        {
          "name": "user",
          "type": "address"
        }
      ],
      "name": "vottedPost",
      "outputs": [
        {
          "name": "",
          "type": "bool"
        }
      ],
      "payable": false,
      "stateMutability": "view",
      "type": "function"
    },
    {
      "constant": false,
      "inputs": [],
      "name": "votePost",
      "outputs": [],
      "payable": false,
      "stateMutability": "nonpayable",
      "type": "function"
    },
    {
      "constant": true,
      "inputs": [],
      "name": "body",
      "outputs": [
        {
          "name": "",
          "type": "string"
        }
      ],
      "payable": false,
      "stateMutability": "view",
      "type": "function"
    },
    {
      "constant": true,
      "inputs": [],
      "name": "getPostSummary",
      "outputs": [
        {
          "name": "",
          "type": "string"
        },
        {
          "name": "",
          "type": "string"
        },
        {
          "name": "",
          "type": "string"
        },
        {
          "name": "",
          "type": "uint256"
        },
        {
          "name": "",
          "type": "uint256"
        },
        {
          "name": "",
          "type": "bool"
        }
      ],
      "payable": false,
      "stateMutability": "view",
      "type": "function"
    },
    {
      "constant": true,
      "inputs": [],
      "name": "title",
      "outputs": [
        {
          "name": "",
          "type": "string"
        }
      ],
      "payable": false,
      "stateMutability": "view",
      "type": "function"
    },
    {
      "constant": true,
      "inputs": [],
      "name": "username",
      "outputs": [
        {
          "name": "",
          "type": "string"
        }
      ],
      "payable": false,
      "stateMutability": "view",
      "type": "function"
    },
    {
      "constant": true,
      "inputs": [
        {
          "name": "index",
          "type": "uint256"
        },
        {
          "name": "user",
          "type": "address"
        }
      ],
      "name": "vottedComment",
      "outputs": [
        {
          "name": "",
          "type": "bool"
        }
      ],
      "payable": false,
      "stateMutability": "view",
      "type": "function"
    },
    {
      "constant": false,
      "inputs": [
        {
          "name": "index",
          "type": "uint256"
        },
        {
          "name": "_creator",
          "type": "address"
        }
      ],
      "name": "deleteComment",
      "outputs": [],
      "payable": false,
      "stateMutability": "nonpayable",
      "type": "function"
    },
    {
      "constant": true,
      "inputs": [
        {
          "name": "",
          "type": "uint256"
        }
      ],
      "name": "comments",
      "outputs": [
        {
          "name": "creator",
          "type": "address"
        },
        {
          "name": "username",
          "type": "string"
        },
        {
          "name": "text",
          "type": "string"
        },
        {
          "name": "votes",
          "type": "uint256"
        }
      ],
      "payable": false,
      "stateMutability": "view",
      "type": "function"
    },
    {
      "constant": false,
      "inputs": [
        {
          "name": "commentText",
          "type": "string"
        },
        {
          "name": "user",
          "type": "string"
        }
      ],
      "name": "createComment",
      "outputs": [],
      "payable": false,
      "stateMutability": "nonpayable",
      "type": "function"
    },
    {
      "constant": true,
      "inputs": [
        {
          "name": "",
          "type": "address"
        }
      ],
      "name": "voters",
      "outputs": [
        {
          "name": "",
          "type": "bool"
        }
      ],
      "payable": false,
      "stateMutability": "view",
      "type": "function"
    },
    {
      "constant": true,
      "inputs": [],
      "name": "getCommentsCount",
      "outputs": [
        {
          "name": "",
          "type": "uint256"
        }
      ],
      "payable": false,
      "stateMutability": "view",
      "type": "function"
    },
    {
      "constant": true,
      "inputs": [
        {
          "name": "commentIndex",
          "type": "uint256"
        }
      ],
      "name": "getCommentSummary",
      "outputs": [
        {
          "name": "",
          "type": "string"
        },
        {
          "name": "",
          "type": "string"
        },
        {
          "name": "",
          "type": "uint256"
        },
        {
          "name": "",
          "type": "bool"
        }
      ],
      "payable": false,
      "stateMutability": "view",
      "type": "function"
    },
    {
      "constant": true,
      "inputs": [],
      "name": "votes",
      "outputs": [
        {
          "name": "",
          "type": "uint256"
        }
      ],
      "payable": false,
      "stateMutability": "view",
      "type": "function"
    },
    {
      "constant": true,
      "inputs": [],
      "name": "getPostCreator",
      "outputs": [
        {
          "name": "",
          "type": "address"
        }
      ],
      "payable": false,
      "stateMutability": "view",
      "type": "function"
    },
    {
      "inputs": [
        {
          "name": "postCreator",
          "type": "address"
        },
        {
          "name": "postTitle",
          "type": "string"
        },
        {
          "name": "postBody",
          "type": "string"
        },
        {
          "name": "user",
          "type": "string"
        },
        {
          "name": "manager",
          "type": "address"
        }
      ],
      "payable": false,
      "stateMutability": "nonpayable",
      "type": "constructor"
    }
  ],
  "bytecode": "0x606060405234156200001057600080fd5b6040516200141238038062001412833981016040528080519190602001805182019190602001805182019190602001805182019190602001805160028054600160a060020a031916600160a060020a0389161790559150600490508480516200007e929160200190620000db565b50600583805162000094929160200190620000db565b5060006006556003828051620000af929160200190620000db565b5060018054600160a060020a031916600160a060020a0392909216919091179055506200018092505050565b828054600181600116156101000203166002900490600052602060002090601f016020900481019282601f106200011e57805160ff19168380011785556200014e565b828001600101855582156200014e579182015b828111156200014e57825182559160200191906001019062000131565b506200015c92915062000160565b5090565b6200017d91905b808211156200015c576000815560010162000167565b90565b61128280620001906000396000f300606060405236156100f95763ffffffff7c01000000000000000000000000000000000000000000000000000000006000350416630114b9d181146100fe57806302d05d3f14610116578063032b5a731461014557806306782c87146101585780630bfb7de91461018b578063364497e41461019e578063443fb57e146102285780634a79d50c1461039e57806361fac54d146103b157806369a060cf146103c45780638b47462c146103e65780638ebb4c1514610408578063a1edee4914610539578063a3ec138d146105cc578063c1c1066b146105eb578063c8de727914610610578063e168c3ec14610718578063f5b5709b1461072b575b600080fd5b341561010957600080fd5b61011460043561073e565b005b341561012157600080fd5b610129610823565b604051600160a060020a03909116815260200160405180910390f35b341561015057600080fd5b610129610832565b341561016357600080fd5b610177600160a060020a0360043516610841565b604051901515815260200160405180910390f35b341561019657600080fd5b61011461085f565b34156101a957600080fd5b6101b1610913565b60405160208082528190810183818151815260200191508051906020019080838360005b838110156101ed5780820151838201526020016101d5565b50505050905090810190601f16801561021a5780820380516001836020036101000a031916815260200191505b509250505060405180910390f35b341561023357600080fd5b61023b6109b1565b604051808060200180602001806020018781526020018681526020018515151515815260200184810384528a818151815260200191508051906020019080838360005b8381101561029657808201518382015260200161027e565b50505050905090810190601f1680156102c35780820380516001836020036101000a031916815260200191505b50848103835289818151815260200191508051906020019080838360005b838110156102f95780820151838201526020016102e1565b50505050905090810190601f1680156103265780820380516001836020036101000a031916815260200191505b50848103825288818151815260200191508051906020019080838360005b8381101561035c578082015183820152602001610344565b50505050905090810190601f1680156103895780820380516001836020036101000a031916815260200191505b50995050505050505050505060405180910390f35b34156103a957600080fd5b6101b1610bf8565b34156103bc57600080fd5b6101b1610c63565b34156103cf57600080fd5b610177600435600160a060020a0360243516610cce565b34156103f157600080fd5b610114600435600160a060020a0360243516610d16565b341561041357600080fd5b61041e600435610db1565b604051600160a060020a03851681526060810182905260806020820181815285546002600019610100600184161502019091160491830182905290604083019060a0840190879080156104b25780601f10610487576101008083540402835291602001916104b2565b820191906000526020600020905b81548152906001019060200180831161049557829003601f168201915b50508381038252855460026000196101006001841615020190911604808252602090910190869080156105265780601f106104fb57610100808354040283529160200191610526565b820191906000526020600020905b81548152906001019060200180831161050957829003601f168201915b5050965050505050505060405180910390f35b341561054457600080fd5b61011460046024813581810190830135806020601f8201819004810201604051908101604052818152929190602084018383808284378201915050505050509190803590602001908201803590602001908080601f016020809104026020016040519081016040528181529291906020840183838082843750949650610def95505050505050565b34156105d757600080fd5b610177600160a060020a0360043516610ebb565b34156105f657600080fd5b6105fe610ed0565b60405190815260200160405180910390f35b341561061b57600080fd5b610626600435610ed7565b604051604081018390528115156060820152608080825281906020820190820187818151815260200191508051906020019080838360005b8381101561067657808201518382015260200161065e565b50505050905090810190601f1680156106a35780820380516001836020036101000a031916815260200191505b50838103825286818151815260200191508051906020019080838360005b838110156106d95780820151838201526020016106c1565b50505050905090810190601f1680156107065780820380516001836020036101000a031916815260200191505b50965050505050505060405180910390f35b341561072357600080fd5b6105fe611094565b341561073657600080fd5b61012961109a565b6000808281548110151561074e57fe5b60009182526020808320600160a060020a03331684526004600590930201918201905260409091205490915060ff1615156107bb576003810180546001908101909155600160a060020a03331660009081526004830160205260409020805460ff1916909117905561081f565b600160a060020a033316600090815260048201602052604090205460ff161561081f576003810154600090116107f057600080fd5b600381018054600019019055600160a060020a03331660009081526004820160205260409020805460ff191690555b5050565b600254600160a060020a031681565b600154600160a060020a031681565b600160a060020a031660009081526007602052604090205460ff1690565b600160a060020a03331660009081526007602052604090205460ff1615156108b557600680546001908101909155600160a060020a0333166000908152600760205260409020805460ff19169091179055610911565b600160a060020a03331660009081526007602052604090205460ff161561091157600654600090116108e657600080fd5b60068054600019019055600160a060020a0333166000908152600760205260409020805460ff191690555b565b60058054600181600116156101000203166002900480601f0160208091040260200160405190810160405280929190818152602001828054600181600116156101000203166002900480156109a95780601f1061097e576101008083540402835291602001916109a9565b820191906000526020600020905b81548152906001019060200180831161098c57829003601f168201915b505050505081565b6109b96110a9565b6109c16110a9565b6109c96110a9565b60008060006003600460056006546000805490506007600033600160a060020a0316600160a060020a0316815260200190815260200160002060009054906101000a900460ff16858054600181600116156101000203166002900480601f016020809104026020016040519081016040528092919081815260200182805460018160011615610100020316600290048015610aa55780601f10610a7a57610100808354040283529160200191610aa5565b820191906000526020600020905b815481529060010190602001808311610a8857829003601f168201915b50505050509550848054600181600116156101000203166002900480601f016020809104026020016040519081016040528092919081815260200182805460018160011615610100020316600290048015610b415780601f10610b1657610100808354040283529160200191610b41565b820191906000526020600020905b815481529060010190602001808311610b2457829003601f168201915b50505050509450838054600181600116156101000203166002900480601f016020809104026020016040519081016040528092919081815260200182805460018160011615610100020316600290048015610bdd5780601f10610bb257610100808354040283529160200191610bdd565b820191906000526020600020905b815481529060010190602001808311610bc057829003601f168201915b50505050509350955095509550955095509550909192939495565b60048054600181600116156101000203166002900480601f0160208091040260200160405190810160405280929190818152602001828054600181600116156101000203166002900480156109a95780601f1061097e576101008083540402835291602001916109a9565b60038054600181600116156101000203166002900480601f0160208091040260200160405190810160405280929190818152602001828054600181600116156101000203166002900480156109a95780601f1061097e576101008083540402835291602001916109a9565b600080600084815481101515610ce057fe5b60009182526020808320600160a060020a039690961683526005919091029094016004019093525050604090205460ff16919050565b60015433600160a060020a0390811691161480610d44575080600160a060020a031633600160a060020a0316145b1515610d4f57600080fd5b6000805483908110610d5d57fe5b600091825260208220600590910201805473ffffffffffffffffffffffffffffffffffffffff1916815590610d9560018301826110bb565b610da36002830160006110bb565b600382016000905550505050565b6000805482908110610dbf57fe5b6000918252602090912060059091020180546003820154600160a060020a03909116925060018201916002019084565b610df7611102565b60806040519081016040528033600160a060020a031681526020018381526020018481526020016000815250905060008054806001018281610e399190611137565b600092835260209092208391600502018151815473ffffffffffffffffffffffffffffffffffffffff1916600160a060020a0391909116178155602082015181600101908051610e8d929160200190611168565b50604082015181600201908051610ea8929160200190611168565b5060608201518160030155505050505050565b60076020526000908152604090205460ff1681565b6000545b90565b610edf6110a9565b610ee76110a9565b60008060008086815481101515610efa57fe5b906000526020600020906005020190508060010181600201826003015483600401600033600160a060020a0316600160a060020a0316815260200190815260200160002060009054906101000a900460ff16838054600181600116156101000203166002900480601f016020809104026020016040519081016040528092919081815260200182805460018160011615610100020316600290048015610fe15780601f10610fb657610100808354040283529160200191610fe1565b820191906000526020600020905b815481529060010190602001808311610fc457829003601f168201915b50505050509350828054600181600116156101000203166002900480601f01602080910402602001604051908101604052809291908181526020018280546001816001161561010002031660029004801561107d5780601f106110525761010080835404028352916020019161107d565b820191906000526020600020905b81548152906001019060200180831161106057829003601f168201915b505050505092509450945094509450509193509193565b60065481565b600254600160a060020a031690565b60206040519081016040526000815290565b50805460018160011615610100020316600290046000825580601f106110e157506110ff565b601f0160209004906000526020600020908101906110ff91906111e6565b50565b6080604051908101604052600081526020810161111d6110a9565b815260200161112a6110a9565b8152602001600081525090565b815481835581811511611163576005028160050283600052602060002091820191016111639190611200565b505050565b828054600181600116156101000203166002900490600052602060002090601f016020900481019282601f106111a957805160ff19168380011785556111d6565b828001600101855582156111d6579182015b828111156111d65782518255916020019190600101906111bb565b506111e29291506111e6565b5090565b610ed491905b808211156111e257600081556001016111ec565b610ed491905b808211156111e257805473ffffffffffffffffffffffffffffffffffffffff19168155600061123860018301826110bb565b6112466002830160006110bb565b50600060038201556005016112065600a165627a7a723058208771b6278f32a45c5d802256526cbc9e22e22db405c3f5879bff71f50ae922770029",
  "linkReferences": {},
  "deployedLinkReferences": {}
}