{
  "_format": "hh-sol-artifact-1",
  "contractName": "Post",
  "sourceName": "contracts/Post.sol",
  "abi": [
    {
      "constant": false,
      "inputs": [
        {
          "name": "commentIndex",
          "type": "uint256"
        }
      ],
      "name": "voteComment",
      "outputs": [],
      "payable": false,
      "stateMutability": "nonpayable",
      "type": "function"
    },
    {
      "constant": true,
      "inputs": [],
      "name": "creator",
      "outputs": [
        {
          "name": "",
          "type": "address"
        }
      ],
      "payable": false,
      "stateMutability": "view",
      "type": "function"
    },
    {
      "constant": true,
      "inputs": [],
      "name": "factoryManager",
      "outputs": [
        {
          "name": "",
          "type": "address"
        }
      ],
      "payable": false,
      "stateMutability": "view",
      "type": "function"
    },
    {
      "constant": false,
      "inputs": [],
      "name": "votePost",
      "outputs": [],
      "payable": false,
      "stateMutability": "nonpayable",
      "type": "function"
    },
    {
      "constant": true,
      "inputs": [],
      "name": "body",
      "outputs": [
        {
          "name": "",
          "type": "string"
        }
      ],
      "payable": false,
      "stateMutability": "view",
      "type": "function"
    },
    {
      "constant": true,
      "inputs": [],
      "name": "getPostSummary",
      "outputs": [
        {
          "name": "",
          "type": "string"
        },
        {
          "name": "",
          "type": "string"
        },
        {
          "name": "",
          "type": "string"
        },
        {
          "name": "",
          "type": "uint256"
        },
        {
          "name": "",
          "type": "uint256"
        }
      ],
      "payable": false,
      "stateMutability": "view",
      "type": "function"
    },
    {
      "constant": true,
      "inputs": [],
      "name": "title",
      "outputs": [
        {
          "name": "",
          "type": "string"
        }
      ],
      "payable": false,
      "stateMutability": "view",
      "type": "function"
    },
    {
      "constant": true,
      "inputs": [],
      "name": "username",
      "outputs": [
        {
          "name": "",
          "type": "string"
        }
      ],
      "payable": false,
      "stateMutability": "view",
      "type": "function"
    },
    {
      "constant": false,
      "inputs": [
        {
          "name": "index",
          "type": "uint256"
        },
        {
          "name": "_creator",
          "type": "address"
        }
      ],
      "name": "deleteComment",
      "outputs": [],
      "payable": false,
      "stateMutability": "nonpayable",
      "type": "function"
    },
    {
      "constant": true,
      "inputs": [
        {
          "name": "",
          "type": "uint256"
        }
      ],
      "name": "comments",
      "outputs": [
        {
          "name": "creator",
          "type": "address"
        },
        {
          "name": "username",
          "type": "string"
        },
        {
          "name": "text",
          "type": "string"
        },
        {
          "name": "votes",
          "type": "uint256"
        }
      ],
      "payable": false,
      "stateMutability": "view",
      "type": "function"
    },
    {
      "constant": false,
      "inputs": [
        {
          "name": "commentText",
          "type": "string"
        },
        {
          "name": "user",
          "type": "string"
        }
      ],
      "name": "createComment",
      "outputs": [],
      "payable": false,
      "stateMutability": "nonpayable",
      "type": "function"
    },
    {
      "constant": true,
      "inputs": [
        {
          "name": "",
          "type": "address"
        }
      ],
      "name": "voters",
      "outputs": [
        {
          "name": "",
          "type": "bool"
        }
      ],
      "payable": false,
      "stateMutability": "view",
      "type": "function"
    },
    {
      "constant": true,
      "inputs": [],
      "name": "getCommentsCount",
      "outputs": [
        {
          "name": "",
          "type": "uint256"
        }
      ],
      "payable": false,
      "stateMutability": "view",
      "type": "function"
    },
    {
      "constant": true,
      "inputs": [
        {
          "name": "commentIndex",
          "type": "uint256"
        }
      ],
      "name": "getCommentSummary",
      "outputs": [
        {
          "name": "",
          "type": "string"
        },
        {
          "name": "",
          "type": "string"
        },
        {
          "name": "",
          "type": "uint256"
        }
      ],
      "payable": false,
      "stateMutability": "view",
      "type": "function"
    },
    {
      "constant": true,
      "inputs": [],
      "name": "votes",
      "outputs": [
        {
          "name": "",
          "type": "uint256"
        }
      ],
      "payable": false,
      "stateMutability": "view",
      "type": "function"
    },
    {
      "constant": true,
      "inputs": [],
      "name": "getPostCreator",
      "outputs": [
        {
          "name": "",
          "type": "address"
        }
      ],
      "payable": false,
      "stateMutability": "view",
      "type": "function"
    },
    {
      "inputs": [
        {
          "name": "postCreator",
          "type": "address"
        },
        {
          "name": "postTitle",
          "type": "string"
        },
        {
          "name": "postBody",
          "type": "string"
        },
        {
          "name": "user",
          "type": "string"
        },
        {
          "name": "manager",
          "type": "address"
        }
      ],
      "payable": false,
      "stateMutability": "nonpayable",
      "type": "constructor"
    }
  ],
  "bytecode": "0x606060405234156200001057600080fd5b604051620013e1380380620013e1833981016040528080519190602001805182019190602001805182019190602001805182019190602001805160028054600160a060020a031916600160a060020a0389161790559150600490508480516200007e929160200190620000db565b50600583805162000094929160200190620000db565b5060006006556003828051620000af929160200190620000db565b5060018054600160a060020a031916600160a060020a0392909216919091179055506200018092505050565b828054600181600116156101000203166002900490600052602060002090601f016020900481019282601f106200011e57805160ff19168380011785556200014e565b828001600101855582156200014e579182015b828111156200014e57825182559160200191906001019062000131565b506200015c92915062000160565b5090565b6200017d91905b808211156200015c576000815560010162000167565b90565b61125180620001906000396000f300606060405236156100e35763ffffffff7c01000000000000000000000000000000000000000000000000000000006000350416630114b9d181146100e857806302d05d3f14610100578063032b5a731461013c5780630bfb7de91461014f578063364497e414610162578063443fb57e146101ec5780634a79d50c1461035757806361fac54d1461036a5780638b47462c1461037d5780638ebb4c15146103ac578063a1edee49146104ea578063a3ec138d1461057d578063c1c1066b146105bd578063c8de7279146105e2578063e168c3ec146106e0578063f5b5709b146106f3575b600080fd5b34156100f357600080fd5b6100fe600435610706565b005b341561010b57600080fd5b61011361081f565b60405173ffffffffffffffffffffffffffffffffffffffff909116815260200160405180910390f35b341561014757600080fd5b61011361083b565b341561015a57600080fd5b6100fe610857565b341561016d57600080fd5b61017561093f565b60405160208082528190810183818151815260200191508051906020019080838360005b838110156101b1578082015183820152602001610199565b50505050905090810190601f1680156101de5780820380516001836020036101000a031916815260200191505b509250505060405180910390f35b34156101f757600080fd5b6101ff6109dd565b60405180806020018060200180602001868152602001858152602001848103845289818151815260200191508051906020019080838360005b83811015610250578082015183820152602001610238565b50505050905090810190601f16801561027d5780820380516001836020036101000a031916815260200191505b50848103835288818151815260200191508051906020019080838360005b838110156102b357808201518382015260200161029b565b50505050905090810190601f1680156102e05780820380516001836020036101000a031916815260200191505b50848103825287818151815260200191508051906020019080838360005b838110156103165780820151838201526020016102fe565b50505050905090810190601f1680156103435780820380516001836020036101000a031916815260200191505b509850505050505050505060405180910390f35b341561036257600080fd5b610175610bec565b341561037557600080fd5b610175610c57565b341561038857600080fd5b6100fe60043573ffffffffffffffffffffffffffffffffffffffff60243516610cc2565b34156103b757600080fd5b6103c2600435610d84565b60405173ffffffffffffffffffffffffffffffffffffffff851681526060810182905260806020820181815285546002600019610100600184161502019091160491830182905290604083019060a0840190879080156104635780601f1061043857610100808354040283529160200191610463565b820191906000526020600020905b81548152906001019060200180831161044657829003601f168201915b50508381038252855460026000196101006001841615020190911604808252602090910190869080156104d75780601f106104ac576101008083540402835291602001916104d7565b820191906000526020600020905b8154815290600101906020018083116104ba57829003601f168201915b5050965050505050505060405180910390f35b34156104f557600080fd5b6100fe60046024813581810190830135806020601f8201819004810201604051908101604052818152929190602084018383808284378201915050505050509190803590602001908201803590602001908080601f016020809104026020016040519081016040528181529291906020840183838082843750949650610dcf95505050505050565b341561058857600080fd5b6105a973ffffffffffffffffffffffffffffffffffffffff60043516610eb5565b604051901515815260200160405180910390f35b34156105c857600080fd5b6105d0610eca565b60405190815260200160405180910390f35b34156105ed57600080fd5b6105f8600435610ed1565b604051808060200180602001848152602001838103835286818151815260200191508051906020019080838360005b8381101561063f578082015183820152602001610627565b50505050905090810190601f16801561066c5780820380516001836020036101000a031916815260200191505b50838103825285818151815260200191508051906020019080838360005b838110156106a257808201518382015260200161068a565b50505050905090810190601f1680156106cf5780820380516001836020036101000a031916815260200191505b509550505050505060405180910390f35b34156106eb57600080fd5b6105d0611056565b34156106fe57600080fd5b61011361105c565b6000808281548110151561071657fe5b6000918252602080832073ffffffffffffffffffffffffffffffffffffffff331684526004600590930201918201905260409091205490915060ff16151561079d57600381018054600190810190915573ffffffffffffffffffffffffffffffffffffffff331660009081526004830160205260409020805460ff1916909117905561081b565b73ffffffffffffffffffffffffffffffffffffffff3316600090815260048201602052604090205460ff161561081b576003810154600090116107df57600080fd5b60038101805460001901905573ffffffffffffffffffffffffffffffffffffffff331660009081526004820160205260409020805460ff191690555b5050565b60025473ffffffffffffffffffffffffffffffffffffffff1681565b60015473ffffffffffffffffffffffffffffffffffffffff1681565b73ffffffffffffffffffffffffffffffffffffffff331660009081526007602052604090205460ff1615156108c75760068054600190810190915573ffffffffffffffffffffffffffffffffffffffff33166000908152600760205260409020805460ff1916909117905561093d565b73ffffffffffffffffffffffffffffffffffffffff331660009081526007602052604090205460ff161561093d576006546000901161090557600080fd5b6006805460001901905573ffffffffffffffffffffffffffffffffffffffff33166000908152600760205260409020805460ff191690555b565b60058054600181600116156101000203166002900480601f0160208091040260200160405190810160405280929190818152602001828054600181600116156101000203166002900480156109d55780601f106109aa576101008083540402835291602001916109d5565b820191906000526020600020905b8154815290600101906020018083116109b857829003601f168201915b505050505081565b6109e5611078565b6109ed611078565b6109f5611078565b600080600360046005600654600080549050848054600181600116156101000203166002900480601f016020809104026020016040519081016040528092919081815260200182805460018160011615610100020316600290048015610a9c5780601f10610a7157610100808354040283529160200191610a9c565b820191906000526020600020905b815481529060010190602001808311610a7f57829003601f168201915b50505050509450838054600181600116156101000203166002900480601f016020809104026020016040519081016040528092919081815260200182805460018160011615610100020316600290048015610b385780601f10610b0d57610100808354040283529160200191610b38565b820191906000526020600020905b815481529060010190602001808311610b1b57829003601f168201915b50505050509350828054600181600116156101000203166002900480601f016020809104026020016040519081016040528092919081815260200182805460018160011615610100020316600290048015610bd45780601f10610ba957610100808354040283529160200191610bd4565b820191906000526020600020905b815481529060010190602001808311610bb757829003601f168201915b50505050509250945094509450945094509091929394565b60048054600181600116156101000203166002900480601f0160208091040260200160405190810160405280929190818152602001828054600181600116156101000203166002900480156109d55780601f106109aa576101008083540402835291602001916109d5565b60038054600181600116156101000203166002900480601f0160208091040260200160405190810160405280929190818152602001828054600181600116156101000203166002900480156109d55780601f106109aa576101008083540402835291602001916109d5565b6001543373ffffffffffffffffffffffffffffffffffffffff90811691161480610d1757508073ffffffffffffffffffffffffffffffffffffffff163373ffffffffffffffffffffffffffffffffffffffff16145b1515610d2257600080fd5b6000805483908110610d3057fe5b600091825260208220600590910201805473ffffffffffffffffffffffffffffffffffffffff1916815590610d68600183018261108a565b610d7660028301600061108a565b600382016000905550505050565b6000805482908110610d9257fe5b600091825260209091206005909102018054600382015473ffffffffffffffffffffffffffffffffffffffff909116925060018201916002019084565b610dd76110d1565b6080604051908101604052803373ffffffffffffffffffffffffffffffffffffffff1681526020018381526020018481526020016000815250905060008054806001018281610e269190611106565b600092835260209092208391600502018151815473ffffffffffffffffffffffffffffffffffffffff191673ffffffffffffffffffffffffffffffffffffffff91909116178155602082015181600101908051610e87929160200190611137565b50604082015181600201908051610ea2929160200190611137565b5060608201518160030155505050505050565b60076020526000908152604090205460ff1681565b6000545b90565b610ed9611078565b610ee1611078565b600080600085815481101515610ef357fe5b9060005260206000209060050201905080600101816002018260030154828054600181600116156101000203166002900480601f016020809104026020016040519081016040528092919081815260200182805460018160011615610100020316600290048015610fa55780601f10610f7a57610100808354040283529160200191610fa5565b820191906000526020600020905b815481529060010190602001808311610f8857829003601f168201915b50505050509250818054600181600116156101000203166002900480601f0160208091040260200160405190810160405280929190818152602001828054600181600116156101000203166002900480156110415780601f1061101657610100808354040283529160200191611041565b820191906000526020600020905b81548152906001019060200180831161102457829003601f168201915b50505050509150935093509350509193909250565b60065481565b60025473ffffffffffffffffffffffffffffffffffffffff1690565b60206040519081016040526000815290565b50805460018160011615610100020316600290046000825580601f106110b057506110ce565b601f0160209004906000526020600020908101906110ce91906111b5565b50565b608060405190810160405260008152602081016110ec611078565b81526020016110f9611078565b8152602001600081525090565b8154818355818115116111325760050281600502836000526020600020918201910161113291906111cf565b505050565b828054600181600116156101000203166002900490600052602060002090601f016020900481019282601f1061117857805160ff19168380011785556111a5565b828001600101855582156111a5579182015b828111156111a557825182559160200191906001019061118a565b506111b19291506111b5565b5090565b610ece91905b808211156111b157600081556001016111bb565b610ece91905b808211156111b157805473ffffffffffffffffffffffffffffffffffffffff191681556000611207600183018261108a565b61121560028301600061108a565b50600060038201556005016111d55600a165627a7a7230582050500cb495f275f249f368664dca79cc71788853c169fb52ba9737e598d567ba0029",
  "linkReferences": {},
  "deployedLinkReferences": {}
}